{
  "contractName": "ERC721Mintable",
  "abi": [
    {
      "anonymous": false,
      "inputs": [
        {
          "indexed": true,
          "internalType": "address",
          "name": "owner",
          "type": "address"
        },
        {
          "indexed": true,
          "internalType": "address",
          "name": "approved",
          "type": "address"
        },
        {
          "indexed": true,
          "internalType": "uint256",
          "name": "tokenId",
          "type": "uint256"
        }
      ],
      "name": "Approval",
      "type": "event"
    },
    {
      "anonymous": false,
      "inputs": [
        {
          "indexed": true,
          "internalType": "address",
          "name": "owner",
          "type": "address"
        },
        {
          "indexed": true,
          "internalType": "address",
          "name": "operator",
          "type": "address"
        },
        {
          "indexed": false,
          "internalType": "bool",
          "name": "approved",
          "type": "bool"
        }
      ],
      "name": "ApprovalForAll",
      "type": "event"
    },
    {
      "anonymous": false,
      "inputs": [
        {
          "indexed": true,
          "internalType": "address",
          "name": "account",
          "type": "address"
        }
      ],
      "name": "MinterAdded",
      "type": "event"
    },
    {
      "anonymous": false,
      "inputs": [
        {
          "indexed": true,
          "internalType": "address",
          "name": "account",
          "type": "address"
        }
      ],
      "name": "MinterRemoved",
      "type": "event"
    },
    {
      "anonymous": false,
      "inputs": [
        {
          "indexed": true,
          "internalType": "address",
          "name": "from",
          "type": "address"
        },
        {
          "indexed": true,
          "internalType": "address",
          "name": "to",
          "type": "address"
        },
        {
          "indexed": true,
          "internalType": "uint256",
          "name": "tokenId",
          "type": "uint256"
        }
      ],
      "name": "Transfer",
      "type": "event"
    },
    {
      "constant": false,
      "inputs": [
        {
          "internalType": "address",
          "name": "account",
          "type": "address"
        }
      ],
      "name": "addMinter",
      "outputs": [],
      "payable": false,
      "stateMutability": "nonpayable",
      "type": "function"
    },
    {
      "constant": false,
      "inputs": [
        {
          "internalType": "address",
          "name": "to",
          "type": "address"
        },
        {
          "internalType": "uint256",
          "name": "tokenId",
          "type": "uint256"
        }
      ],
      "name": "approve",
      "outputs": [],
      "payable": false,
      "stateMutability": "nonpayable",
      "type": "function"
    },
    {
      "constant": true,
      "inputs": [
        {
          "internalType": "address",
          "name": "owner",
          "type": "address"
        }
      ],
      "name": "balanceOf",
      "outputs": [
        {
          "internalType": "uint256",
          "name": "",
          "type": "uint256"
        }
      ],
      "payable": false,
      "stateMutability": "view",
      "type": "function"
    },
    {
      "constant": true,
      "inputs": [
        {
          "internalType": "uint256",
          "name": "tokenId",
          "type": "uint256"
        }
      ],
      "name": "getApproved",
      "outputs": [
        {
          "internalType": "address",
          "name": "",
          "type": "address"
        }
      ],
      "payable": false,
      "stateMutability": "view",
      "type": "function"
    },
    {
      "constant": true,
      "inputs": [
        {
          "internalType": "address",
          "name": "owner",
          "type": "address"
        },
        {
          "internalType": "address",
          "name": "operator",
          "type": "address"
        }
      ],
      "name": "isApprovedForAll",
      "outputs": [
        {
          "internalType": "bool",
          "name": "",
          "type": "bool"
        }
      ],
      "payable": false,
      "stateMutability": "view",
      "type": "function"
    },
    {
      "constant": true,
      "inputs": [
        {
          "internalType": "address",
          "name": "account",
          "type": "address"
        }
      ],
      "name": "isMinter",
      "outputs": [
        {
          "internalType": "bool",
          "name": "",
          "type": "bool"
        }
      ],
      "payable": false,
      "stateMutability": "view",
      "type": "function"
    },
    {
      "constant": true,
      "inputs": [
        {
          "internalType": "uint256",
          "name": "tokenId",
          "type": "uint256"
        }
      ],
      "name": "ownerOf",
      "outputs": [
        {
          "internalType": "address",
          "name": "",
          "type": "address"
        }
      ],
      "payable": false,
      "stateMutability": "view",
      "type": "function"
    },
    {
      "constant": false,
      "inputs": [],
      "name": "renounceMinter",
      "outputs": [],
      "payable": false,
      "stateMutability": "nonpayable",
      "type": "function"
    },
    {
      "constant": false,
      "inputs": [
        {
          "internalType": "address",
          "name": "from",
          "type": "address"
        },
        {
          "internalType": "address",
          "name": "to",
          "type": "address"
        },
        {
          "internalType": "uint256",
          "name": "tokenId",
          "type": "uint256"
        }
      ],
      "name": "safeTransferFrom",
      "outputs": [],
      "payable": false,
      "stateMutability": "nonpayable",
      "type": "function"
    },
    {
      "constant": false,
      "inputs": [
        {
          "internalType": "address",
          "name": "from",
          "type": "address"
        },
        {
          "internalType": "address",
          "name": "to",
          "type": "address"
        },
        {
          "internalType": "uint256",
          "name": "tokenId",
          "type": "uint256"
        },
        {
          "internalType": "bytes",
          "name": "_data",
          "type": "bytes"
        }
      ],
      "name": "safeTransferFrom",
      "outputs": [],
      "payable": false,
      "stateMutability": "nonpayable",
      "type": "function"
    },
    {
      "constant": false,
      "inputs": [
        {
          "internalType": "address",
          "name": "to",
          "type": "address"
        },
        {
          "internalType": "bool",
          "name": "approved",
          "type": "bool"
        }
      ],
      "name": "setApprovalForAll",
      "outputs": [],
      "payable": false,
      "stateMutability": "nonpayable",
      "type": "function"
    },
    {
      "constant": true,
      "inputs": [
        {
          "internalType": "bytes4",
          "name": "interfaceId",
          "type": "bytes4"
        }
      ],
      "name": "supportsInterface",
      "outputs": [
        {
          "internalType": "bool",
          "name": "",
          "type": "bool"
        }
      ],
      "payable": false,
      "stateMutability": "view",
      "type": "function"
    },
    {
      "constant": false,
      "inputs": [
        {
          "internalType": "address",
          "name": "from",
          "type": "address"
        },
        {
          "internalType": "address",
          "name": "to",
          "type": "address"
        },
        {
          "internalType": "uint256",
          "name": "tokenId",
          "type": "uint256"
        }
      ],
      "name": "transferFrom",
      "outputs": [],
      "payable": false,
      "stateMutability": "nonpayable",
      "type": "function"
    },
    {
      "constant": false,
      "inputs": [
        {
          "internalType": "address",
          "name": "to",
          "type": "address"
        },
        {
          "internalType": "uint256",
          "name": "tokenId",
          "type": "uint256"
        }
      ],
      "name": "mint",
      "outputs": [
        {
          "internalType": "bool",
          "name": "",
          "type": "bool"
        }
      ],
      "payable": false,
      "stateMutability": "nonpayable",
      "type": "function"
    }
  ],
  "bytecode": "0x608060405261001d6301ffc9a760e01b6001600160e01b0361004d16565b6100366380ac58cd60e01b6001600160e01b0361004d16565b610048336001600160e01b0361008916565b610162565b6001600160e01b0319808216141561006457600080fd5b6001600160e01b0319166000908152602081905260409020805460ff19166001179055565b6100a18160056100d860201b610c591790919060201c565b6040516001600160a01b038216907f6ae172837ea30b801fbfcdd4108aa1d5bf8ff775444fd70256b44e6bf3dfc3f690600090a250565b6001600160a01b0381166100eb57600080fd5b6100fe82826001600160e01b0361012d16565b1561010857600080fd5b6001600160a01b0316600090815260209190915260409020805460ff19166001179055565b60006001600160a01b03821661014257600080fd5b506001600160a01b03166000908152602091909152604090205460ff1690565b610d28806101716000396000f3fe608060405234801561001057600080fd5b50600436106100ea5760003560e01c806370a082311161008c578063a22cb46511610066578063a22cb465146102ac578063aa271e1a146102da578063b88d4fde14610300578063e985e9c5146103c6576100ea565b806370a0823114610246578063983b2d561461027e57806398650275146102a4576100ea565b806323b872dd116100c857806323b872dd1461019157806340c10f19146101c757806342842e0e146101f35780636352211e14610229576100ea565b806301ffc9a7146100ef578063081812fc1461012a578063095ea7b314610163575b600080fd5b6101166004803603602081101561010557600080fd5b50356001600160e01b0319166103f4565b604080519115158252519081900360200190f35b6101476004803603602081101561014057600080fd5b5035610413565b604080516001600160a01b039092168252519081900360200190f35b61018f6004803603604081101561017957600080fd5b506001600160a01b038135169060200135610443565b005b61018f600480360360608110156101a757600080fd5b506001600160a01b03813581169160208101359091169060400135610529565b610116600480360360408110156101dd57600080fd5b506001600160a01b038135169060200135610586565b61018f6004803603606081101561020957600080fd5b506001600160a01b038135811691602081013590911690604001356105ad565b6101476004803603602081101561023f57600080fd5b50356105c8565b61026c6004803603602081101561025c57600080fd5b50356001600160a01b03166105f0565b60408051918252519081900360200190f35b61018f6004803603602081101561029457600080fd5b50356001600160a01b0316610621565b61018f61063f565b61018f600480360360408110156102c257600080fd5b506001600160a01b038135169060200135151561064a565b610116600480360360208110156102f057600080fd5b50356001600160a01b03166106ce565b61018f6004803603608081101561031657600080fd5b6001600160a01b0382358116926020810135909116916040820135919081019060808101606082013564010000000081111561035157600080fd5b82018360208201111561036357600080fd5b8035906020019184600183028401116401000000008311171561038557600080fd5b91908080601f0160208091040260200160405190810160405280939291908181526020018383808284376000920191909152509295506106e1945050505050565b610116600480360360408110156103dc57600080fd5b506001600160a01b0381358116916020013516610747565b6001600160e01b03191660009081526020819052604090205460ff1690565b600061041e82610775565b61042757600080fd5b506000908152600260205260409020546001600160a01b031690565b600061044e826105c8565b9050806001600160a01b0316836001600160a01b0316141561046f57600080fd5b336001600160a01b038216148061048b575061048b8133610747565b6104cd576040805162461bcd60e51b815260206004820152600e60248201526d185c1c1c9bdd994819985a5b195960921b604482015290519081900360640190fd5b60008281526002602052604080822080546001600160a01b0319166001600160a01b0387811691821790925591518593918516917f8c5be1e5ebec7d5bd14f71427d1e84f3dd0314c0f7b2291e5b200ac8c7c3b92591a4505050565b6105333382610792565b610576576040805162461bcd60e51b815260206004820152600f60248201526e185c1c1c9bdd985b0819985a5b1959608a1b604482015290519081900360640190fd5b6105818383836107f1565b505050565b6000610591336106ce565b61059a57600080fd5b6105a48383610946565b50600192915050565b610581838383604051806020016040528060008152506106e1565b6000818152600160205260408120546001600160a01b0316806105ea57600080fd5b92915050565b60006001600160a01b03821661060557600080fd5b506001600160a01b031660009081526003602052604090205490565b61062a336106ce565b61063357600080fd5b61063c816109f8565b50565b61064833610a40565b565b6001600160a01b03821633141561066057600080fd5b3360008181526004602090815260408083206001600160a01b03871680855290835292819020805460ff1916861515908117909155815190815290519293927f17307eab39ab6107e8899845ad3d59bd9653f200f220920489ca2b5937696c31929181900390910190a35050565b60006105ea60058363ffffffff610a8816565b6106ec848484610529565b6106f884848484610abd565b610741576040805162461bcd60e51b81526020600482015260156024820152741c1c9bd89b195b481dda5d1a081c9958da595d9959605a1b604482015290519081900360640190fd5b50505050565b6001600160a01b03918216600090815260046020908152604080832093909416825291909152205460ff1690565b6000908152600160205260409020546001600160a01b0316151590565b60008061079e836105c8565b9050806001600160a01b0316846001600160a01b031614806107d95750836001600160a01b03166107ce84610413565b6001600160a01b0316145b806107e957506107e98185610747565b949350505050565b826001600160a01b0316610804826105c8565b6001600160a01b03161461085f576040805162461bcd60e51b815260206004820152601e60248201527f5f7472616e7366657246726f6d206661696c656420696e204552433732310000604482015290519081900360640190fd5b6001600160a01b03821661087257600080fd5b61087b81610bf0565b6001600160a01b0383166000908152600360205260409020546108a590600163ffffffff610c2b16565b6001600160a01b0380851660009081526003602052604080822093909355908416815220546108db90600163ffffffff610c4016565b6001600160a01b038084166000818152600360209081526040808320959095558582526001905283812080546001600160a01b031916831790559251849391928716917fddf252ad1be2c89b69c2b068fc378daa952ba7f163c4a11628f55a4df523b3ef91a4505050565b6001600160a01b03821661095957600080fd5b61096281610775565b1561096c57600080fd5b600081815260016020818152604080842080546001600160a01b0319166001600160a01b03881690811790915584526003909152909120546109ad91610c40565b6001600160a01b0383166000818152600360205260408082209390935591518392907fddf252ad1be2c89b69c2b068fc378daa952ba7f163c4a11628f55a4df523b3ef908290a45050565b610a0960058263ffffffff610c5916565b6040516001600160a01b038216907f6ae172837ea30b801fbfcdd4108aa1d5bf8ff775444fd70256b44e6bf3dfc3f690600090a250565b610a5160058263ffffffff610ca516565b6040516001600160a01b038216907fe94479a9f7e1952cc78f2d6baab678adc1b772d936c6583def489e524cb6669290600090a250565b60006001600160a01b038216610a9d57600080fd5b506001600160a01b03166000908152602091909152604090205460ff1690565b6000610ad1846001600160a01b0316610ced565b610add575060016107e9565b604051630a85bd0160e11b815233600482018181526001600160a01b03888116602485015260448401879052608060648501908152865160848601528651600095928a169463150b7a029490938c938b938b939260a4019060208501908083838e5b83811015610b57578181015183820152602001610b3f565b50505050905090810190601f168015610b845780820380516001836020036101000a031916815260200191505b5095505050505050602060405180830381600087803b158015610ba657600080fd5b505af1158015610bba573d6000803e3d6000fd5b505050506040513d6020811015610bd057600080fd5b50516001600160e01b031916630a85bd0160e11b14915050949350505050565b6000818152600260205260409020546001600160a01b03161561063c57600090815260026020526040902080546001600160a01b0319169055565b600082821115610c3a57600080fd5b50900390565b600082820183811015610c5257600080fd5b9392505050565b6001600160a01b038116610c6c57600080fd5b610c768282610a88565b15610c8057600080fd5b6001600160a01b0316600090815260209190915260409020805460ff19166001179055565b6001600160a01b038116610cb857600080fd5b610cc28282610a88565b610ccb57600080fd5b6001600160a01b0316600090815260209190915260409020805460ff19169055565b3b15159056fea265627a7a72315820f7a78f8a47b0cfe7c7bd5d5bca8b73fd292e911502ed2c6a9065cdf9a94c8e9d64736f6c63430005100032",
  "source": "pragma solidity ^0.5.0;\n\nimport \"./ERC721.sol\";\nimport \"../../access/roles/MinterRole.sol\";\n\n/**\n * @title ERC721Mintable\n * @dev ERC721 minting logic\n */\ncontract ERC721Mintable is ERC721, MinterRole {\n    /**\n     * @dev Function to mint tokens\n     * @param to The address that will receive the minted tokens.\n     * @param tokenId The token id to mint.\n     * @return A boolean that indicates if the operation was successful.\n     */\n    function mint(address to, uint256 tokenId) public onlyMinter returns (bool) {\n        _mint(to, tokenId);\n        return true;\n    }\n}\n",
  "sourcePath": "/Users/yonatanmartsiano/Downloads/Swallow-2/contracts/openzeppelin-solidity/contracts/token/ERC721/ERC721Mintable.sol",
  "compiler": {
    "name": "solc",
    "version": "0.5.16+commit.9c3226ce.Emscripten.clang"
  },
  "schemaVersion": "3.3.2",
  "updatedAt": "2021-08-02T09:48:48.131Z",
  "devdoc": {
    "details": "ERC721 minting logic",
    "methods": {
      "approve(address,uint256)": {
        "details": "Approves another address to transfer the given token ID The zero address indicates there is no approved address. There can only be one approved address per token at a given time. Can only be called by the token owner or an approved operator.",
        "params": {
          "to": "address to be approved for the given token ID",
          "tokenId": "uint256 ID of the token to be approved"
        }
      },
      "balanceOf(address)": {
        "details": "Gets the balance of the specified address",
        "params": {
          "owner": "address to query the balance of"
        },
        "return": "uint256 representing the amount owned by the passed address"
      },
      "getApproved(uint256)": {
        "details": "Gets the approved address for a token ID, or zero if no address set Reverts if the token ID does not exist.",
        "params": {
          "tokenId": "uint256 ID of the token to query the approval of"
        },
        "return": "address currently approved for the given token ID"
      },
      "isApprovedForAll(address,address)": {
        "details": "Tells whether an operator is approved by a given owner",
        "params": {
          "operator": "operator address which you want to query the approval of",
          "owner": "owner address which you want to query the approval of"
        },
        "return": "bool whether the given operator is approved by the given owner"
      },
      "mint(address,uint256)": {
        "details": "Function to mint tokens",
        "params": {
          "to": "The address that will receive the minted tokens.",
          "tokenId": "The token id to mint."
        },
        "return": "A boolean that indicates if the operation was successful."
      },
      "ownerOf(uint256)": {
        "details": "Gets the owner of the specified token ID",
        "params": {
          "tokenId": "uint256 ID of the token to query the owner of"
        },
        "return": "owner address currently marked as the owner of the given token ID"
      },
      "safeTransferFrom(address,address,uint256)": {
        "details": "Safely transfers the ownership of a given token ID to another address If the target address is a contract, it must implement `onERC721Received`, which is called upon a safe transfer, and return the magic value `bytes4(keccak256(\"onERC721Received(address,address,uint256,bytes)\"))`; otherwise, the transfer is reverted.     * Requires the msg sender to be the owner, approved, or operator",
        "params": {
          "from": "current owner of the token",
          "to": "address to receive the ownership of the given token ID",
          "tokenId": "uint256 ID of the token to be transferred"
        }
      },
      "safeTransferFrom(address,address,uint256,bytes)": {
        "details": "Safely transfers the ownership of a given token ID to another address If the target address is a contract, it must implement `onERC721Received`, which is called upon a safe transfer, and return the magic value `bytes4(keccak256(\"onERC721Received(address,address,uint256,bytes)\"))`; otherwise, the transfer is reverted. Requires the msg sender to be the owner, approved, or operator",
        "params": {
          "_data": "bytes data to send along with a safe transfer check",
          "from": "current owner of the token",
          "to": "address to receive the ownership of the given token ID",
          "tokenId": "uint256 ID of the token to be transferred"
        }
      },
      "setApprovalForAll(address,bool)": {
        "details": "Sets or unsets the approval of a given operator An operator is allowed to transfer all tokens of the sender on their behalf",
        "params": {
          "approved": "representing the status of the approval to be set",
          "to": "operator address to set the approval"
        }
      },
      "supportsInterface(bytes4)": {
        "details": "implement supportsInterface(bytes4) using a lookup table"
      },
      "transferFrom(address,address,uint256)": {
        "details": "Transfers the ownership of a given token ID to another address Usage of this method is discouraged, use `safeTransferFrom` whenever possible Requires the msg sender to be the owner, approved, or operator",
        "params": {
          "from": "current owner of the token",
          "to": "address to receive the ownership of the given token ID",
          "tokenId": "uint256 ID of the token to be transferred"
        }
      }
    },
    "title": "ERC721Mintable"
  },
  "userdoc": {
    "methods": {}
  }
}