{
  "contractName": "ERC721Burnable",
  "abi": [
    {
      "anonymous": false,
      "inputs": [
        {
          "indexed": true,
          "internalType": "address",
          "name": "owner",
          "type": "address"
        },
        {
          "indexed": true,
          "internalType": "address",
          "name": "approved",
          "type": "address"
        },
        {
          "indexed": true,
          "internalType": "uint256",
          "name": "tokenId",
          "type": "uint256"
        }
      ],
      "name": "Approval",
      "type": "event"
    },
    {
      "anonymous": false,
      "inputs": [
        {
          "indexed": true,
          "internalType": "address",
          "name": "owner",
          "type": "address"
        },
        {
          "indexed": true,
          "internalType": "address",
          "name": "operator",
          "type": "address"
        },
        {
          "indexed": false,
          "internalType": "bool",
          "name": "approved",
          "type": "bool"
        }
      ],
      "name": "ApprovalForAll",
      "type": "event"
    },
    {
      "anonymous": false,
      "inputs": [
        {
          "indexed": true,
          "internalType": "address",
          "name": "from",
          "type": "address"
        },
        {
          "indexed": true,
          "internalType": "address",
          "name": "to",
          "type": "address"
        },
        {
          "indexed": true,
          "internalType": "uint256",
          "name": "tokenId",
          "type": "uint256"
        }
      ],
      "name": "Transfer",
      "type": "event"
    },
    {
      "constant": false,
      "inputs": [
        {
          "internalType": "address",
          "name": "to",
          "type": "address"
        },
        {
          "internalType": "uint256",
          "name": "tokenId",
          "type": "uint256"
        }
      ],
      "name": "approve",
      "outputs": [],
      "payable": false,
      "stateMutability": "nonpayable",
      "type": "function"
    },
    {
      "constant": true,
      "inputs": [
        {
          "internalType": "address",
          "name": "owner",
          "type": "address"
        }
      ],
      "name": "balanceOf",
      "outputs": [
        {
          "internalType": "uint256",
          "name": "",
          "type": "uint256"
        }
      ],
      "payable": false,
      "stateMutability": "view",
      "type": "function"
    },
    {
      "constant": true,
      "inputs": [
        {
          "internalType": "uint256",
          "name": "tokenId",
          "type": "uint256"
        }
      ],
      "name": "getApproved",
      "outputs": [
        {
          "internalType": "address",
          "name": "",
          "type": "address"
        }
      ],
      "payable": false,
      "stateMutability": "view",
      "type": "function"
    },
    {
      "constant": true,
      "inputs": [
        {
          "internalType": "address",
          "name": "owner",
          "type": "address"
        },
        {
          "internalType": "address",
          "name": "operator",
          "type": "address"
        }
      ],
      "name": "isApprovedForAll",
      "outputs": [
        {
          "internalType": "bool",
          "name": "",
          "type": "bool"
        }
      ],
      "payable": false,
      "stateMutability": "view",
      "type": "function"
    },
    {
      "constant": true,
      "inputs": [
        {
          "internalType": "uint256",
          "name": "tokenId",
          "type": "uint256"
        }
      ],
      "name": "ownerOf",
      "outputs": [
        {
          "internalType": "address",
          "name": "",
          "type": "address"
        }
      ],
      "payable": false,
      "stateMutability": "view",
      "type": "function"
    },
    {
      "constant": false,
      "inputs": [
        {
          "internalType": "address",
          "name": "from",
          "type": "address"
        },
        {
          "internalType": "address",
          "name": "to",
          "type": "address"
        },
        {
          "internalType": "uint256",
          "name": "tokenId",
          "type": "uint256"
        }
      ],
      "name": "safeTransferFrom",
      "outputs": [],
      "payable": false,
      "stateMutability": "nonpayable",
      "type": "function"
    },
    {
      "constant": false,
      "inputs": [
        {
          "internalType": "address",
          "name": "from",
          "type": "address"
        },
        {
          "internalType": "address",
          "name": "to",
          "type": "address"
        },
        {
          "internalType": "uint256",
          "name": "tokenId",
          "type": "uint256"
        },
        {
          "internalType": "bytes",
          "name": "_data",
          "type": "bytes"
        }
      ],
      "name": "safeTransferFrom",
      "outputs": [],
      "payable": false,
      "stateMutability": "nonpayable",
      "type": "function"
    },
    {
      "constant": false,
      "inputs": [
        {
          "internalType": "address",
          "name": "to",
          "type": "address"
        },
        {
          "internalType": "bool",
          "name": "approved",
          "type": "bool"
        }
      ],
      "name": "setApprovalForAll",
      "outputs": [],
      "payable": false,
      "stateMutability": "nonpayable",
      "type": "function"
    },
    {
      "constant": true,
      "inputs": [
        {
          "internalType": "bytes4",
          "name": "interfaceId",
          "type": "bytes4"
        }
      ],
      "name": "supportsInterface",
      "outputs": [
        {
          "internalType": "bool",
          "name": "",
          "type": "bool"
        }
      ],
      "payable": false,
      "stateMutability": "view",
      "type": "function"
    },
    {
      "constant": false,
      "inputs": [
        {
          "internalType": "address",
          "name": "from",
          "type": "address"
        },
        {
          "internalType": "address",
          "name": "to",
          "type": "address"
        },
        {
          "internalType": "uint256",
          "name": "tokenId",
          "type": "uint256"
        }
      ],
      "name": "transferFrom",
      "outputs": [],
      "payable": false,
      "stateMutability": "nonpayable",
      "type": "function"
    },
    {
      "constant": false,
      "inputs": [
        {
          "internalType": "uint256",
          "name": "tokenId",
          "type": "uint256"
        }
      ],
      "name": "burn",
      "outputs": [],
      "payable": false,
      "stateMutability": "nonpayable",
      "type": "function"
    }
  ],
  "bytecode": "0x608060405261001d6301ffc9a760e01b6001600160e01b0361003b16565b6100366380ac58cd60e01b6001600160e01b0361003b16565b610077565b6001600160e01b0319808216141561005257600080fd5b6001600160e01b0319166000908152602081905260409020805460ff19166001179055565b610b06806100866000396000f3fe608060405234801561001057600080fd5b50600436106100a95760003560e01c806342966c681161007157806342966c68146101bc5780636352211e146101d957806370a08231146101f6578063a22cb4651461022e578063b88d4fde1461025c578063e985e9c514610322576100a9565b806301ffc9a7146100ae578063081812fc146100e9578063095ea7b31461012257806323b872dd1461015057806342842e0e14610186575b600080fd5b6100d5600480360360208110156100c457600080fd5b50356001600160e01b031916610350565b604080519115158252519081900360200190f35b610106600480360360208110156100ff57600080fd5b503561036f565b604080516001600160a01b039092168252519081900360200190f35b61014e6004803603604081101561013857600080fd5b506001600160a01b03813516906020013561039f565b005b61014e6004803603606081101561016657600080fd5b506001600160a01b03813581169160208101359091169060400135610485565b61014e6004803603606081101561019c57600080fd5b506001600160a01b038135811691602081013590911690604001356104e2565b61014e600480360360208110156101d257600080fd5b50356104fd565b610106600480360360208110156101ef57600080fd5b503561051c565b61021c6004803603602081101561020c57600080fd5b50356001600160a01b0316610544565b60408051918252519081900360200190f35b61014e6004803603604081101561024457600080fd5b506001600160a01b0381351690602001351515610575565b61014e6004803603608081101561027257600080fd5b6001600160a01b038235811692602081013590911691604082013591908101906080810160608201356401000000008111156102ad57600080fd5b8201836020820111156102bf57600080fd5b803590602001918460018302840111640100000000831117156102e157600080fd5b91908080601f0160208091040260200160405190810160405280939291908181526020018383808284376000920191909152509295506105f9945050505050565b6100d56004803603604081101561033857600080fd5b506001600160a01b038135811691602001351661065f565b6001600160e01b03191660009081526020819052604090205460ff1690565b600061037a8261068d565b61038357600080fd5b506000908152600260205260409020546001600160a01b031690565b60006103aa8261051c565b9050806001600160a01b0316836001600160a01b031614156103cb57600080fd5b336001600160a01b03821614806103e757506103e7813361065f565b610429576040805162461bcd60e51b815260206004820152600e60248201526d185c1c1c9bdd994819985a5b195960921b604482015290519081900360640190fd5b60008281526002602052604080822080546001600160a01b0319166001600160a01b0387811691821790925591518593918516917f8c5be1e5ebec7d5bd14f71427d1e84f3dd0314c0f7b2291e5b200ac8c7c3b92591a4505050565b61048f33826106aa565b6104d2576040805162461bcd60e51b815260206004820152600f60248201526e185c1c1c9bdd985b0819985a5b1959608a1b604482015290519081900360640190fd5b6104dd838383610709565b505050565b6104dd838383604051806020016040528060008152506105f9565b61050733826106aa565b61051057600080fd5b6105198161085e565b50565b6000818152600160205260408120546001600160a01b03168061053e57600080fd5b92915050565b60006001600160a01b03821661055957600080fd5b506001600160a01b031660009081526003602052604090205490565b6001600160a01b03821633141561058b57600080fd5b3360008181526004602090815260408083206001600160a01b03871680855290835292819020805460ff1916861515908117909155815190815290519293927f17307eab39ab6107e8899845ad3d59bd9653f200f220920489ca2b5937696c31929181900390910190a35050565b610604848484610485565b61061084848484610870565b610659576040805162461bcd60e51b81526020600482015260156024820152741c1c9bd89b195b481dda5d1a081c9958da595d9959605a1b604482015290519081900360640190fd5b50505050565b6001600160a01b03918216600090815260046020908152604080832093909416825291909152205460ff1690565b6000908152600160205260409020546001600160a01b0316151590565b6000806106b68361051c565b9050806001600160a01b0316846001600160a01b031614806106f15750836001600160a01b03166106e68461036f565b6001600160a01b0316145b806107015750610701818561065f565b949350505050565b826001600160a01b031661071c8261051c565b6001600160a01b031614610777576040805162461bcd60e51b815260206004820152601e60248201527f5f7472616e7366657246726f6d206661696c656420696e204552433732310000604482015290519081900360640190fd5b6001600160a01b03821661078a57600080fd5b610793816109a3565b6001600160a01b0383166000908152600360205260409020546107bd90600163ffffffff6109de16565b6001600160a01b0380851660009081526003602052604080822093909355908416815220546107f390600163ffffffff6109f316565b6001600160a01b038084166000818152600360209081526040808320959095558582526001905283812080546001600160a01b031916831790559251849391928716917fddf252ad1be2c89b69c2b068fc378daa952ba7f163c4a11628f55a4df523b3ef91a4505050565b61051961086a8261051c565b82610a0c565b6000610884846001600160a01b0316610acb565b61089057506001610701565b604051630a85bd0160e11b815233600482018181526001600160a01b03888116602485015260448401879052608060648501908152865160848601528651600095928a169463150b7a029490938c938b938b939260a4019060208501908083838e5b8381101561090a5781810151838201526020016108f2565b50505050905090810190601f1680156109375780820380516001836020036101000a031916815260200191505b5095505050505050602060405180830381600087803b15801561095957600080fd5b505af115801561096d573d6000803e3d6000fd5b505050506040513d602081101561098357600080fd5b50516001600160e01b031916630a85bd0160e11b14915050949350505050565b6000818152600260205260409020546001600160a01b03161561051957600090815260026020526040902080546001600160a01b0319169055565b6000828211156109ed57600080fd5b50900390565b600082820183811015610a0557600080fd5b9392505050565b816001600160a01b0316610a1f8261051c565b6001600160a01b031614610a3257600080fd5b610a3b816109a3565b6001600160a01b038216600090815260036020526040902054610a6590600163ffffffff6109de16565b6001600160a01b0383166000818152600360209081526040808320949094558482526001905282812080546001600160a01b03191690559151839291907fddf252ad1be2c89b69c2b068fc378daa952ba7f163c4a11628f55a4df523b3ef908390a45050565b3b15159056fea265627a7a7231582017258c2bdaaee0cd9e4198984cfcebe1e29f6f78e312cc457e8b63ce28fa941764736f6c63430005100032",
  "source": "pragma solidity ^0.5.0;\n\nimport \"./ERC721.sol\";\n\n/**\n * @title ERC721 Burnable Token\n * @dev ERC721 Token that can be irreversibly burned (destroyed).\n */\ncontract ERC721Burnable is ERC721 {\n    /**\n     * @dev Burns a specific ERC721 token.\n     * @param tokenId uint256 id of the ERC721 token to be burned.\n     */\n    function burn(uint256 tokenId) public {\n        require(_isApprovedOrOwner(msg.sender, tokenId));\n        _burn(tokenId);\n    }\n}\n",
  "sourcePath": "/Users/yonatanmartsiano/Downloads/Swallow-2/contracts/openzeppelin-solidity/contracts/token/ERC721/ERC721Burnable.sol",
  "compiler": {
    "name": "solc",
    "version": "0.5.16+commit.9c3226ce.Emscripten.clang"
  },
  "schemaVersion": "3.3.2",
  "updatedAt": "2021-08-02T09:48:48.114Z",
  "devdoc": {
    "details": "ERC721 Token that can be irreversibly burned (destroyed).",
    "methods": {
      "approve(address,uint256)": {
        "details": "Approves another address to transfer the given token ID The zero address indicates there is no approved address. There can only be one approved address per token at a given time. Can only be called by the token owner or an approved operator.",
        "params": {
          "to": "address to be approved for the given token ID",
          "tokenId": "uint256 ID of the token to be approved"
        }
      },
      "balanceOf(address)": {
        "details": "Gets the balance of the specified address",
        "params": {
          "owner": "address to query the balance of"
        },
        "return": "uint256 representing the amount owned by the passed address"
      },
      "burn(uint256)": {
        "details": "Burns a specific ERC721 token.",
        "params": {
          "tokenId": "uint256 id of the ERC721 token to be burned."
        }
      },
      "getApproved(uint256)": {
        "details": "Gets the approved address for a token ID, or zero if no address set Reverts if the token ID does not exist.",
        "params": {
          "tokenId": "uint256 ID of the token to query the approval of"
        },
        "return": "address currently approved for the given token ID"
      },
      "isApprovedForAll(address,address)": {
        "details": "Tells whether an operator is approved by a given owner",
        "params": {
          "operator": "operator address which you want to query the approval of",
          "owner": "owner address which you want to query the approval of"
        },
        "return": "bool whether the given operator is approved by the given owner"
      },
      "ownerOf(uint256)": {
        "details": "Gets the owner of the specified token ID",
        "params": {
          "tokenId": "uint256 ID of the token to query the owner of"
        },
        "return": "owner address currently marked as the owner of the given token ID"
      },
      "safeTransferFrom(address,address,uint256)": {
        "details": "Safely transfers the ownership of a given token ID to another address If the target address is a contract, it must implement `onERC721Received`, which is called upon a safe transfer, and return the magic value `bytes4(keccak256(\"onERC721Received(address,address,uint256,bytes)\"))`; otherwise, the transfer is reverted.     * Requires the msg sender to be the owner, approved, or operator",
        "params": {
          "from": "current owner of the token",
          "to": "address to receive the ownership of the given token ID",
          "tokenId": "uint256 ID of the token to be transferred"
        }
      },
      "safeTransferFrom(address,address,uint256,bytes)": {
        "details": "Safely transfers the ownership of a given token ID to another address If the target address is a contract, it must implement `onERC721Received`, which is called upon a safe transfer, and return the magic value `bytes4(keccak256(\"onERC721Received(address,address,uint256,bytes)\"))`; otherwise, the transfer is reverted. Requires the msg sender to be the owner, approved, or operator",
        "params": {
          "_data": "bytes data to send along with a safe transfer check",
          "from": "current owner of the token",
          "to": "address to receive the ownership of the given token ID",
          "tokenId": "uint256 ID of the token to be transferred"
        }
      },
      "setApprovalForAll(address,bool)": {
        "details": "Sets or unsets the approval of a given operator An operator is allowed to transfer all tokens of the sender on their behalf",
        "params": {
          "approved": "representing the status of the approval to be set",
          "to": "operator address to set the approval"
        }
      },
      "supportsInterface(bytes4)": {
        "details": "implement supportsInterface(bytes4) using a lookup table"
      },
      "transferFrom(address,address,uint256)": {
        "details": "Transfers the ownership of a given token ID to another address Usage of this method is discouraged, use `safeTransferFrom` whenever possible Requires the msg sender to be the owner, approved, or operator",
        "params": {
          "from": "current owner of the token",
          "to": "address to receive the ownership of the given token ID",
          "tokenId": "uint256 ID of the token to be transferred"
        }
      }
    },
    "title": "ERC721 Burnable Token"
  },
  "userdoc": {
    "methods": {}
  }
}