{
  "contractName": "PhotoNFTTradable",
  "abi": [
    {
      "inputs": [
        {
          "internalType": "contract PhotoNFTData",
          "name": "_photoNFTData",
          "type": "address"
        }
      ],
      "payable": false,
      "stateMutability": "nonpayable",
      "type": "constructor"
    },
    {
      "anonymous": false,
      "inputs": [
        {
          "indexed": false,
          "internalType": "uint256",
          "name": "ad",
          "type": "uint256"
        },
        {
          "indexed": false,
          "internalType": "bytes32",
          "name": "status",
          "type": "bytes32"
        }
      ],
      "name": "TradeStatusChange",
      "type": "event"
    },
    {
      "constant": true,
      "inputs": [],
      "name": "photoNFT",
      "outputs": [
        {
          "internalType": "contract PhotoNFT",
          "name": "",
          "type": "address"
        }
      ],
      "payable": false,
      "stateMutability": "view",
      "type": "function"
    },
    {
      "constant": true,
      "inputs": [],
      "name": "photoNFTData",
      "outputs": [
        {
          "internalType": "contract PhotoNFTData",
          "name": "",
          "type": "address"
        }
      ],
      "payable": false,
      "stateMutability": "view",
      "type": "function"
    },
    {
      "constant": true,
      "inputs": [
        {
          "internalType": "uint256",
          "name": "",
          "type": "uint256"
        }
      ],
      "name": "trades",
      "outputs": [
        {
          "internalType": "address",
          "name": "seller",
          "type": "address"
        },
        {
          "internalType": "uint256",
          "name": "photoId",
          "type": "uint256"
        },
        {
          "internalType": "uint256",
          "name": "photoPrice",
          "type": "uint256"
        },
        {
          "internalType": "bytes32",
          "name": "status",
          "type": "bytes32"
        }
      ],
      "payable": false,
      "stateMutability": "view",
      "type": "function"
    },
    {
      "constant": false,
      "inputs": [
        {
          "internalType": "contract PhotoNFT",
          "name": "photoNFT",
          "type": "address"
        },
        {
          "internalType": "uint256",
          "name": "_photoId",
          "type": "uint256"
        },
        {
          "internalType": "uint256",
          "name": "_photoPrice",
          "type": "uint256"
        },
        {
          "internalType": "address",
          "name": "newOwner",
          "type": "address"
        }
      ],
      "name": "openTradeWhenCreateNewPhotoNFT",
      "outputs": [],
      "payable": false,
      "stateMutability": "nonpayable",
      "type": "function"
    },
    {
      "constant": false,
      "inputs": [
        {
          "internalType": "contract PhotoNFT",
          "name": "photoNFT",
          "type": "address"
        },
        {
          "internalType": "uint256",
          "name": "_photoId",
          "type": "uint256"
        }
      ],
      "name": "openTrade",
      "outputs": [],
      "payable": false,
      "stateMutability": "nonpayable",
      "type": "function"
    },
    {
      "constant": false,
      "inputs": [
        {
          "internalType": "contract PhotoNFT",
          "name": "photoNFT",
          "type": "address"
        },
        {
          "internalType": "uint256",
          "name": "_photoId",
          "type": "uint256"
        }
      ],
      "name": "cancelTrade",
      "outputs": [],
      "payable": false,
      "stateMutability": "nonpayable",
      "type": "function"
    },
    {
      "constant": false,
      "inputs": [
        {
          "internalType": "contract PhotoNFT",
          "name": "_photoNFT",
          "type": "address"
        },
        {
          "internalType": "uint256",
          "name": "_photoId",
          "type": "uint256"
        },
        {
          "internalType": "address",
          "name": "_buyer",
          "type": "address"
        }
      ],
      "name": "transferOwnershipOfPhotoNFT",
      "outputs": [],
      "payable": false,
      "stateMutability": "nonpayable",
      "type": "function"
    },
    {
      "constant": true,
      "inputs": [
        {
          "internalType": "uint256",
          "name": "_photoId",
          "type": "uint256"
        }
      ],
      "name": "getTrade",
      "outputs": [
        {
          "components": [
            {
              "internalType": "address",
              "name": "seller",
              "type": "address"
            },
            {
              "internalType": "uint256",
              "name": "photoId",
              "type": "uint256"
            },
            {
              "internalType": "uint256",
              "name": "photoPrice",
              "type": "uint256"
            },
            {
              "internalType": "bytes32",
              "name": "status",
              "type": "bytes32"
            }
          ],
          "internalType": "struct PhotoNFTTradable.Trade",
          "name": "trade_",
          "type": "tuple"
        }
      ],
      "payable": false,
      "stateMutability": "view",
      "type": "function"
    }
  ],
  "bytecode": "0x608060405234801561001057600080fd5b5060405162000fb338038062000fb38339810160408190526100319161006c565b600180546001600160a01b0319166001600160a01b039290921691909117905560006003556100cb565b8051610066816100b4565b92915050565b60006020828403121561007e57600080fd5b600061008a848461005b565b949350505050565b6000610066826100a8565b600061006682610092565b6001600160a01b031690565b6100bd8161009d565b81146100c857600080fd5b50565b610ed880620000db6000396000f3fe608060405234801561001057600080fd5b50600436106100885760003560e01c8063759c4bf31161005b578063759c4bf31461010157806380a279c414610114578063e61b28db14610127578063ec0395141461013c57610088565b80631e6c598e1461008d5780632db25e05146100b9578063493c2176146100d95780635fe561ab146100ee575b600080fd5b6100a061009b366004610a4d565b610144565b6040516100b09493929190610c9a565b60405180910390f35b6100cc6100c7366004610a4d565b610177565b6040516100b09190610d8c565b6100ec6100e736600461099f565b6101d3565b005b6100ec6100fc3660046109ec565b6103d7565b6100ec61010f366004610965565b6104ea565b6100ec610122366004610965565b610684565b61012f6107de565b6040516100b09190610cd8565b61012f6107ed565b600260208190526000918252604090912080546001820154928201546003909201546001600160a01b0390911692919084565b61017f6108db565b6101876108db565b5050600090815260026020818152604092839020835160808101855281546001600160a01b03168152600182015492810192909252918201549281019290925260030154606082015290565b826101dc6108db565b6101e584610177565b905080606001516327b832b760e11b1461021a5760405162461bcd60e51b815260040161021190610d7c565b60405180910390fd5b6102258585856107fc565b61024c604051806040016040528060068152602001656265666f726560d01b81525061082b565b604080518082018252601981527f62616c616e6365206f66206d61726b6574706c616365203a2000000000000000602082015290516370a0823160e01b815261030491906001600160a01b038516906370a08231906102af903090600401610c56565b60206040518083038186803b1580156102c757600080fd5b505afa1580156102db573d6000803e3d6000fd5b505050506040513d601f19601f820116820180604052506102ff9190810190610a6b565b610871565b60208101516040516323b872dd60e01b81526001600160a01b038416916323b872dd91610338913091889190600401610c8c565b600060405180830381600087803b15801561035257600080fd5b505af1158015610366573d6000803e3d6000fd5b505050506103906040518060400160405280600581526020016430b33a32b960d91b81525061082b565b6810d85b98d95b1b195960ba1b6103a685610177565b60600152604051600080516020610e76833981519152906103c8908690610d9a565b60405180910390a15050505050565b6040516323b872dd60e01b81526001600160a01b038516906323b872dd9061040790339030908890600401610c64565b600060405180830381600087803b15801561042157600080fd5b505af1158015610435573d6000803e3d6000fd5b5050600380546001908101808355604080516080810182526001600160a01b03888116825260208083018c81528385018c81526327b832b760e11b60608601908152600097885260029384905296869020945185546001600160a01b03191694169390931784555195830195909555519381019390935590519183019190915590549051600080516020610e7683398151915293506104dc92506000199190910190610db4565b60405180910390a150505050565b600154604051634dd5bfa560e11b81526001600160a01b0390911690639bab7f4a9061051a908590600401610ce6565b602060405180830381600087803b15801561053457600080fd5b505af1158015610548573d6000803e3d6000fd5b505050506040513d601f19601f8201168201806040525061056c919081019061093f565b50600081815260026020526040902080546001600160a01b031633146105a45760405162461bcd60e51b815260040161021190610d5c565b80600301546327b832b760e11b146105ce5760405162461bcd60e51b815260040161021190610d7c565b805460018201546040516323b872dd60e01b81526001600160a01b03868116936323b872dd9361060693309390921691600401610c8c565b600060405180830381600087803b15801561062057600080fd5b505af1158015610634573d6000803e3d6000fd5b505050600083815260026020526040908190206810d85b98d95b1b195960ba1b60039091015551600080516020610e768339815191529150610677908490610d9a565b60405180910390a1505050565b600154604051634dd5bfa560e11b81526001600160a01b0390911690639bab7f4a906106b4908590600401610d0c565b602060405180830381600087803b1580156106ce57600080fd5b505af11580156106e2573d6000803e3d6000fd5b505050506040513d601f19601f82011682018060405250610706919081019061093f565b50600081815260026020526040902080546001600160a01b0316331461073e5760405162461bcd60e51b815260040161021190610d6c565b60018101546040516323b872dd60e01b81526001600160a01b038516916323b872dd91610772913391309190600401610c64565b600060405180830381600087803b15801561078c57600080fd5b505af11580156107a0573d6000803e3d6000fd5b505050600083815260026020526040908190206327b832b760e11b60039091015551600080516020610e768339815191529150610677908490610db4565b6000546001600160a01b031681565b6001546001600160a01b031681565b60009182526002602052604090912080546001600160a01b0319166001600160a01b0390921691909117905550565b61086e8160405160240161083f9190610d2b565b60408051601f198184030181529190526020810180516001600160e01b031663104c13eb60e21b1790526108ba565b50565b6108b68282604051602401610887929190610d3c565b60408051601f198184030181529190526020810180516001600160e01b03166309710a9d60e41b1790526108ba565b5050565b80516a636f6e736f6c652e6c6f67602083016000808483855afa5050505050565b60408051608081018252600080825260208201819052918101829052606081019190915290565b803561090d81610e46565b92915050565b805161090d81610e5a565b803561090d81610e63565b803561090d81610e6c565b805161090d81610e6c565b60006020828403121561095157600080fd5b600061095d8484610913565b949350505050565b6000806040838503121561097857600080fd5b6000610984858561091e565b925050602061099585828601610929565b9150509250929050565b6000806000606084860312156109b457600080fd5b60006109c0868661091e565b93505060206109d186828701610929565b92505060406109e286828701610902565b9150509250925092565b60008060008060808587031215610a0257600080fd5b6000610a0e878761091e565b9450506020610a1f87828801610929565b9350506040610a3087828801610929565b9250506060610a4187828801610902565b91505092959194509250565b600060208284031215610a5f57600080fd5b600061095d8484610929565b600060208284031215610a7d57600080fd5b600061095d8484610934565b610a9281610e05565b82525050565b610a9281610ddb565b610a9281610deb565b610a9281610dee565b6000610abe82610dce565b610ac88185610dd2565b9350610ad8818560208601610e10565b610ae181610e3c565b9093019392505050565b6000610af8602683610dd2565b7f54726164652063616e2062652063616e63656c6c6564206f6e6c79206279207381526532b63632b91760d11b602082015260400192915050565b6000610b40602183610dd2565b7f54726164652063616e206265206f70656e206f6e6c792062792073656c6c65728152601760f91b602082015260400192915050565b6000610b83601283610dd2565b712a3930b2329034b9903737ba1027b832b71760711b815260200192915050565b6810d85b98d95b1b195960ba1b9052565b6000610bc2600983610dd2565b6810d85b98d95b1b195960ba1b815260200192915050565b6327b832b760e11b9052565b6000610bf3600483610dd2565b6327b832b760e11b815260200192915050565b80516080830190610c178482610a98565b506020820151610c2a6020850182610aa1565b506040820151610c3d6040850182610aa1565b506060820151610c506060850182610aa1565b50505050565b6020810161090d8284610a98565b60608101610c728286610a89565b610c7f6020830185610a98565b61095d6040830184610aa1565b60608101610c728286610a98565b60808101610ca88287610a98565b610cb56020830186610aa1565b610cc26040830185610aa1565b610ccf6060830184610aa1565b95945050505050565b6020810161090d8284610aaa565b60408101610cf48284610aaa565b8181036020830152610d0581610bb5565b9392505050565b60408101610d1a8284610aaa565b8181036020830152610d0581610be6565b60208082528101610d058184610ab3565b60408082528101610d4d8185610ab3565b9050610d056020830184610aa1565b6020808252810161090d81610aeb565b6020808252810161090d81610b33565b6020808252810161090d81610b76565b6080810161090d8284610c06565b60408101610da88284610aa1565b61090d60208301610ba4565b60408101610dc28284610aa1565b61090d60208301610bda565b5190565b90815260200190565b600061090d82610df9565b151590565b90565b600061090d82610ddb565b6001600160a01b031690565b600061090d82610dee565b60005b83811015610e2b578181015183820152602001610e13565b83811115610c505750506000910152565b601f01601f191690565b610e4f81610ddb565b811461086e57600080fd5b610e4f81610de6565b610e4f81610dee565b610e4f81610deb56fe4d38ed2c5ea671a5ccddc331f0ebebd94a60aaf6e572543497485d4d148f9edfa365627a7a72315820bbbdc57ef1bdcbfd9c8f2fca0d03def405b7ca07bad5c11ded8021365be1c7cf6c6578706572696d656e74616cf564736f6c63430005100040",
  "source": "pragma solidity ^0.5.0;\npragma experimental ABIEncoderV2;\n\nimport { PhotoNFT } from \"./PhotoNFT.sol\";\nimport { PhotoNFTData } from \"./PhotoNFTData.sol\";\nimport \"hardhat/console.sol\";\n/**\n * @title - PhotoNFTTradable contract\n * @notice - This contract has role that put on sale of photoNFTs\n */\ncontract PhotoNFTTradable {\n    event TradeStatusChange(uint256 ad, bytes32 status);\n\n    PhotoNFT public photoNFT;\n    PhotoNFTData public photoNFTData;\n\n    struct Trade {\n        address seller;\n        uint256 photoId;  /// PhotoNFT's token ID\n        uint256 photoPrice;\n        bytes32 status;   /// Open, Executed, Cancelled\n    }\n    mapping(uint256 => Trade) public trades;  /// [Key]: PhotoNFT's token ID\n\n    uint256 tradeCounter;\n\n    constructor(PhotoNFTData _photoNFTData) public {\n        photoNFTData = _photoNFTData;\n        tradeCounter = 0;\n    }\n\n    /**\n     * @notice - This method is only executed when a seller create a new PhotoNFT\n     * @dev Opens a new trade. Puts _photoId in escrow.\n     * @param _photoId The id for the photoId to trade.\n     * @param _photoPrice The amount of currency for which to trade the photoId.\n     */\n    function openTradeWhenCreateNewPhotoNFT(PhotoNFT photoNFT, uint256 _photoId, uint256 _photoPrice,address newOwner) public {\n        photoNFT.transferFrom(msg.sender, address(this), _photoId);\n\n        tradeCounter += 1;    /// [Note]: New. Trade count is started from \"1\". This is to align photoId\n        trades[tradeCounter] = Trade({\n            seller: newOwner,\n            photoId: _photoId,\n            photoPrice: _photoPrice,\n            status: \"Open\"\n        });\n        //tradeCounter += 1;  /// [Note]: Original\n        emit TradeStatusChange(tradeCounter - 1, \"Open\");\n    }\n\n    /**\n     * @dev Opens a trade by the seller.\n     */\n    function openTrade(PhotoNFT photoNFT, uint256 _photoId) public {\n        photoNFTData.updateStatus(photoNFT, \"Open\");\n\n        Trade storage trade = trades[_photoId];\n        require(\n            msg.sender == trade.seller,\n            \"Trade can be open only by seller.\"\n        );\n        photoNFT.transferFrom(msg.sender, address(this), trade.photoId);\n        trades[_photoId].status = \"Open\";\n        emit TradeStatusChange(_photoId, \"Open\");\n    }\n\n    /**\n     * @dev Cancels a trade by the seller.\n     */\n    function cancelTrade(PhotoNFT photoNFT, uint256 _photoId) public {\n        photoNFTData.updateStatus(photoNFT, \"Cancelled\");\n        \n        Trade storage trade = trades[_photoId];\n        require(\n            msg.sender == trade.seller,\n            \"Trade can be cancelled only by seller.\"\n        );\n        require(trade.status == \"Open\", \"Trade is not Open.\");\n        photoNFT.transferFrom(address(this), trade.seller, trade.photoId);\n        trades[_photoId].status = \"Cancelled\";\n        emit TradeStatusChange(_photoId, \"Cancelled\");\n    }\n\n    /**\n     * @dev Executes a trade. Must have approved this contract to transfer the amount of currency specified to the seller. Transfers ownership of the photoId to the filler.\n     */\n    function transferOwnershipOfPhotoNFT(PhotoNFT _photoNFT, uint256 _photoId, address _buyer) public {\n        PhotoNFT photoNFT = _photoNFT;\n\n        Trade memory trade = getTrade(_photoId);\n        require(trade.status == \"Open\", \"Trade is not Open.\");\n\n        _updateSeller(_photoNFT, _photoId, _buyer);\n        console.log(\"before\");\n        console.log(\"balance of marketplace : \", photoNFT.balanceOf(address(this)));\n        photoNFT.transferFrom(address(this), _buyer, trade.photoId);\n        console.log(\"after\");\n        getTrade(_photoId).status = \"Cancelled\";\n        emit TradeStatusChange(_photoId, \"Cancelled\");\n    }\n\n    function _updateSeller(PhotoNFT photoNFT, uint256 _photoId, address _newSeller) internal {\n        Trade storage trade = trades[_photoId];\n        trade.seller = _newSeller;\n    }\n\n\n    /**\n     * @dev - Returns the details for a trade.\n     */\n    function getTrade(uint256 _photoId) public view returns (Trade memory trade_) {\n        Trade memory trade = trades[_photoId];\n        return trade;\n        //return (trade.seller, trade.photoId, trade.photoPrice, trade.status);\n    }\n}\n",
  "sourcePath": "/Users/yonatanmartsiano/Downloads/Swallow-2/contracts/PhotoNFTTradable.sol",
  "compiler": {
    "name": "solc",
    "version": "0.5.16+commit.9c3226ce.Emscripten.clang"
  },
  "schemaVersion": "3.3.2",
  "updatedAt": "2021-08-24T12:40:14.366Z",
  "devdoc": {
    "methods": {
      "cancelTrade(address,uint256)": {
        "details": "Cancels a trade by the seller."
      },
      "getTrade(uint256)": {
        "details": "- Returns the details for a trade."
      },
      "openTrade(address,uint256)": {
        "details": "Opens a trade by the seller."
      },
      "openTradeWhenCreateNewPhotoNFT(address,uint256,uint256,address)": {
        "details": "Opens a new trade. Puts _photoId in escrow.",
        "params": {
          "_photoId": "The id for the photoId to trade.",
          "_photoPrice": "The amount of currency for which to trade the photoId."
        }
      },
      "transferOwnershipOfPhotoNFT(address,uint256,address)": {
        "details": "Executes a trade. Must have approved this contract to transfer the amount of currency specified to the seller. Transfers ownership of the photoId to the filler."
      }
    },
    "title": "- PhotoNFTTradable contract"
  },
  "userdoc": {
    "methods": {
      "openTradeWhenCreateNewPhotoNFT(address,uint256,uint256,address)": {
        "notice": "- This method is only executed when a seller create a new PhotoNFT"
      }
    },
    "notice": "- This contract has role that put on sale of photoNFTs"
  }
}