{
  "contractName": "PhotoNFT",
  "abi": [
    {
      "inputs": [
        {
          "internalType": "address",
          "name": "owner",
          "type": "address"
        },
        {
          "internalType": "string",
          "name": "_nftName",
          "type": "string"
        },
        {
          "internalType": "string",
          "name": "_nftSymbol",
          "type": "string"
        },
        {
          "internalType": "string",
          "name": "_tokenURI",
          "type": "string"
        },
        {
          "internalType": "uint256",
          "name": "photoPrice",
          "type": "uint256"
        }
      ],
      "payable": false,
      "stateMutability": "nonpayable",
      "type": "constructor"
    },
    {
      "anonymous": false,
      "inputs": [
        {
          "indexed": true,
          "internalType": "address",
          "name": "owner",
          "type": "address"
        },
        {
          "indexed": true,
          "internalType": "address",
          "name": "approved",
          "type": "address"
        },
        {
          "indexed": true,
          "internalType": "uint256",
          "name": "tokenId",
          "type": "uint256"
        }
      ],
      "name": "Approval",
      "type": "event"
    },
    {
      "anonymous": false,
      "inputs": [
        {
          "indexed": true,
          "internalType": "address",
          "name": "owner",
          "type": "address"
        },
        {
          "indexed": true,
          "internalType": "address",
          "name": "operator",
          "type": "address"
        },
        {
          "indexed": false,
          "internalType": "bool",
          "name": "approved",
          "type": "bool"
        }
      ],
      "name": "ApprovalForAll",
      "type": "event"
    },
    {
      "anonymous": false,
      "inputs": [
        {
          "indexed": true,
          "internalType": "address",
          "name": "from",
          "type": "address"
        },
        {
          "indexed": true,
          "internalType": "address",
          "name": "to",
          "type": "address"
        },
        {
          "indexed": true,
          "internalType": "uint256",
          "name": "tokenId",
          "type": "uint256"
        }
      ],
      "name": "Transfer",
      "type": "event"
    },
    {
      "constant": false,
      "inputs": [
        {
          "internalType": "address",
          "name": "to",
          "type": "address"
        },
        {
          "internalType": "uint256",
          "name": "tokenId",
          "type": "uint256"
        }
      ],
      "name": "approve",
      "outputs": [],
      "payable": false,
      "stateMutability": "nonpayable",
      "type": "function"
    },
    {
      "constant": true,
      "inputs": [
        {
          "internalType": "address",
          "name": "owner",
          "type": "address"
        }
      ],
      "name": "balanceOf",
      "outputs": [
        {
          "internalType": "uint256",
          "name": "",
          "type": "uint256"
        }
      ],
      "payable": false,
      "stateMutability": "view",
      "type": "function"
    },
    {
      "constant": true,
      "inputs": [],
      "name": "currentPhotoId",
      "outputs": [
        {
          "internalType": "uint256",
          "name": "",
          "type": "uint256"
        }
      ],
      "payable": false,
      "stateMutability": "view",
      "type": "function"
    },
    {
      "constant": true,
      "inputs": [
        {
          "internalType": "uint256",
          "name": "tokenId",
          "type": "uint256"
        }
      ],
      "name": "getApproved",
      "outputs": [
        {
          "internalType": "address",
          "name": "",
          "type": "address"
        }
      ],
      "payable": false,
      "stateMutability": "view",
      "type": "function"
    },
    {
      "constant": true,
      "inputs": [
        {
          "internalType": "address",
          "name": "owner",
          "type": "address"
        },
        {
          "internalType": "address",
          "name": "operator",
          "type": "address"
        }
      ],
      "name": "isApprovedForAll",
      "outputs": [
        {
          "internalType": "bool",
          "name": "",
          "type": "bool"
        }
      ],
      "payable": false,
      "stateMutability": "view",
      "type": "function"
    },
    {
      "constant": true,
      "inputs": [],
      "name": "name",
      "outputs": [
        {
          "internalType": "string",
          "name": "",
          "type": "string"
        }
      ],
      "payable": false,
      "stateMutability": "view",
      "type": "function"
    },
    {
      "constant": true,
      "inputs": [
        {
          "internalType": "uint256",
          "name": "tokenId",
          "type": "uint256"
        }
      ],
      "name": "ownerOf",
      "outputs": [
        {
          "internalType": "address",
          "name": "",
          "type": "address"
        }
      ],
      "payable": false,
      "stateMutability": "view",
      "type": "function"
    },
    {
      "constant": false,
      "inputs": [
        {
          "internalType": "address",
          "name": "from",
          "type": "address"
        },
        {
          "internalType": "address",
          "name": "to",
          "type": "address"
        },
        {
          "internalType": "uint256",
          "name": "tokenId",
          "type": "uint256"
        }
      ],
      "name": "safeTransferFrom",
      "outputs": [],
      "payable": false,
      "stateMutability": "nonpayable",
      "type": "function"
    },
    {
      "constant": false,
      "inputs": [
        {
          "internalType": "address",
          "name": "from",
          "type": "address"
        },
        {
          "internalType": "address",
          "name": "to",
          "type": "address"
        },
        {
          "internalType": "uint256",
          "name": "tokenId",
          "type": "uint256"
        },
        {
          "internalType": "bytes",
          "name": "_data",
          "type": "bytes"
        }
      ],
      "name": "safeTransferFrom",
      "outputs": [],
      "payable": false,
      "stateMutability": "nonpayable",
      "type": "function"
    },
    {
      "constant": false,
      "inputs": [
        {
          "internalType": "address",
          "name": "to",
          "type": "address"
        },
        {
          "internalType": "bool",
          "name": "approved",
          "type": "bool"
        }
      ],
      "name": "setApprovalForAll",
      "outputs": [],
      "payable": false,
      "stateMutability": "nonpayable",
      "type": "function"
    },
    {
      "constant": true,
      "inputs": [
        {
          "internalType": "bytes4",
          "name": "interfaceId",
          "type": "bytes4"
        }
      ],
      "name": "supportsInterface",
      "outputs": [
        {
          "internalType": "bool",
          "name": "",
          "type": "bool"
        }
      ],
      "payable": false,
      "stateMutability": "view",
      "type": "function"
    },
    {
      "constant": true,
      "inputs": [],
      "name": "symbol",
      "outputs": [
        {
          "internalType": "string",
          "name": "",
          "type": "string"
        }
      ],
      "payable": false,
      "stateMutability": "view",
      "type": "function"
    },
    {
      "constant": true,
      "inputs": [
        {
          "internalType": "uint256",
          "name": "index",
          "type": "uint256"
        }
      ],
      "name": "tokenByIndex",
      "outputs": [
        {
          "internalType": "uint256",
          "name": "",
          "type": "uint256"
        }
      ],
      "payable": false,
      "stateMutability": "view",
      "type": "function"
    },
    {
      "constant": true,
      "inputs": [
        {
          "internalType": "address",
          "name": "owner",
          "type": "address"
        },
        {
          "internalType": "uint256",
          "name": "index",
          "type": "uint256"
        }
      ],
      "name": "tokenOfOwnerByIndex",
      "outputs": [
        {
          "internalType": "uint256",
          "name": "",
          "type": "uint256"
        }
      ],
      "payable": false,
      "stateMutability": "view",
      "type": "function"
    },
    {
      "constant": true,
      "inputs": [
        {
          "internalType": "uint256",
          "name": "tokenId",
          "type": "uint256"
        }
      ],
      "name": "tokenURI",
      "outputs": [
        {
          "internalType": "string",
          "name": "",
          "type": "string"
        }
      ],
      "payable": false,
      "stateMutability": "view",
      "type": "function"
    },
    {
      "constant": true,
      "inputs": [],
      "name": "totalSupply",
      "outputs": [
        {
          "internalType": "uint256",
          "name": "",
          "type": "uint256"
        }
      ],
      "payable": false,
      "stateMutability": "view",
      "type": "function"
    },
    {
      "constant": false,
      "inputs": [
        {
          "internalType": "address",
          "name": "from",
          "type": "address"
        },
        {
          "internalType": "address",
          "name": "to",
          "type": "address"
        },
        {
          "internalType": "uint256",
          "name": "tokenId",
          "type": "uint256"
        }
      ],
      "name": "transferFrom",
      "outputs": [],
      "payable": false,
      "stateMutability": "nonpayable",
      "type": "function"
    },
    {
      "constant": false,
      "inputs": [
        {
          "internalType": "address",
          "name": "to",
          "type": "address"
        },
        {
          "internalType": "string",
          "name": "tokenURI",
          "type": "string"
        }
      ],
      "name": "mint",
      "outputs": [
        {
          "internalType": "bool",
          "name": "",
          "type": "bool"
        }
      ],
      "payable": false,
      "stateMutability": "nonpayable",
      "type": "function"
    }
  ],
  "bytecode": "0x60806040526000600c553480156200001657600080fd5b5060405162001c3b38038062001c3b833981016040819052620000399162000573565b83838181620000586301ffc9a760e01b6001600160e01b03620000f716565b620000736380ac58cd60e01b6001600160e01b03620000f716565b6200008e63780e9d6360e01b6001600160e01b03620000f716565b8151620000a39060099060208501906200045b565b508051620000b990600a9060208401906200045b565b50620000d5635b5e139f60e01b6001600160e01b03620000f716565b50505050620000eb85836200013460201b60201c565b50505050505062000787565b6001600160e01b031980821614156200010f57600080fd5b6001600160e01b0319166000908152602081905260409020805460ff19166001179055565b6000806200014a6001600160e01b03620001b916565b9050600c54600101600c819055506200018860405180606001604052806027815260200162001c146027913982620001de60201b620009371760201c565b6200019d84826001600160e01b036200022f16565b620001b281846001600160e01b036200026f16565b5092915050565b6000620001d86001600c54620002b360201b62000c271790919060201c565b90505b90565b6200022b8282604051602401620001f79291906200068c565b60408051601f198184030181529190526020810180516001600160e01b039081166309710a9d60e41b17909152620002cf16565b5050565b620002468282620002f060201b62000c611760201c565b6200025b82826001600160e01b03620003bc16565b6200022b816001600160e01b03620003fa16565b62000283826001600160e01b036200043e16565b6200028d57600080fd5b6000828152600b602090815260409091208251620002ae928401906200045b565b505050565b600082820183811015620002c657600080fd5b90505b92915050565b80516a636f6e736f6c652e6c6f67602083016000808483855afa5050505050565b6001600160a01b0382166200030457600080fd5b62000318816001600160e01b036200043e16565b156200032357600080fd5b600081815260016020818152604080842080546001600160a01b0319166001600160a01b038816908117909155845260038252909220546200037192909190620002b3811b62000c2717901c565b6001600160a01b0383166000818152600360205260408082209390935591518392907fddf252ad1be2c89b69c2b068fc378daa952ba7f163c4a11628f55a4df523b3ef908290a45050565b6001600160a01b0390911660009081526005602081815260408084208054868652600684529185208290559282526001810183559183529091200155565b600780546000838152600860205260408120829055600182018355919091527fa66cc928b5edb82af9bd49922954155ab7b0942694bea4ce44661d9a8736c6880155565b6000908152600160205260409020546001600160a01b0316151590565b828054600181600116156101000203166002900490600052602060002090601f016020900481019282601f106200049e57805160ff1916838001178555620004ce565b82800160010185558215620004ce579182015b82811115620004ce578251825591602001919060010190620004b1565b50620004dc929150620004e0565b5090565b620001db91905b80821115620004dc5760008155600101620004e7565b8051620002c98162000762565b600082601f8301126200051c57600080fd5b8151620005336200052d82620006de565b620006b7565b915080825260208301602083018583830111156200055057600080fd5b6200055d83828462000725565b50505092915050565b8051620002c9816200077c565b600080600080600060a086880312156200058c57600080fd5b60006200059a8888620004fd565b95505060208601516001600160401b03811115620005b757600080fd5b620005c5888289016200050a565b94505060408601516001600160401b03811115620005e257600080fd5b620005f0888289016200050a565b93505060608601516001600160401b038111156200060d57600080fd5b6200061b888289016200050a565b92505060806200062e8882890162000566565b9150509295509295909350565b6000620006488262000706565b6200065481856200070a565b93506200066681856020860162000725565b620006718162000758565b9093019392505050565b6200068681620001db565b82525050565b604080825281016200069f81856200063b565b9050620006b060208301846200067b565b9392505050565b6040518181016001600160401b0381118282101715620006d657600080fd5b604052919050565b60006001600160401b03821115620006f557600080fd5b506020601f91909101601f19160190565b5190565b90815260200190565b60006001600160a01b038216620002c9565b60005b838110156200074257818101518382015260200162000728565b8381111562000752576000848401525b50505050565b601f01601f191690565b6200076d8162000713565b81146200077957600080fd5b50565b6200076d81620001db565b61147d80620007976000396000f3fe608060405234801561001057600080fd5b50600436106101165760003560e01c80636352211e116100a2578063b4a5b64611610071578063b4a5b64614610230578063b88d4fde14610238578063c87b56dd1461024b578063d0def5211461025e578063e985e9c51461027157610116565b80636352211e146101ef57806370a082311461020257806395d89b4114610215578063a22cb4651461021d57610116565b806318160ddd116100e957806318160ddd1461018e57806323b872dd146101a35780632f745c59146101b657806342842e0e146101c95780634f6ccce7146101dc57610116565b806301ffc9a71461011b57806306fdde0314610144578063081812fc14610159578063095ea7b314610179575b600080fd5b61012e6101293660046110b2565b610284565b60405161013b919061127f565b60405180910390f35b61014c6102a3565b60405161013b919061128d565b61016c6101673660046110ee565b61033a565b60405161013b919061122d565b61018c610187366004611082565b61036a565b005b610196610433565b60405161013b91906112fe565b61018c6101b1366004610f44565b610439565b6101966101c4366004611082565b61046f565b61018c6101d7366004610f44565b6104bd565b6101966101ea3660046110ee565b6104d8565b61016c6101fd3660046110ee565b61050c565b610196610210366004610eec565b61052e565b61014c61055f565b61018c61022b36600461100a565b6105c0565b610196610645565b61018c610246366004610f91565b61064b565b61014c6102593660046110ee565b610684565b61012e61026c36600461103a565b610737565b61012e61027f366004610f0a565b61078d565b6001600160e01b03191660009081526020819052604090205460ff1690565b60098054604080516020601f600260001961010060018816150201909516949094049384018190048102820181019092528281526060939092909183018282801561032f5780601f106103045761010080835404028352916020019161032f565b820191906000526020600020905b81548152906001019060200180831161031257829003601f168201915b505050505090505b90565b6000610345826107bb565b61034e57600080fd5b506000908152600260205260409020546001600160a01b031690565b60006103758261050c565b9050806001600160a01b0316836001600160a01b0316141561039657600080fd5b336001600160a01b03821614806103b257506103b2813361078d565b6103d75760405162461bcd60e51b81526004016103ce906112be565b60405180910390fd5b60008281526002602052604080822080546001600160a01b0319166001600160a01b0387811691821790925591518593918516917f8c5be1e5ebec7d5bd14f71427d1e84f3dd0314c0f7b2291e5b200ac8c7c3b92591a4505050565b60075490565b61044333826107d8565b61045f5760405162461bcd60e51b81526004016103ce906112ee565b61046a838383610837565b505050565b600061047a8361052e565b821061048557600080fd5b6001600160a01b03831660009081526005602052604090208054839081106104a957fe5b906000526020600020015490505b92915050565b61046a8383836040518060200160405280600081525061064b565b60006104e2610433565b82106104ed57600080fd5b600782815481106104fa57fe5b90600052602060002001549050919050565b6000818152600160205260408120546001600160a01b0316806104b757600080fd5b60006001600160a01b03821661054357600080fd5b506001600160a01b031660009081526003602052604090205490565b600a8054604080516020601f600260001961010060018816150201909516949094049384018190048102820181019092528281526060939092909183018282801561032f5780601f106103045761010080835404028352916020019161032f565b6001600160a01b0382163314156105d657600080fd5b3360008181526004602090815260408083206001600160a01b038716808552925291829020805460ff191685151517905590519091907f17307eab39ab6107e8899845ad3d59bd9653f200f220920489ca2b5937696c319061063990859061127f565b60405180910390a35050565b600c5481565b610656848484610439565b61066284848484610856565b61067e5760405162461bcd60e51b81526004016103ce906112de565b50505050565b606061068f826107bb565b61069857600080fd5b6000828152600b602090815260409182902080548351601f60026000196101006001861615020190931692909204918201849004840281018401909452808452909183018282801561072b5780601f106107005761010080835404028352916020019161072b565b820191906000526020600020905b81548152906001019060200180831161070e57829003601f168201915b50505050509050919050565b60008061074261091b565b9050600c54600101600c819055506107726040518060600160405280602781526020016114146027913982610937565b61077c8482610980565b610786818461099d565b5092915050565b6001600160a01b03918216600090815260046020908152604080832093909416825291909152205460ff1690565b6000908152600160205260409020546001600160a01b0316151590565b6000806107e48361050c565b9050806001600160a01b0316846001600160a01b0316148061081f5750836001600160a01b03166108148461033a565b6001600160a01b0316145b8061082f575061082f818561078d565b949350505050565b6108428383836109ce565b61084c8382610aee565b61046a8282610be3565b600061086a846001600160a01b0316610c21565b6108765750600161082f565b604051630a85bd0160e11b81526000906001600160a01b0386169063150b7a02906108ab9033908a908990899060040161123b565b602060405180830381600087803b1580156108c557600080fd5b505af11580156108d9573d6000803e3d6000fd5b505050506040513d601f19601f820116820180604052506108fd91908101906110d0565b6001600160e01b031916630a85bd0160e11b14915050949350505050565b600c5460009061093290600163ffffffff610c2716565b905090565b61097c828260405160240161094d92919061129e565b60408051601f198184030181529190526020810180516001600160e01b03166309710a9d60e41b179052610c40565b5050565b61098a8282610c61565b6109948282610be3565b61097c81610d13565b6109a6826107bb565b6109af57600080fd5b6000828152600b60209081526040909120825161046a92840190610da9565b826001600160a01b03166109e18261050c565b6001600160a01b031614610a075760405162461bcd60e51b81526004016103ce906112ce565b6001600160a01b038216610a1a57600080fd5b610a2381610d57565b6001600160a01b038316600090815260036020526040902054610a4d90600163ffffffff610d9416565b6001600160a01b038085166000908152600360205260408082209390935590841681522054610a8390600163ffffffff610c2716565b6001600160a01b038084166000818152600360209081526040808320959095558582526001905283812080546001600160a01b031916831790559251849391928716917fddf252ad1be2c89b69c2b068fc378daa952ba7f163c4a11628f55a4df523b3ef91a4505050565b6001600160a01b038216600090815260056020526040812054610b1890600163ffffffff610d9416565b600083815260066020526040902054909150808214610bb3576001600160a01b0384166000908152600560205260408120805484908110610b5557fe5b906000526020600020015490508060056000876001600160a01b03166001600160a01b031681526020019081526020016000208381548110610b9357fe5b600091825260208083209091019290925591825260069052604090208190555b6001600160a01b0384166000908152600560205260409020805490610bdc906000198301610e27565b5050505050565b6001600160a01b0390911660009081526005602081815260408084208054868652600684529185208290559282526001810183559183529091200155565b3b151590565b600082820183811015610c3957600080fd5b9392505050565b80516a636f6e736f6c652e6c6f67602083016000808483855afa5050505050565b6001600160a01b038216610c7457600080fd5b610c7d816107bb565b15610c8757600080fd5b600081815260016020818152604080842080546001600160a01b0319166001600160a01b0388169081179091558452600390915290912054610cc891610c27565b6001600160a01b0383166000818152600360205260408082209390935591518392907fddf252ad1be2c89b69c2b068fc378daa952ba7f163c4a11628f55a4df523b3ef908290a45050565b600780546000838152600860205260408120829055600182018355919091527fa66cc928b5edb82af9bd49922954155ab7b0942694bea4ce44661d9a8736c6880155565b6000818152600260205260409020546001600160a01b031615610d9157600081815260026020526040902080546001600160a01b03191690555b50565b600082821115610da357600080fd5b50900390565b828054600181600116156101000203166002900490600052602060002090601f016020900481019282601f10610dea57805160ff1916838001178555610e17565b82800160010185558215610e17579182015b82811115610e17578251825591602001919060010190610dfc565b50610e23929150610e47565b5090565b81548183558181111561046a5760008381526020902061046a9181019083015b61033791905b80821115610e235760008155600101610e4d565b80356104b7816113e4565b80356104b7816113f8565b80356104b781611401565b80516104b781611401565b600082601f830112610e9e57600080fd5b8135610eb1610eac82611333565b61130c565b91508082526020830160208301858383011115610ecd57600080fd5b610ed88382846113a2565b50505092915050565b80356104b78161140a565b600060208284031215610efe57600080fd5b600061082f8484610e61565b60008060408385031215610f1d57600080fd5b6000610f298585610e61565b9250506020610f3a85828601610e61565b9150509250929050565b600080600060608486031215610f5957600080fd5b6000610f658686610e61565b9350506020610f7686828701610e61565b9250506040610f8786828701610ee1565b9150509250925092565b60008060008060808587031215610fa757600080fd5b6000610fb38787610e61565b9450506020610fc487828801610e61565b9350506040610fd587828801610ee1565b925050606085013567ffffffffffffffff811115610ff257600080fd5b610ffe87828801610e8d565b91505092959194509250565b6000806040838503121561101d57600080fd5b60006110298585610e61565b9250506020610f3a85828601610e6c565b6000806040838503121561104d57600080fd5b60006110598585610e61565b925050602083013567ffffffffffffffff81111561107657600080fd5b610f3a85828601610e8d565b6000806040838503121561109557600080fd5b60006110a18585610e61565b9250506020610f3a85828601610ee1565b6000602082840312156110c457600080fd5b600061082f8484610e77565b6000602082840312156110e257600080fd5b600061082f8484610e82565b60006020828403121561110057600080fd5b600061082f8484610ee1565b61111581611391565b82525050565b61111581611368565b61111581611373565b60006111388261135b565b611142818561135f565b93506111528185602086016113ae565b61115b816113da565b9093019392505050565b6000611172600e8361135f565b6d185c1c1c9bdd994819985a5b195960921b815260200192915050565b600061119c601e8361135f565b7f5f7472616e7366657246726f6d206661696c656420696e204552433732310000815260200192915050565b60006111d560158361135f565b741c1c9bd89b195b481dda5d1a081c9958da595d9959605a1b815260200192915050565b6000611206600f8361135f565b6e185c1c1c9bdd985b0819985a5b1959608a1b815260200192915050565b61111581610337565b602081016104b7828461111b565b60808101611249828761110c565b611256602083018661111b565b6112636040830185611224565b8181036060830152611275818461112d565b9695505050505050565b602081016104b78284611124565b60208082528101610c39818461112d565b604080825281016112af818561112d565b9050610c396020830184611224565b602080825281016104b781611165565b602080825281016104b78161118f565b602080825281016104b7816111c8565b602080825281016104b7816111f9565b602081016104b78284611224565b60405181810167ffffffffffffffff8111828210171561132b57600080fd5b604052919050565b600067ffffffffffffffff82111561134a57600080fd5b506020601f91909101601f19160190565b5190565b90815260200190565b60006104b782611385565b151590565b6001600160e01b03191690565b6001600160a01b031690565b60006104b78260006104b782611368565b82818337506000910152565b60005b838110156113c95781810151838201526020016113b1565b8381111561067e5750506000910152565b601f01601f191690565b6113ed81611368565b8114610d9157600080fd5b6113ed81611373565b6113ed81611378565b6113ed8161033756fe546865206e66742773206964207768696368206973206265696e67206372656174656420697320a365627a7a723158203bdd457f53201628c14978d67bfd21856bd310f3cdbbf8428b0a8581eee18daa6c6578706572696d656e74616cf564736f6c63430005100040546865206e66742773206964207768696368206973206265696e67206372656174656420697320",
  "source": "pragma solidity ^0.5.0;\npragma experimental ABIEncoderV2;\n\nimport { ERC721Full } from \"./openzeppelin-solidity/contracts/token/ERC721/ERC721Full.sol\";\nimport { SafeMath } from \"./openzeppelin-solidity/contracts/math/SafeMath.sol\";\nimport \"hardhat/console.sol\";\n\n\n/**\n * @notice - This is the NFT contract for a photo\n */\ncontract PhotoNFT is ERC721Full {\n    using SafeMath for uint256;\n\n    uint256 public currentPhotoId=0;\n    \n    constructor(\n        address owner,  /// Initial owner (Seller)\n        string memory _nftName, \n        string memory _nftSymbol,\n        string memory _tokenURI,    /// [Note]: TokenURI is URL include ipfs hash\n        uint256 photoPrice\n    ) \n        public \n        ERC721Full(_nftName, _nftSymbol) \n    {\n        mint(owner, _tokenURI);\n    }\n\n    /** \n     * @dev mint a photoNFT\n     * @dev tokenURI - URL include ipfs hash\n     */\n    function mint(address to, string memory tokenURI) public returns (bool) {\n        /// Mint a new PhotoNFT\n        uint256 newPhotoId = getNextPhotoId();\n        currentPhotoId=currentPhotoId+1;\n        console.log(\"The nft's id which is being created is \",newPhotoId);\n        _mint(to, newPhotoId);\n        _setTokenURI(newPhotoId, tokenURI);\n    }\n\n\n    ///--------------------------------------\n    /// Getter methods\n    ///--------------------------------------\n\n\n    ///--------------------------------------\n    /// Private methods\n    ///--------------------------------------\n    function getNextPhotoId() private returns (uint256 nextPhotoId) {\n        return currentPhotoId.add(1);\n    }\n    \n\n}\n",
  "sourcePath": "/Users/yonatanmartsiano/Downloads/Swallow-2/contracts/PhotoNFT.sol",
  "compiler": {
    "name": "solc",
    "version": "0.5.16+commit.9c3226ce.Emscripten.clang"
  },
  "schemaVersion": "3.3.2",
  "updatedAt": "2021-08-02T09:48:47.968Z",
  "devdoc": {
    "methods": {
      "approve(address,uint256)": {
        "details": "Approves another address to transfer the given token ID The zero address indicates there is no approved address. There can only be one approved address per token at a given time. Can only be called by the token owner or an approved operator.",
        "params": {
          "to": "address to be approved for the given token ID",
          "tokenId": "uint256 ID of the token to be approved"
        }
      },
      "balanceOf(address)": {
        "details": "Gets the balance of the specified address",
        "params": {
          "owner": "address to query the balance of"
        },
        "return": "uint256 representing the amount owned by the passed address"
      },
      "getApproved(uint256)": {
        "details": "Gets the approved address for a token ID, or zero if no address set Reverts if the token ID does not exist.",
        "params": {
          "tokenId": "uint256 ID of the token to query the approval of"
        },
        "return": "address currently approved for the given token ID"
      },
      "isApprovedForAll(address,address)": {
        "details": "Tells whether an operator is approved by a given owner",
        "params": {
          "operator": "operator address which you want to query the approval of",
          "owner": "owner address which you want to query the approval of"
        },
        "return": "bool whether the given operator is approved by the given owner"
      },
      "mint(address,string)": {
        "details": "mint a photoNFTtokenURI - URL include ipfs hash"
      },
      "name()": {
        "details": "Gets the token name",
        "return": "string representing the token name"
      },
      "ownerOf(uint256)": {
        "details": "Gets the owner of the specified token ID",
        "params": {
          "tokenId": "uint256 ID of the token to query the owner of"
        },
        "return": "owner address currently marked as the owner of the given token ID"
      },
      "safeTransferFrom(address,address,uint256)": {
        "details": "Safely transfers the ownership of a given token ID to another address If the target address is a contract, it must implement `onERC721Received`, which is called upon a safe transfer, and return the magic value `bytes4(keccak256(\"onERC721Received(address,address,uint256,bytes)\"))`; otherwise, the transfer is reverted.     * Requires the msg sender to be the owner, approved, or operator",
        "params": {
          "from": "current owner of the token",
          "to": "address to receive the ownership of the given token ID",
          "tokenId": "uint256 ID of the token to be transferred"
        }
      },
      "safeTransferFrom(address,address,uint256,bytes)": {
        "details": "Safely transfers the ownership of a given token ID to another address If the target address is a contract, it must implement `onERC721Received`, which is called upon a safe transfer, and return the magic value `bytes4(keccak256(\"onERC721Received(address,address,uint256,bytes)\"))`; otherwise, the transfer is reverted. Requires the msg sender to be the owner, approved, or operator",
        "params": {
          "_data": "bytes data to send along with a safe transfer check",
          "from": "current owner of the token",
          "to": "address to receive the ownership of the given token ID",
          "tokenId": "uint256 ID of the token to be transferred"
        }
      },
      "setApprovalForAll(address,bool)": {
        "details": "Sets or unsets the approval of a given operator An operator is allowed to transfer all tokens of the sender on their behalf",
        "params": {
          "approved": "representing the status of the approval to be set",
          "to": "operator address to set the approval"
        }
      },
      "supportsInterface(bytes4)": {
        "details": "implement supportsInterface(bytes4) using a lookup table"
      },
      "symbol()": {
        "details": "Gets the token symbol",
        "return": "string representing the token symbol"
      },
      "tokenByIndex(uint256)": {
        "details": "Gets the token ID at a given index of all the tokens in this contract Reverts if the index is greater or equal to the total number of tokens",
        "params": {
          "index": "uint256 representing the index to be accessed of the tokens list"
        },
        "return": "uint256 token ID at the given index of the tokens list"
      },
      "tokenOfOwnerByIndex(address,uint256)": {
        "details": "Gets the token ID at a given index of the tokens list of the requested owner",
        "params": {
          "index": "uint256 representing the index to be accessed of the requested tokens list",
          "owner": "address owning the tokens list to be accessed"
        },
        "return": "uint256 token ID at the given index of the tokens list owned by the requested address"
      },
      "tokenURI(uint256)": {
        "details": "Returns an URI for a given token ID Throws if the token ID does not exist. May return an empty string.",
        "params": {
          "tokenId": "uint256 ID of the token to query"
        }
      },
      "totalSupply()": {
        "details": "Gets the total amount of tokens stored by the contract",
        "return": "uint256 representing the total amount of tokens"
      },
      "transferFrom(address,address,uint256)": {
        "details": "Transfers the ownership of a given token ID to another address Usage of this method is discouraged, use `safeTransferFrom` whenever possible Requires the msg sender to be the owner, approved, or operator",
        "params": {
          "from": "current owner of the token",
          "to": "address to receive the ownership of the given token ID",
          "tokenId": "uint256 ID of the token to be transferred"
        }
      }
    }
  },
  "userdoc": {
    "methods": {},
    "notice": "- This is the NFT contract for a photo"
  }
}