{
  "contractName": "PhotoNFTMarketPlace",
  "abi": [
    {
      "inputs": [
        {
          "internalType": "contract PhotoNFTData",
          "name": "_photoNFTData",
          "type": "address"
        }
      ],
      "payable": false,
      "stateMutability": "nonpayable",
      "type": "constructor"
    },
    {
      "anonymous": false,
      "inputs": [
        {
          "indexed": false,
          "internalType": "contract PhotoNFT",
          "name": "photoNFT",
          "type": "address"
        },
        {
          "indexed": false,
          "internalType": "uint256",
          "name": "photoId",
          "type": "uint256"
        },
        {
          "indexed": false,
          "internalType": "address",
          "name": "ownerBeforeOwnershipTransferred",
          "type": "address"
        },
        {
          "indexed": false,
          "internalType": "address",
          "name": "ownerAfterOwnershipTransferred",
          "type": "address"
        }
      ],
      "name": "PhotoNFTOwnershipChanged",
      "type": "event"
    },
    {
      "anonymous": false,
      "inputs": [
        {
          "indexed": false,
          "internalType": "uint256",
          "name": "ad",
          "type": "uint256"
        },
        {
          "indexed": false,
          "internalType": "bytes32",
          "name": "status",
          "type": "bytes32"
        }
      ],
      "name": "TradeStatusChange",
      "type": "event"
    },
    {
      "constant": true,
      "inputs": [],
      "name": "PHOTO_NFT_MARKETPLACE",
      "outputs": [
        {
          "internalType": "address",
          "name": "",
          "type": "address"
        }
      ],
      "payable": false,
      "stateMutability": "view",
      "type": "function"
    },
    {
      "constant": false,
      "inputs": [
        {
          "internalType": "contract PhotoNFT",
          "name": "photoNFT",
          "type": "address"
        },
        {
          "internalType": "uint256",
          "name": "_photoId",
          "type": "uint256"
        }
      ],
      "name": "cancelTrade",
      "outputs": [],
      "payable": false,
      "stateMutability": "nonpayable",
      "type": "function"
    },
    {
      "constant": true,
      "inputs": [
        {
          "internalType": "uint256",
          "name": "_photoId",
          "type": "uint256"
        }
      ],
      "name": "getTrade",
      "outputs": [
        {
          "components": [
            {
              "internalType": "address",
              "name": "seller",
              "type": "address"
            },
            {
              "internalType": "uint256",
              "name": "photoId",
              "type": "uint256"
            },
            {
              "internalType": "uint256",
              "name": "photoPrice",
              "type": "uint256"
            },
            {
              "internalType": "bytes32",
              "name": "status",
              "type": "bytes32"
            }
          ],
          "internalType": "struct PhotoNFTTradable.Trade",
          "name": "trade_",
          "type": "tuple"
        }
      ],
      "payable": false,
      "stateMutability": "view",
      "type": "function"
    },
    {
      "constant": false,
      "inputs": [
        {
          "internalType": "contract PhotoNFT",
          "name": "photoNFT",
          "type": "address"
        },
        {
          "internalType": "uint256",
          "name": "_photoId",
          "type": "uint256"
        }
      ],
      "name": "openTrade",
      "outputs": [],
      "payable": false,
      "stateMutability": "nonpayable",
      "type": "function"
    },
    {
      "constant": false,
      "inputs": [
        {
          "internalType": "contract PhotoNFT",
          "name": "photoNFT",
          "type": "address"
        },
        {
          "internalType": "uint256",
          "name": "_photoId",
          "type": "uint256"
        },
        {
          "internalType": "uint256",
          "name": "_photoPrice",
          "type": "uint256"
        },
        {
          "internalType": "address",
          "name": "newOwner",
          "type": "address"
        }
      ],
      "name": "openTradeWhenCreateNewPhotoNFT",
      "outputs": [],
      "payable": false,
      "stateMutability": "nonpayable",
      "type": "function"
    },
    {
      "constant": true,
      "inputs": [],
      "name": "photoNFT",
      "outputs": [
        {
          "internalType": "contract PhotoNFT",
          "name": "",
          "type": "address"
        }
      ],
      "payable": false,
      "stateMutability": "view",
      "type": "function"
    },
    {
      "constant": true,
      "inputs": [],
      "name": "photoNFTData",
      "outputs": [
        {
          "internalType": "contract PhotoNFTData",
          "name": "",
          "type": "address"
        }
      ],
      "payable": false,
      "stateMutability": "view",
      "type": "function"
    },
    {
      "constant": true,
      "inputs": [
        {
          "internalType": "uint256",
          "name": "",
          "type": "uint256"
        }
      ],
      "name": "trades",
      "outputs": [
        {
          "internalType": "address",
          "name": "seller",
          "type": "address"
        },
        {
          "internalType": "uint256",
          "name": "photoId",
          "type": "uint256"
        },
        {
          "internalType": "uint256",
          "name": "photoPrice",
          "type": "uint256"
        },
        {
          "internalType": "bytes32",
          "name": "status",
          "type": "bytes32"
        }
      ],
      "payable": false,
      "stateMutability": "view",
      "type": "function"
    },
    {
      "constant": false,
      "inputs": [
        {
          "internalType": "contract PhotoNFT",
          "name": "_photoNFT",
          "type": "address"
        },
        {
          "internalType": "uint256",
          "name": "_photoId",
          "type": "uint256"
        },
        {
          "internalType": "address",
          "name": "_buyer",
          "type": "address"
        }
      ],
      "name": "transferOwnershipOfPhotoNFT",
      "outputs": [],
      "payable": false,
      "stateMutability": "nonpayable",
      "type": "function"
    },
    {
      "constant": false,
      "inputs": [
        {
          "internalType": "contract PhotoNFT",
          "name": "_photoNFT",
          "type": "address"
        }
      ],
      "name": "buyPhotoNFT",
      "outputs": [
        {
          "internalType": "bool",
          "name": "",
          "type": "bool"
        }
      ],
      "payable": true,
      "stateMutability": "payable",
      "type": "function"
    },
    {
      "constant": false,
      "inputs": [
        {
          "internalType": "contract PhotoNFT",
          "name": "_photoNFT",
          "type": "address"
        },
        {
          "internalType": "address payable",
          "name": "receiver",
          "type": "address"
        }
      ],
      "name": "givePhotoNFT",
      "outputs": [
        {
          "internalType": "bool",
          "name": "",
          "type": "bool"
        }
      ],
      "payable": true,
      "stateMutability": "payable",
      "type": "function"
    },
    {
      "constant": false,
      "inputs": [
        {
          "internalType": "address",
          "name": "from",
          "type": "address"
        },
        {
          "internalType": "address",
          "name": "to",
          "type": "address"
        },
        {
          "internalType": "uint256",
          "name": "photoId",
          "type": "uint256"
        }
      ],
      "name": "reputation",
      "outputs": [
        {
          "internalType": "uint256",
          "name": "",
          "type": "uint256"
        },
        {
          "internalType": "uint256",
          "name": "",
          "type": "uint256"
        }
      ],
      "payable": false,
      "stateMutability": "nonpayable",
      "type": "function"
    },
    {
      "constant": true,
      "inputs": [
        {
          "internalType": "uint256",
          "name": "photoId",
          "type": "uint256"
        }
      ],
      "name": "getReputationCount",
      "outputs": [
        {
          "internalType": "uint256",
          "name": "",
          "type": "uint256"
        }
      ],
      "payable": false,
      "stateMutability": "view",
      "type": "function"
    }
  ],
  "bytecode": "0x60806040523480156200001157600080fd5b5060405162001c6638038062001c6683398101604081905262000034916200007c565b600180546001600160a01b039092166001600160a01b03199283168117909155600060035560058054909216179055620000e5565b80516200007681620000cb565b92915050565b6000602082840312156200008f57600080fd5b60006200009d848462000069565b949350505050565b60006200007682620000bf565b60006200007682620000a5565b6001600160a01b031690565b620000d681620000b2565b8114620000e257600080fd5b50565b611b7180620000f56000396000f3fe6080604052600436106100c25760003560e01c80635fe561ab1161007f57806380a279c41161005957806380a279c414610211578063a2793daf14610231578063e61b28db1461025f578063ec03951414610281576100c2565b80635fe561ab146101a4578063759c4bf3146101c45780637cc0c9bd146101e4576100c2565b806303f754d8146100c757806316f946ef146100f05780631e6c598e146101035780632db25e0514610133578063493c2176146101605780634fe71d1314610182575b600080fd5b6100da6100d536600461141f565b610296565b6040516100e7919061187b565b60405180910390f35b6100da6100fe366004611401565b6105f6565b34801561010f57600080fd5b5061012361011e366004611562565b61097c565b6040516100e7949392919061183d565b34801561013f57600080fd5b5061015361014e366004611562565b6109af565b6040516100e791906119ad565b34801561016c57600080fd5b5061018061017b366004611489565b610a0b565b005b34801561018e57600080fd5b50610197610c06565b6040516100e791906117f9565b3480156101b057600080fd5b506101806101bf3660046114cc565b610c15565b3480156101d057600080fd5b506101806101df366004611459565b610d28565b3480156101f057600080fd5b506102046101ff366004611562565b610ec2565b6040516100e791906119bb565b34801561021d57600080fd5b5061018061022c366004611459565b610ec8565b34801561023d57600080fd5b5061025161024c366004611396565b611022565b6040516100e79291906119fd565b34801561026b57600080fd5b5061027461102d565b6040516100e79190611889565b34801561028d57600080fd5b5061027461103c565b60006102a061112a565b600554600054604051637fd6c40560e01b81526001600160a01b0392831692637fd6c405926102d492911690600401611889565b60006040518083038186803b1580156102ec57600080fd5b505afa158015610300573d6000803e3d6000fd5b505050506040513d6000823e601f3d908101601f19168201604052610328919081019061152d565b60608101519091506001600160a01b03811633146103615760405162461bcd60e51b81526004016103589061198d565b60405180910390fd5b60408051808201909152600a81526937333a1034b73232bc1d60b11b602082015285908290869061039390600161104b565b6040516331a9108f60e11b81526001906000906001600160a01b03861690636352211e906103c59085906004016119bb565b60206040518083038186803b1580156103dd57600080fd5b505afa1580156103f1573d6000803e3d6000fd5b505050506040513d601f19601f820116820180604052506104159190810190611370565b9050610422858385610a0b565b600554604051637cb1479b60e01b81526001600160a01b0390911690637cb1479b906104549088908790600401611897565b602060405180830381600087803b15801561046e57600080fd5b505af1158015610482573d6000803e3d6000fd5b505050506040513d601f19601f820116820180604052506104a691908101906113e3565b50600554604051634dd5bfa560e11b81526001600160a01b0390911690639bab7f4a906104d79088906004016118b9565b602060405180830381600087803b1580156104f157600080fd5b505af1158015610505573d6000803e3d6000fd5b505050506040513d601f19601f8201168201806040525061052991908101906113e3565b506040516331a9108f60e11b81526000906001600160a01b03871690636352211e906105599086906004016119bb565b60206040518083038186803b15801561057157600080fd5b505afa158015610585573d6000803e3d6000fd5b505050506040513d601f19601f820116820180604052506105a99190810190611370565b90507fa8ffd0052cf94298cdb4d728ccaebde44f94e7568e31b2129a24a8b2e10fea8c868484846040516105e094939291906118f7565b60405180910390a1505050505050505092915050565b60008161060161112a565b600554604051637fd6c40560e01b81526001600160a01b0390911690637fd6c40590610631908590600401611889565b60006040518083038186803b15801561064957600080fd5b505afa15801561065d573d6000803e3d6000fd5b505050506040513d6000823e601f3d908101601f19168201604052610685919081019061152d565b606081015160808201519192509081903481146106b45760405162461bcd60e51b81526004016103589061199d565b6040516001600160a01b0383169082156108fc029083906000818181858888f193505050501580156106ea573d6000803e3d6000fd5b5060408051808201909152600a81526937333a1034b73232bc1d60b11b6020820152339061071990600161104b565b6040516331a9108f60e11b81526001906000906001600160a01b03891690636352211e9061074b9085906004016119bb565b60206040518083038186803b15801561076357600080fd5b505afa158015610777573d6000803e3d6000fd5b505050506040513d601f19601f8201168201806040525061079b9190810190611370565b90506107a8888385610a0b565b600554604051637cb1479b60e01b81526001600160a01b0390911690637cb1479b906107da908b908790600401611897565b602060405180830381600087803b1580156107f457600080fd5b505af1158015610808573d6000803e3d6000fd5b505050506040513d601f19601f8201168201806040525061082c91908101906113e3565b50600554604051634dd5bfa560e11b81526001600160a01b0390911690639bab7f4a9061085d908b906004016118b9565b602060405180830381600087803b15801561087757600080fd5b505af115801561088b573d6000803e3d6000fd5b505050506040513d601f19601f820116820180604052506108af91908101906113e3565b506040516331a9108f60e11b81526000906001600160a01b038a1690636352211e906108df9086906004016119bb565b60206040518083038186803b1580156108f757600080fd5b505afa15801561090b573d6000803e3d6000fd5b505050506040513d601f19601f8201168201806040525061092f9190810190611370565b90507fa8ffd0052cf94298cdb4d728ccaebde44f94e7568e31b2129a24a8b2e10fea8c8984848460405161096694939291906118f7565b60405180910390a1505050505050505050919050565b600260208190526000918252604090912080546001820154928201546003909201546001600160a01b0390911692919084565b6109b7611181565b6109bf611181565b5050600090815260026020818152604092839020835160808101855281546001600160a01b03168152600182015492810192909252918201549281019290925260030154606082015290565b82610a14611181565b610a1d846109af565b905080606001516327b832b760e11b14610a495760405162461bcd60e51b81526004016103589061197d565b610a54858585611094565b610a7b604051806040016040528060068152602001656265666f726560d01b8152506110c3565b604080518082018252601981527f62616c616e6365206f66206d61726b6574706c616365203a2000000000000000602082015290516370a0823160e01b8152610b3391906001600160a01b038516906370a0823190610ade9030906004016117f9565b60206040518083038186803b158015610af657600080fd5b505afa158015610b0a573d6000803e3d6000fd5b505050506040513d601f19601f82011682018060405250610b2e9190810190611580565b61104b565b60208101516040516323b872dd60e01b81526001600160a01b038416916323b872dd91610b6791309188919060040161182f565b600060405180830381600087803b158015610b8157600080fd5b505af1158015610b95573d6000803e3d6000fd5b50505050610bbf6040518060400160405280600581526020016430b33a32b960d91b8152506110c3565b6810d85b98d95b1b195960ba1b610bd5856109af565b60600152604051600080516020611b0f83398151915290610bf79086906119c9565b60405180910390a15050505050565b6004546001600160a01b031681565b6040516323b872dd60e01b81526001600160a01b038516906323b872dd90610c4590339030908890600401611807565b600060405180830381600087803b158015610c5f57600080fd5b505af1158015610c73573d6000803e3d6000fd5b5050600380546001908101808355604080516080810182526001600160a01b03888116825260208083018c81528385018c81526327b832b760e11b60608601908152600097885260029384905296869020945185546001600160a01b03191694169390931784555195830195909555519381019390935590519183019190915590549051600080516020611b0f8339815191529350610d1a925060001991909101906119e3565b60405180910390a150505050565b600154604051634dd5bfa560e11b81526001600160a01b0390911690639bab7f4a90610d589085906004016118b9565b602060405180830381600087803b158015610d7257600080fd5b505af1158015610d86573d6000803e3d6000fd5b505050506040513d601f19601f82011682018060405250610daa91908101906113e3565b50600081815260026020526040902080546001600160a01b03163314610de25760405162461bcd60e51b81526004016103589061195d565b80600301546327b832b760e11b14610e0c5760405162461bcd60e51b81526004016103589061197d565b805460018201546040516323b872dd60e01b81526001600160a01b03868116936323b872dd93610e449330939092169160040161182f565b600060405180830381600087803b158015610e5e57600080fd5b505af1158015610e72573d6000803e3d6000fd5b505050600083815260026020526040908190206810d85b98d95b1b195960ba1b60039091015551600080516020611b0f8339815191529150610eb59084906119c9565b60405180910390a1505050565b50600090565b600154604051634dd5bfa560e11b81526001600160a01b0390911690639bab7f4a90610ef89085906004016118d8565b602060405180830381600087803b158015610f1257600080fd5b505af1158015610f26573d6000803e3d6000fd5b505050506040513d601f19601f82011682018060405250610f4a91908101906113e3565b50600081815260026020526040902080546001600160a01b03163314610f825760405162461bcd60e51b81526004016103589061196d565b60018101546040516323b872dd60e01b81526001600160a01b038516916323b872dd91610fb6913391309190600401611807565b600060405180830381600087803b158015610fd057600080fd5b505af1158015610fe4573d6000803e3d6000fd5b505050600083815260026020526040908190206327b832b760e11b60039091015551600080516020611b0f8339815191529150610eb59084906119e3565b600080935093915050565b6000546001600160a01b031681565b6005546001600160a01b031681565b611090828260405160240161106192919061193d565b60408051601f198184030181529190526020810180516001600160e01b03166309710a9d60e41b179052611109565b5050565b60009182526002602052604090912080546001600160a01b0319166001600160a01b0390921691909117905550565b611106816040516024016110d7919061192c565b60408051601f198184030181529190526020810180516001600160e01b031663104c13eb60e21b179052611109565b50565b80516a636f6e736f6c652e6c6f67602083016000808483855afa5050505050565b60405180610100016040528060006001600160a01b03168152602001606081526020016060815260200160006001600160a01b03168152602001600081526020016060815260200160608152602001600081525090565b60408051608081018252600080825260208201819052918101829052606081019190915290565b80356111b381611adf565b92915050565b80516111b381611adf565b80516111b381611af3565b80356111b381611afc565b80516111b381611afc565b600082601f8301126111f657600080fd5b815161120961120482611a3f565b611a18565b9150808252602083016020830185838301111561122557600080fd5b611230838284611aa9565b50505092915050565b6000610100828403121561124c57600080fd5b611257610100611a18565b9050600061126584846111da565b825250602082015167ffffffffffffffff81111561128257600080fd5b61128e848285016111e5565b602083015250604082015167ffffffffffffffff8111156112ae57600080fd5b6112ba848285016111e5565b60408301525060606112ce848285016111b9565b60608301525060806112e284828501611365565b60808301525060a082015167ffffffffffffffff81111561130257600080fd5b61130e848285016111e5565b60a08301525060c082015167ffffffffffffffff81111561132e57600080fd5b61133a848285016111e5565b60c08301525060e061134e84828501611365565b60e08301525092915050565b80356111b381611b05565b80516111b381611b05565b60006020828403121561138257600080fd5b600061138e84846111b9565b949350505050565b6000806000606084860312156113ab57600080fd5b60006113b786866111a8565b93505060206113c8868287016111a8565b92505060406113d98682870161135a565b9150509250925092565b6000602082840312156113f557600080fd5b600061138e84846111c4565b60006020828403121561141357600080fd5b600061138e84846111cf565b6000806040838503121561143257600080fd5b600061143e85856111cf565b925050602061144f858286016111a8565b9150509250929050565b6000806040838503121561146c57600080fd5b600061147885856111cf565b925050602061144f8582860161135a565b60008060006060848603121561149e57600080fd5b60006114aa86866111cf565b93505060206114bb8682870161135a565b92505060406113d9868287016111a8565b600080600080608085870312156114e257600080fd5b60006114ee87876111cf565b94505060206114ff8782880161135a565b93505060406115108782880161135a565b9250506060611521878288016111a8565b91505092959194509250565b60006020828403121561153f57600080fd5b815167ffffffffffffffff81111561155657600080fd5b61138e84828501611239565b60006020828403121561157457600080fd5b600061138e848461135a565b60006020828403121561159257600080fd5b600061138e8484611365565b6115a781611a9e565b82525050565b6115a781611a74565b6115a781611a7f565b6115a781611a84565b6115a781611a87565b60006115dc82611a67565b6115e68185611a6b565b93506115f6818560208601611aa9565b6115ff81611ad5565b9093019392505050565b6000611616602683611a6b565b7f54726164652063616e2062652063616e63656c6c6564206f6e6c79206279207381526532b63632b91760d11b602082015260400192915050565b600061165e602183611a6b565b7f54726164652063616e206265206f70656e206f6e6c792062792073656c6c65728152601760f91b602082015260400192915050565b60006116a1601283611a6b565b712a3930b2329034b9903737ba1027b832b71760711b815260200192915050565b60006116cf601f83611a6b565b7f6f6e6c7920746865206f776e65722063616e206769766520617274776f726b00815260200192915050565b6810d85b98d95b1b195960ba1b9052565b6000611719600983611a6b565b6810d85b98d95b1b195960ba1b815260200192915050565b6327b832b760e11b9052565b600061174a600483611a6b565b6327b832b760e11b815260200192915050565b600061176a602a83611a6b565b7f6d73672e76616c75652073686f756c6420626520657175616c20746f2074686581526908189d5e505b5bdd5b9d60b21b602082015260400192915050565b805160808301906117ba84826115ad565b5060208201516117cd60208501826115bf565b5060408201516117e060408501826115bf565b5060608201516117f360608501826115bf565b50505050565b602081016111b382846115ad565b60608101611815828661159e565b61182260208301856115ad565b61138e60408301846115bf565b6060810161181582866115ad565b6080810161184b82876115ad565b61185860208301866115bf565b61186560408301856115bf565b61187260608301846115bf565b95945050505050565b602081016111b382846115b6565b602081016111b382846115c8565b604081016118a582856115c8565b6118b260208301846115ad565b9392505050565b604081016118c782846115c8565b81810360208301526118b28161170c565b604081016118e682846115c8565b81810360208301526118b28161173d565b6080810161190582876115c8565b61191260208301866115bf565b61191f60408301856115ad565b61187260608301846115ad565b602080825281016118b281846115d1565b6040808252810161194e81856115d1565b90506118b260208301846115bf565b602080825281016111b381611609565b602080825281016111b381611651565b602080825281016111b381611694565b602080825281016111b3816116c2565b602080825281016111b38161175d565b608081016111b382846117a9565b602081016111b382846115bf565b604081016119d782846115bf565b6111b3602083016116fb565b604081016119f182846115bf565b6111b360208301611731565b60408101611a0b82856115bf565b6118b260208301846115bf565b60405181810167ffffffffffffffff81118282101715611a3757600080fd5b604052919050565b600067ffffffffffffffff821115611a5657600080fd5b506020601f91909101601f19160190565b5190565b90815260200190565b60006111b382611a92565b151590565b90565b60006111b382611a74565b6001600160a01b031690565b60006111b382611a87565b60005b83811015611ac4578181015183820152602001611aac565b838111156117f35750506000910152565b601f01601f191690565b611ae881611a74565b811461110657600080fd5b611ae881611a7f565b611ae881611a87565b611ae881611a8456fe4d38ed2c5ea671a5ccddc331f0ebebd94a60aaf6e572543497485d4d148f9edfa365627a7a723158206325e0f60e5ed8e66b31c12909a4f35957e547efaa39c117e4b20d8de7221a4d6c6578706572696d656e74616cf564736f6c63430005100040",
  "source": "pragma solidity ^0.5.0;\npragma experimental ABIEncoderV2;\n\n//import { ERC20 } from './openzeppelin-solidity/contracts/token/ERC20/ERC20.sol';\nimport { SafeMath } from \"./openzeppelin-solidity/contracts/math/SafeMath.sol\";\nimport { PhotoNFT } from \"./PhotoNFT.sol\";\nimport { PhotoNFTTradable } from \"./PhotoNFTTradable.sol\";\nimport { PhotoNFTMarketplaceEvents } from \"./photo-nft-marketplace/commons/PhotoNFTMarketplaceEvents.sol\";\nimport { PhotoNFTData } from \"./PhotoNFTData.sol\";\nimport \"hardhat/console.sol\";\n\ncontract PhotoNFTMarketPlace is PhotoNFTTradable, PhotoNFTMarketplaceEvents {\n    using SafeMath for uint256;\n\n    address public PHOTO_NFT_MARKETPLACE;\n\n    PhotoNFTData public photoNFTData;\n\n    constructor(PhotoNFTData _photoNFTData) public PhotoNFTTradable(_photoNFTData) {\n        photoNFTData = _photoNFTData;\n        address payable PHOTO_NFT_MARKETPLACE = address(uint160(address(this)));\n    }\n\n    /** \n     * @notice - Buy function is that buy NFT token and ownership transfer. (Reference from IERC721.sol)\n     * @notice - msg.sender buy NFT with ETH (msg.value)\n     * @notice - PhotoID is always 1. Because each photoNFT is unique.\n     */\n    function buyPhotoNFT(PhotoNFT _photoNFT) public payable returns (bool) {\n        PhotoNFT photoNFT = _photoNFT;\n\n        PhotoNFTData.Photo memory photo = photoNFTData.getPhotoByNFTAddress(photoNFT);\n        address _seller = photo.ownerAddress;                     /// Owner\n        address payable seller = address(uint160(_seller));  /// Convert owner address with payable\n        uint256 buyAmount = photo.photoPrice;\n        require (msg.value == buyAmount, \"msg.value should be equal to the buyAmount\");\n \n        /// Bought-amount is transferred into a seller wallet\n        seller.transfer(buyAmount);\n\n        /// Approve a buyer address as a receiver before NFT's transferFrom method is executed\n        address buyer = msg.sender;\n        console.log(\"nft index:\",1);\n        uint256 photoId = 1;  /// [Note]: PhotoID is always 1. Because each photoNFT is unique.\n\n        address ownerBeforeOwnershipTransferred = photoNFT.ownerOf(photoId);\n\n        /// Transfer Ownership of the PhotoNFT from a seller to a buyer\n        transferOwnershipOfPhotoNFT(photoNFT, photoId, buyer);    \n        photoNFTData.updateOwnerOfPhotoNFT(photoNFT, buyer);\n        photoNFTData.updateStatus(photoNFT, \"Cancelled\");\n\n        /// Event for checking result of transferring ownership of a photoNFT\n        address ownerAfterOwnershipTransferred = photoNFT.ownerOf(photoId);\n        emit PhotoNFTOwnershipChanged(photoNFT, photoId, ownerBeforeOwnershipTransferred, ownerAfterOwnershipTransferred);\n\n        /// Mint a photo with a new photoId\n        //string memory tokenURI = photoNFTFactory.getTokenURI(photoData.ipfsHashOfPhoto);  /// [Note]: IPFS hash + URL\n        //photoNFT.mint(msg.sender, tokenURI);\n    }\n        function givePhotoNFT(PhotoNFT _photoNFT, address payable receiver) public payable returns (bool) {\n        PhotoNFTData.Photo memory photo = photoNFTData.getPhotoByNFTAddress(photoNFT);\n        address _seller = photo.ownerAddress;\n        require(_seller==msg.sender,\"only the owner can give artwork\");\n        PhotoNFT photoNFT = _photoNFT;\n\n        address payable seller = address(uint160(_seller));  /// Convert owner address with payable\n        /// Approve a buyer address as a receiver before NFT's transferFrom method is executed\n        address buyer = receiver;\n        console.log(\"nft index:\",1);\n        uint256 photoId = 1;  /// [Note]: PhotoID is always 1. Because each photoNFT is unique.\n\n        address ownerBeforeOwnershipTransferred = photoNFT.ownerOf(photoId);\n\n        /// Transfer Ownership of the PhotoNFT from a seller to a buyer\n        transferOwnershipOfPhotoNFT(photoNFT, photoId, buyer);    \n        photoNFTData.updateOwnerOfPhotoNFT(photoNFT, buyer);\n        photoNFTData.updateStatus(photoNFT, \"Cancelled\");\n\n        /// Event for checking result of transferring ownership of a photoNFT\n        address ownerAfterOwnershipTransferred = photoNFT.ownerOf(photoId);\n        emit PhotoNFTOwnershipChanged(photoNFT, photoId, ownerBeforeOwnershipTransferred, ownerAfterOwnershipTransferred);\n\n        /// Mint a photo with a new photoId\n        //string memory tokenURI = photoNFTFactory.getTokenURI(photoData.ipfsHashOfPhoto);  /// [Note]: IPFS hash + URL\n        //photoNFT.mint(msg.sender, tokenURI);\n    }\n\n\n    ///-----------------------------------------------------\n    /// Methods below are pending methods\n    ///-----------------------------------------------------\n\n    /** \n     * @dev reputation function is that gives reputation to a user who has ownership of being posted photo.\n     * @dev Each user has reputation data in struct\n     */\n    function reputation(address from, address to, uint256 photoId) public returns (uint256, uint256) {\n\n        // Photo storage photo = photos[photoId];\n        // photo.reputation = photo.reputation.add(1);\n\n        // emit AddReputation(photoId, photo.reputation);\n\n        // return (photoId, photo.reputation);\n        return (0, 0);\n    }\n    \n\n    function getReputationCount(uint256 photoId) public view returns (uint256) {\n        uint256 curretReputationCount;\n\n        // Photo memory photo = photos[photoId];\n        // curretReputationCount = photo.reputation;\n\n        return curretReputationCount;\n    }    \n\n}\n",
  "sourcePath": "/Users/yonatanmartsiano/Downloads/Swallow-2/contracts/PhotoNFTMarketPlace.sol",
  "compiler": {
    "name": "solc",
    "version": "0.5.16+commit.9c3226ce.Emscripten.clang"
  },
  "schemaVersion": "3.3.2",
  "updatedAt": "2021-08-24T12:40:14.362Z",
  "devdoc": {
    "methods": {
      "cancelTrade(address,uint256)": {
        "details": "Cancels a trade by the seller."
      },
      "getTrade(uint256)": {
        "details": "- Returns the details for a trade."
      },
      "openTrade(address,uint256)": {
        "details": "Opens a trade by the seller."
      },
      "openTradeWhenCreateNewPhotoNFT(address,uint256,uint256,address)": {
        "details": "Opens a new trade. Puts _photoId in escrow.",
        "params": {
          "_photoId": "The id for the photoId to trade.",
          "_photoPrice": "The amount of currency for which to trade the photoId."
        }
      },
      "reputation(address,address,uint256)": {
        "details": "reputation function is that gives reputation to a user who has ownership of being posted photo.Each user has reputation data in struct"
      },
      "transferOwnershipOfPhotoNFT(address,uint256,address)": {
        "details": "Executes a trade. Must have approved this contract to transfer the amount of currency specified to the seller. Transfers ownership of the photoId to the filler."
      }
    }
  },
  "userdoc": {
    "methods": {
      "buyPhotoNFT(address)": {
        "notice": "- Buy function is that buy NFT token and ownership transfer. (Reference from IERC721.sol)- msg.sender buy NFT with ETH (msg.value)- PhotoID is always 1. Because each photoNFT is unique."
      },
      "openTradeWhenCreateNewPhotoNFT(address,uint256,uint256,address)": {
        "notice": "- This method is only executed when a seller create a new PhotoNFT"
      }
    }
  }
}