{
  "contractName": "PhotoNFTTradable",
  "abi": [
    {
      "inputs": [
        {
          "internalType": "contract PhotoNFTData",
          "name": "_photoNFTData",
          "type": "address"
        }
      ],
      "payable": false,
      "stateMutability": "nonpayable",
      "type": "constructor"
    },
    {
      "anonymous": false,
      "inputs": [
        {
          "indexed": false,
          "internalType": "uint256",
          "name": "ad",
          "type": "uint256"
        },
        {
          "indexed": false,
          "internalType": "bytes32",
          "name": "status",
          "type": "bytes32"
        }
      ],
      "name": "TradeStatusChange",
      "type": "event"
    },
    {
      "constant": true,
      "inputs": [],
      "name": "photoNFT",
      "outputs": [
        {
          "internalType": "contract PhotoNFT",
          "name": "",
          "type": "address"
        }
      ],
      "payable": false,
      "stateMutability": "view",
      "type": "function"
    },
    {
      "constant": true,
      "inputs": [],
      "name": "photoNFTData",
      "outputs": [
        {
          "internalType": "contract PhotoNFTData",
          "name": "",
          "type": "address"
        }
      ],
      "payable": false,
      "stateMutability": "view",
      "type": "function"
    },
    {
      "constant": true,
      "inputs": [
        {
          "internalType": "uint256",
          "name": "",
          "type": "uint256"
        }
      ],
      "name": "trades",
      "outputs": [
        {
          "internalType": "address",
          "name": "seller",
          "type": "address"
        },
        {
          "internalType": "uint256",
          "name": "photoId",
          "type": "uint256"
        },
        {
          "internalType": "uint256",
          "name": "photoPrice",
          "type": "uint256"
        },
        {
          "internalType": "bytes32",
          "name": "status",
          "type": "bytes32"
        }
      ],
      "payable": false,
      "stateMutability": "view",
      "type": "function"
    },
    {
      "constant": false,
      "inputs": [
        {
          "internalType": "contract PhotoNFT",
          "name": "photoNFT",
          "type": "address"
        },
        {
          "internalType": "uint256",
          "name": "_photoId",
          "type": "uint256"
        },
        {
          "internalType": "uint256",
          "name": "_photoPrice",
          "type": "uint256"
        }
      ],
      "name": "openTradeWhenCreateNewPhotoNFT",
      "outputs": [],
      "payable": false,
      "stateMutability": "nonpayable",
      "type": "function"
    },
    {
      "constant": false,
      "inputs": [
        {
          "internalType": "contract PhotoNFT",
          "name": "photoNFT",
          "type": "address"
        },
        {
          "internalType": "uint256",
          "name": "_photoId",
          "type": "uint256"
        }
      ],
      "name": "openTrade",
      "outputs": [],
      "payable": false,
      "stateMutability": "nonpayable",
      "type": "function"
    },
    {
      "constant": false,
      "inputs": [
        {
          "internalType": "contract PhotoNFT",
          "name": "photoNFT",
          "type": "address"
        },
        {
          "internalType": "uint256",
          "name": "_photoId",
          "type": "uint256"
        }
      ],
      "name": "cancelTrade",
      "outputs": [],
      "payable": false,
      "stateMutability": "nonpayable",
      "type": "function"
    },
    {
      "constant": false,
      "inputs": [
        {
          "internalType": "contract PhotoNFT",
          "name": "_photoNFT",
          "type": "address"
        },
        {
          "internalType": "uint256",
          "name": "_photoId",
          "type": "uint256"
        },
        {
          "internalType": "address",
          "name": "_buyer",
          "type": "address"
        }
      ],
      "name": "transferOwnershipOfPhotoNFT",
      "outputs": [],
      "payable": false,
      "stateMutability": "nonpayable",
      "type": "function"
    },
    {
      "constant": true,
      "inputs": [
        {
          "internalType": "uint256",
          "name": "_photoId",
          "type": "uint256"
        }
      ],
      "name": "getTrade",
      "outputs": [
        {
          "components": [
            {
              "internalType": "address",
              "name": "seller",
              "type": "address"
            },
            {
              "internalType": "uint256",
              "name": "photoId",
              "type": "uint256"
            },
            {
              "internalType": "uint256",
              "name": "photoPrice",
              "type": "uint256"
            },
            {
              "internalType": "bytes32",
              "name": "status",
              "type": "bytes32"
            }
          ],
          "internalType": "struct PhotoNFTTradable.Trade",
          "name": "trade_",
          "type": "tuple"
        }
      ],
      "payable": false,
      "stateMutability": "view",
      "type": "function"
    }
  ],
  "bytecode": "0x608060405234801561001057600080fd5b5060405162000f8538038062000f858339810160408190526100319161006c565b600180546001600160a01b0319166001600160a01b039290921691909117905560006003556100cb565b8051610066816100b4565b92915050565b60006020828403121561007e57600080fd5b600061008a848461005b565b949350505050565b6000610066826100a8565b600061006682610092565b6001600160a01b031690565b6100bd8161009d565b81146100c857600080fd5b50565b610eaa80620000db6000396000f3fe608060405234801561001057600080fd5b50600436106100885760003560e01c8063759c4bf31161005b578063759c4bf31461010157806380a279c414610114578063e61b28db14610127578063ec0395141461013c57610088565b80631e6c598e1461008d5780632db25e05146100b9578063493c2176146100d957806349b1d3e7146100ee575b600080fd5b6100a061009b366004610a1f565b610144565b6040516100b09493929190610c6c565b60405180910390f35b6100cc6100c7366004610a1f565b610177565b6040516100b09190610d5e565b6100ec6100e736600461098f565b6101d3565b005b6100ec6100fc3660046109dc565b6103d7565b6100ec61010f366004610955565b6104e7565b6100ec610122366004610955565b610674565b61012f6107ce565b6040516100b09190610caa565b61012f6107dd565b600260208190526000918252604090912080546001820154928201546003909201546001600160a01b0390911692919084565b61017f6108cb565b6101876108cb565b5050600090815260026020818152604092839020835160808101855281546001600160a01b03168152600182015492810192909252918201549281019290925260030154606082015290565b826101dc6108cb565b6101e584610177565b905080606001516327b832b760e11b1461021a5760405162461bcd60e51b815260040161021190610d4e565b60405180910390fd5b6102258585856107ec565b61024c604051806040016040528060068152602001656265666f726560d01b81525061081b565b604080518082018252601981527f62616c616e6365206f66206d61726b6574706c616365203a2000000000000000602082015290516370a0823160e01b815261030491906001600160a01b038516906370a08231906102af903090600401610c28565b60206040518083038186803b1580156102c757600080fd5b505afa1580156102db573d6000803e3d6000fd5b505050506040513d601f19601f820116820180604052506102ff9190810190610a3d565b610861565b60208101516040516323b872dd60e01b81526001600160a01b038416916323b872dd91610338913091889190600401610c5e565b600060405180830381600087803b15801561035257600080fd5b505af1158015610366573d6000803e3d6000fd5b505050506103906040518060400160405280600581526020016430b33a32b960d91b81525061081b565b6810d85b98d95b1b195960ba1b6103a685610177565b60600152604051600080516020610e48833981519152906103c8908690610d6c565b60405180910390a15050505050565b6040516323b872dd60e01b81526001600160a01b038416906323b872dd9061040790339030908790600401610c36565b600060405180830381600087803b15801561042157600080fd5b505af1158015610435573d6000803e3d6000fd5b50506003805460019081018083556040805160808101825233815260208082018a81528284018a81526327b832b760e11b60608501908152600096875260029384905295859020935184546001600160a01b0319166001600160a01b0390911617845590519583019590955593519381019390935590519183019190915590549051600080516020610e4883398151915293506104da92506000199190910190610d86565b60405180910390a1505050565b600154604051634dd5bfa560e11b81526001600160a01b0390911690639bab7f4a90610517908590600401610cb8565b602060405180830381600087803b15801561053157600080fd5b505af1158015610545573d6000803e3d6000fd5b505050506040513d601f19601f82011682018060405250610569919081019061092f565b50600081815260026020526040902080546001600160a01b031633146105a15760405162461bcd60e51b815260040161021190610d2e565b80600301546327b832b760e11b146105cb5760405162461bcd60e51b815260040161021190610d4e565b805460018201546040516323b872dd60e01b81526001600160a01b03868116936323b872dd9361060393309390921691600401610c5e565b600060405180830381600087803b15801561061d57600080fd5b505af1158015610631573d6000803e3d6000fd5b505050600083815260026020526040908190206810d85b98d95b1b195960ba1b60039091015551600080516020610e4883398151915291506104da908490610d6c565b600154604051634dd5bfa560e11b81526001600160a01b0390911690639bab7f4a906106a4908590600401610cde565b602060405180830381600087803b1580156106be57600080fd5b505af11580156106d2573d6000803e3d6000fd5b505050506040513d601f19601f820116820180604052506106f6919081019061092f565b50600081815260026020526040902080546001600160a01b0316331461072e5760405162461bcd60e51b815260040161021190610d3e565b60018101546040516323b872dd60e01b81526001600160a01b038516916323b872dd91610762913391309190600401610c36565b600060405180830381600087803b15801561077c57600080fd5b505af1158015610790573d6000803e3d6000fd5b505050600083815260026020526040908190206327b832b760e11b60039091015551600080516020610e4883398151915291506104da908490610d86565b6000546001600160a01b031681565b6001546001600160a01b031681565b60009182526002602052604090912080546001600160a01b0319166001600160a01b0390921691909117905550565b61085e8160405160240161082f9190610cfd565b60408051601f198184030181529190526020810180516001600160e01b031663104c13eb60e21b1790526108aa565b50565b6108a68282604051602401610877929190610d0e565b60408051601f198184030181529190526020810180516001600160e01b03166309710a9d60e41b1790526108aa565b5050565b80516a636f6e736f6c652e6c6f67602083016000808483855afa5050505050565b60408051608081018252600080825260208201819052918101829052606081019190915290565b80356108fd81610e18565b92915050565b80516108fd81610e2c565b80356108fd81610e35565b80356108fd81610e3e565b80516108fd81610e3e565b60006020828403121561094157600080fd5b600061094d8484610903565b949350505050565b6000806040838503121561096857600080fd5b6000610974858561090e565b925050602061098585828601610919565b9150509250929050565b6000806000606084860312156109a457600080fd5b60006109b0868661090e565b93505060206109c186828701610919565b92505060406109d2868287016108f2565b9150509250925092565b6000806000606084860312156109f157600080fd5b60006109fd868661090e565b9350506020610a0e86828701610919565b92505060406109d286828701610919565b600060208284031215610a3157600080fd5b600061094d8484610919565b600060208284031215610a4f57600080fd5b600061094d8484610924565b610a6481610dd7565b82525050565b610a6481610dad565b610a6481610dbd565b610a6481610dc0565b6000610a9082610da0565b610a9a8185610da4565b9350610aaa818560208601610de2565b610ab381610e0e565b9093019392505050565b6000610aca602683610da4565b7f54726164652063616e2062652063616e63656c6c6564206f6e6c79206279207381526532b63632b91760d11b602082015260400192915050565b6000610b12602183610da4565b7f54726164652063616e206265206f70656e206f6e6c792062792073656c6c65728152601760f91b602082015260400192915050565b6000610b55601283610da4565b712a3930b2329034b9903737ba1027b832b71760711b815260200192915050565b6810d85b98d95b1b195960ba1b9052565b6000610b94600983610da4565b6810d85b98d95b1b195960ba1b815260200192915050565b6327b832b760e11b9052565b6000610bc5600483610da4565b6327b832b760e11b815260200192915050565b80516080830190610be98482610a6a565b506020820151610bfc6020850182610a73565b506040820151610c0f6040850182610a73565b506060820151610c226060850182610a73565b50505050565b602081016108fd8284610a6a565b60608101610c448286610a5b565b610c516020830185610a6a565b61094d6040830184610a73565b60608101610c448286610a6a565b60808101610c7a8287610a6a565b610c876020830186610a73565b610c946040830185610a73565b610ca16060830184610a73565b95945050505050565b602081016108fd8284610a7c565b60408101610cc68284610a7c565b8181036020830152610cd781610b87565b9392505050565b60408101610cec8284610a7c565b8181036020830152610cd781610bb8565b60208082528101610cd78184610a85565b60408082528101610d1f8185610a85565b9050610cd76020830184610a73565b602080825281016108fd81610abd565b602080825281016108fd81610b05565b602080825281016108fd81610b48565b608081016108fd8284610bd8565b60408101610d7a8284610a73565b6108fd60208301610b76565b60408101610d948284610a73565b6108fd60208301610bac565b5190565b90815260200190565b60006108fd82610dcb565b151590565b90565b60006108fd82610dad565b6001600160a01b031690565b60006108fd82610dc0565b60005b83811015610dfd578181015183820152602001610de5565b83811115610c225750506000910152565b601f01601f191690565b610e2181610dad565b811461085e57600080fd5b610e2181610db8565b610e2181610dc0565b610e2181610dbd56fe4d38ed2c5ea671a5ccddc331f0ebebd94a60aaf6e572543497485d4d148f9edfa365627a7a72315820d1ddbcbf47ca6b554fa0923f90a03ab1dc4f9e851451925ee87278ab589a71cb6c6578706572696d656e74616cf564736f6c63430005100040",
  "source": "pragma solidity ^0.5.0;\npragma experimental ABIEncoderV2;\n\nimport { PhotoNFT } from \"./PhotoNFT.sol\";\nimport { PhotoNFTData } from \"./PhotoNFTData.sol\";\nimport \"hardhat/console.sol\";\n/**\n * @title - PhotoNFTTradable contract\n * @notice - This contract has role that put on sale of photoNFTs\n */\ncontract PhotoNFTTradable {\n    event TradeStatusChange(uint256 ad, bytes32 status);\n\n    PhotoNFT public photoNFT;\n    PhotoNFTData public photoNFTData;\n\n    struct Trade {\n        address seller;\n        uint256 photoId;  /// PhotoNFT's token ID\n        uint256 photoPrice;\n        bytes32 status;   /// Open, Executed, Cancelled\n    }\n    mapping(uint256 => Trade) public trades;  /// [Key]: PhotoNFT's token ID\n\n    uint256 tradeCounter;\n\n    constructor(PhotoNFTData _photoNFTData) public {\n        photoNFTData = _photoNFTData;\n        tradeCounter = 0;\n    }\n\n    /**\n     * @notice - This method is only executed when a seller create a new PhotoNFT\n     * @dev Opens a new trade. Puts _photoId in escrow.\n     * @param _photoId The id for the photoId to trade.\n     * @param _photoPrice The amount of currency for which to trade the photoId.\n     */\n    function openTradeWhenCreateNewPhotoNFT(PhotoNFT photoNFT, uint256 _photoId, uint256 _photoPrice) public {\n        photoNFT.transferFrom(msg.sender, address(this), _photoId);\n\n        tradeCounter += 1;    /// [Note]: New. Trade count is started from \"1\". This is to align photoId\n        trades[tradeCounter] = Trade({\n            seller: msg.sender,\n            photoId: _photoId,\n            photoPrice: _photoPrice,\n            status: \"Open\"\n        });\n        //tradeCounter += 1;  /// [Note]: Original\n        emit TradeStatusChange(tradeCounter - 1, \"Open\");\n    }\n\n    /**\n     * @dev Opens a trade by the seller.\n     */\n    function openTrade(PhotoNFT photoNFT, uint256 _photoId) public {\n        photoNFTData.updateStatus(photoNFT, \"Open\");\n\n        Trade storage trade = trades[_photoId];\n        require(\n            msg.sender == trade.seller,\n            \"Trade can be open only by seller.\"\n        );\n        photoNFT.transferFrom(msg.sender, address(this), trade.photoId);\n        trades[_photoId].status = \"Open\";\n        emit TradeStatusChange(_photoId, \"Open\");\n    }\n\n    /**\n     * @dev Cancels a trade by the seller.\n     */\n    function cancelTrade(PhotoNFT photoNFT, uint256 _photoId) public {\n        photoNFTData.updateStatus(photoNFT, \"Cancelled\");\n        \n        Trade storage trade = trades[_photoId];\n        require(\n            msg.sender == trade.seller,\n            \"Trade can be cancelled only by seller.\"\n        );\n        require(trade.status == \"Open\", \"Trade is not Open.\");\n        photoNFT.transferFrom(address(this), trade.seller, trade.photoId);\n        trades[_photoId].status = \"Cancelled\";\n        emit TradeStatusChange(_photoId, \"Cancelled\");\n    }\n\n    /**\n     * @dev Executes a trade. Must have approved this contract to transfer the amount of currency specified to the seller. Transfers ownership of the photoId to the filler.\n     */\n    function transferOwnershipOfPhotoNFT(PhotoNFT _photoNFT, uint256 _photoId, address _buyer) public {\n        PhotoNFT photoNFT = _photoNFT;\n\n        Trade memory trade = getTrade(_photoId);\n        require(trade.status == \"Open\", \"Trade is not Open.\");\n\n        _updateSeller(_photoNFT, _photoId, _buyer);\n        console.log(\"before\");\n        console.log(\"balance of marketplace : \", photoNFT.balanceOf(address(this)));\n        photoNFT.transferFrom(address(this), _buyer, trade.photoId);\n        console.log(\"after\");\n        getTrade(_photoId).status = \"Cancelled\";\n        emit TradeStatusChange(_photoId, \"Cancelled\");\n    }\n\n    function _updateSeller(PhotoNFT photoNFT, uint256 _photoId, address _newSeller) internal {\n        Trade storage trade = trades[_photoId];\n        trade.seller = _newSeller;\n    }\n\n\n    /**\n     * @dev - Returns the details for a trade.\n     */\n    function getTrade(uint256 _photoId) public view returns (Trade memory trade_) {\n        Trade memory trade = trades[_photoId];\n        return trade;\n        //return (trade.seller, trade.photoId, trade.photoPrice, trade.status);\n    }\n}\n",
  "sourcePath": "/Users/yonatanmartsiano/Downloads/Swallow-2/contracts/PhotoNFTTradable.sol",
  "compiler": {
    "name": "solc",
    "version": "0.5.16+commit.9c3226ce.Emscripten.clang"
  },
  "schemaVersion": "3.3.2",
  "updatedAt": "2021-08-14T07:05:42.130Z",
  "devdoc": {
    "methods": {
      "cancelTrade(address,uint256)": {
        "details": "Cancels a trade by the seller."
      },
      "getTrade(uint256)": {
        "details": "- Returns the details for a trade."
      },
      "openTrade(address,uint256)": {
        "details": "Opens a trade by the seller."
      },
      "openTradeWhenCreateNewPhotoNFT(address,uint256,uint256)": {
        "details": "Opens a new trade. Puts _photoId in escrow.",
        "params": {
          "_photoId": "The id for the photoId to trade.",
          "_photoPrice": "The amount of currency for which to trade the photoId."
        }
      },
      "transferOwnershipOfPhotoNFT(address,uint256,address)": {
        "details": "Executes a trade. Must have approved this contract to transfer the amount of currency specified to the seller. Transfers ownership of the photoId to the filler."
      }
    },
    "title": "- PhotoNFTTradable contract"
  },
  "userdoc": {
    "methods": {
      "openTradeWhenCreateNewPhotoNFT(address,uint256,uint256)": {
        "notice": "- This method is only executed when a seller create a new PhotoNFT"
      }
    },
    "notice": "- This contract has role that put on sale of photoNFTs"
  }
}