{
  "contractName": "PhotoNFTFactory",
  "abi": [
    {
      "inputs": [
        {
          "internalType": "contract PhotoNFTMarketPlace",
          "name": "_photoNFTMarketplace",
          "type": "address"
        },
        {
          "internalType": "contract PhotoNFTData",
          "name": "_photoNFTData",
          "type": "address"
        }
      ],
      "payable": false,
      "stateMutability": "nonpayable",
      "type": "constructor"
    },
    {
      "anonymous": false,
      "inputs": [
        {
          "indexed": false,
          "internalType": "uint256",
          "name": "tokenId",
          "type": "uint256"
        },
        {
          "indexed": false,
          "internalType": "uint256",
          "name": "reputationCount",
          "type": "uint256"
        }
      ],
      "name": "AddReputation",
      "type": "event"
    },
    {
      "anonymous": false,
      "inputs": [
        {
          "indexed": false,
          "internalType": "address",
          "name": "owner",
          "type": "address"
        },
        {
          "indexed": false,
          "internalType": "contract PhotoNFT",
          "name": "photoNFT",
          "type": "address"
        },
        {
          "indexed": false,
          "internalType": "string",
          "name": "nftName",
          "type": "string"
        },
        {
          "indexed": false,
          "internalType": "string",
          "name": "nftSymbol",
          "type": "string"
        },
        {
          "indexed": false,
          "internalType": "uint256",
          "name": "photoPrice",
          "type": "uint256"
        },
        {
          "indexed": false,
          "internalType": "string",
          "name": "ipfsHashOfPhoto",
          "type": "string"
        }
      ],
      "name": "PhotoNFTCreated",
      "type": "event"
    },
    {
      "constant": true,
      "inputs": [
        {
          "internalType": "uint256",
          "name": "",
          "type": "uint256"
        }
      ],
      "name": "photoAddresses",
      "outputs": [
        {
          "internalType": "address",
          "name": "",
          "type": "address"
        }
      ],
      "payable": false,
      "stateMutability": "view",
      "type": "function"
    },
    {
      "constant": true,
      "inputs": [],
      "name": "photoNFTData",
      "outputs": [
        {
          "internalType": "contract PhotoNFTData",
          "name": "",
          "type": "address"
        }
      ],
      "payable": false,
      "stateMutability": "view",
      "type": "function"
    },
    {
      "constant": true,
      "inputs": [],
      "name": "photoNFTMarketplace",
      "outputs": [
        {
          "internalType": "contract PhotoNFTMarketPlace",
          "name": "",
          "type": "address"
        }
      ],
      "payable": false,
      "stateMutability": "view",
      "type": "function"
    },
    {
      "constant": false,
      "inputs": [
        {
          "internalType": "string",
          "name": "nftName",
          "type": "string"
        },
        {
          "internalType": "string",
          "name": "nftSymbol",
          "type": "string"
        },
        {
          "internalType": "uint256",
          "name": "photoPrice",
          "type": "uint256"
        },
        {
          "internalType": "string",
          "name": "ipfsHashOfPhoto",
          "type": "string"
        }
      ],
      "name": "createNewPhotoNFT",
      "outputs": [
        {
          "internalType": "address",
          "name": "",
          "type": "address"
        }
      ],
      "payable": false,
      "stateMutability": "nonpayable",
      "type": "function"
    },
    {
      "constant": true,
      "inputs": [],
      "name": "baseTokenURI",
      "outputs": [
        {
          "internalType": "string",
          "name": "",
          "type": "string"
        }
      ],
      "payable": false,
      "stateMutability": "pure",
      "type": "function"
    },
    {
      "constant": true,
      "inputs": [
        {
          "internalType": "string",
          "name": "_ipfsHashOfPhoto",
          "type": "string"
        }
      ],
      "name": "getTokenURI",
      "outputs": [
        {
          "internalType": "string",
          "name": "",
          "type": "string"
        }
      ],
      "payable": false,
      "stateMutability": "view",
      "type": "function"
    },
    {
      "constant": true,
      "inputs": [],
      "name": "getPhotoAddresses",
      "outputs": [
        {
          "internalType": "address[]",
          "name": "",
          "type": "address[]"
        }
      ],
      "payable": false,
      "stateMutability": "view",
      "type": "function"
    }
  ],
  "bytecode": "0x608060405234801561001057600080fd5b5060405162002a7a38038062002a7a83398101604081905261003191610084565b600280546001600160a01b03199081166001600160a01b03948516179182905560038054821693851693909317909255600180549190931691161790556100f7565b805161007e816100e0565b92915050565b6000806040838503121561009757600080fd5b60006100a38585610073565b92505060206100b485828601610073565b9150509250929050565b600061007e826100d4565b600061007e826100be565b6001600160a01b031690565b6100e9816100c9565b81146100f457600080fd5b50565b61297380620001076000396000f3fe60806040523480156200001157600080fd5b5060043610620000885760003560e01c8063d3e1f6e31162000063578063d3e1f6e314620000ee578063d547cfb71462000114578063dc0985c3146200011e578063ec03951414620001355762000088565b806371552f6c146200008d57806383dc687b14620000bc578063c4188f1114620000d5575b600080fd5b620000a46200009e3660046200078e565b6200013f565b604051620000b39190620009d5565b60405180910390f35b620000c662000344565b604051620000b3919062000aca565b620000df620003a8565b604051620000b3919062000b6c565b62000105620000ff36600462000755565b620003b7565b604051620000b3919062000b9f565b62000105620003d4565b620000a46200012f36600462000842565b62000403565b620000df6200042b565b60003360606200014f84620003b7565b9050600082888884896040516200016690620006a8565b6200017695949392919062000a5f565b604051809103906000f08015801562000193573d6000803e3d6000fd5b50600080546001810182558180527f290decd9548b62a8d60345a988386fc84ba6bc95484008f6362f93160ef3e5630180546001600160a01b0319166001600160a01b0384811691909117909155600354604051630633d55360e01b81529394501691630633d55391620002169185908d908d9033908e908e9060040162000add565b602060405180830381600087803b1580156200023157600080fd5b505af115801562000246573d6000803e3d6000fd5b505050506040513d601f19601f820116820180604052506200026c91908101906200072c565b50600354604051634dd5bfa560e11b81526001600160a01b0390911690639bab7f4a906200029f90849060040162000b7c565b602060405180830381600087803b158015620002ba57600080fd5b505af1158015620002cf573d6000803e3d6000fd5b505050506040513d601f19601f82011682018060405250620002f591908101906200072c565b507f15da3952715f46312a55e03dc9ea5ce0ca9e2b8297f7c8f329d378b195ab173333828a8a8a8a6040516200033196959493929190620009e5565b60405180910390a1979650505050505050565b606060008054806020026020016040519081016040528092919081815260200182805480156200039e57602002820191906000526020600020905b81546001600160a01b031681526001909101906020018083116200037f575b5050505050905090565b6002546001600160a01b031681565b6060620003ce620003c7620003d4565b836200043a565b92915050565b60408051808201909152601581527468747470733a2f2f697066732e696f2f697066732f60581b602082015290565b600081815481106200041157fe5b6000918252602090912001546001600160a01b0316905081565b6003546001600160a01b031681565b60606200047883836040518060200160405280600081525060405180602001604052806000815250604051806020016040528060008152506200047f565b9392505050565b6060808690506060869050606086905060608690506060869050606081518351855187518951010101016040519080825280601f01601f191660200182016040528015620004d4576020820181803883390190505b509050806000805b88518110156200053157888181518110620004f357fe5b602001015160f81c60f81b8383806001019450815181106200051157fe5b60200101906001600160f81b031916908160001a905350600101620004dc565b5060005b87518110156200058a578781815181106200054c57fe5b602001015160f81c60f81b8383806001019450815181106200056a57fe5b60200101906001600160f81b031916908160001a90535060010162000535565b5060005b8651811015620005e357868181518110620005a557fe5b602001015160f81c60f81b838380600101945081518110620005c357fe5b60200101906001600160f81b031916908160001a9053506001016200058e565b5060005b85518110156200063c57858181518110620005fe57fe5b602001015160f81c60f81b8383806001019450815181106200061c57fe5b60200101906001600160f81b031916908160001a905350600101620005e7565b5060005b845181101562000695578481815181106200065757fe5b602001015160f81c60f81b8383806001019450815181106200067557fe5b60200101906001600160f81b031916908160001a90535060010162000640565b50909d9c50505050505050505050505050565b611c3b8062000cf683390190565b8051620003ce8162000cd0565b600082601f830112620006d557600080fd5b8135620006ec620006e68262000bda565b62000bb2565b915080825260208301602083018583830111156200070957600080fd5b6200071683828462000c62565b50505092915050565b8035620003ce8162000cea565b6000602082840312156200073f57600080fd5b60006200074d8484620006b6565b949350505050565b6000602082840312156200076857600080fd5b813567ffffffffffffffff8111156200078057600080fd5b6200074d84828501620006c3565b60008060008060808587031215620007a557600080fd5b843567ffffffffffffffff811115620007bd57600080fd5b620007cb87828801620006c3565b945050602085013567ffffffffffffffff811115620007e957600080fd5b620007f787828801620006c3565b93505060406200080a878288016200071f565b925050606085013567ffffffffffffffff8111156200082857600080fd5b6200083687828801620006c3565b91505092959194509250565b6000602082840312156200085557600080fd5b60006200074d84846200071f565b60006200087183836200088a565b505060200190565b620008848162000c4d565b82525050565b620008848162000c38565b6000620008a28262000c15565b620008ae818562000c23565b9350620008bb8362000c03565b8060005b83811015620008ef578151620008d6888262000863565b9750620008e38362000c03565b925050600101620008bf565b509495945050505050565b6000620009078262000c19565b62000913818562000c23565b9350620009208362000c09565b8060005b83811015620008ef57620009388262000cb8565b62000944888262000863565b9750620009518362000c1d565b92505060010162000924565b620008848162000c55565b6000620009758262000c15565b62000981818562000c23565b93506200099381856020860162000c6e565b6200099e8162000cc6565b9093019392505050565b6000620009b760048362000c23565b6327b832b760e11b815260200192915050565b620008848162000c4a565b60208101620003ce82846200088a565b60c08101620009f5828962000879565b62000a0460208301886200095d565b818103604083015262000a18818762000968565b9050818103606083015262000a2e818662000968565b905062000a3f6080830185620009ca565b81810360a083015262000a53818462000968565b98975050505050505050565b60a0810162000a6f82886200088a565b818103602083015262000a83818762000968565b9050818103604083015262000a99818662000968565b9050818103606083015262000aaf818562000968565b905062000ac06080830184620009ca565b9695505050505050565b6020808252810162000478818462000895565b60e0808252810162000af0818a620008fa565b905062000b0160208301896200095d565b818103604083015262000b15818862000968565b9050818103606083015262000b2b818762000968565b905062000b3c608083018662000879565b62000b4b60a0830185620009ca565b81810360c083015262000b5f818462000968565b9998505050505050505050565b60208101620003ce82846200095d565b6040810162000b8c82846200095d565b81810360208301526200047881620009a8565b6020808252810162000478818462000968565b60405181810167ffffffffffffffff8111828210171562000bd257600080fd5b604052919050565b600067ffffffffffffffff82111562000bf257600080fd5b506020601f91909101601f19160190565b60200190565b60009081526020902090565b5190565b5490565b60010190565b90815260200190565b6001600160a01b031690565b6000620003ce8262000c2c565b151590565b90565b6000620003ce825b6000620003ce8262000c38565b82818337506000910152565b60005b8381101562000c8b57818101518382015260200162000c71565b8381111562000c9b576000848401525b50505050565b6000620003ce62000cb28362000c4a565b62000c2c565b6000620003ce825462000ca1565b601f01601f191690565b62000cdb8162000c45565b811462000ce757600080fd5b50565b62000cdb8162000c4a56fe60806040526000600c553480156200001657600080fd5b5060405162001c3b38038062001c3b833981016040819052620000399162000573565b83838181620000586301ffc9a760e01b6001600160e01b03620000f716565b620000736380ac58cd60e01b6001600160e01b03620000f716565b6200008e63780e9d6360e01b6001600160e01b03620000f716565b8151620000a39060099060208501906200045b565b508051620000b990600a9060208401906200045b565b50620000d5635b5e139f60e01b6001600160e01b03620000f716565b50505050620000eb85836200013460201b60201c565b50505050505062000787565b6001600160e01b031980821614156200010f57600080fd5b6001600160e01b0319166000908152602081905260409020805460ff19166001179055565b6000806200014a6001600160e01b03620001b916565b9050600c54600101600c819055506200018860405180606001604052806027815260200162001c146027913982620001de60201b620009371760201c565b6200019d84826001600160e01b036200022f16565b620001b281846001600160e01b036200026f16565b5092915050565b6000620001d86001600c54620002b360201b62000c271790919060201c565b90505b90565b6200022b8282604051602401620001f79291906200068c565b60408051601f198184030181529190526020810180516001600160e01b039081166309710a9d60e41b17909152620002cf16565b5050565b620002468282620002f060201b62000c611760201c565b6200025b82826001600160e01b03620003bc16565b6200022b816001600160e01b03620003fa16565b62000283826001600160e01b036200043e16565b6200028d57600080fd5b6000828152600b602090815260409091208251620002ae928401906200045b565b505050565b600082820183811015620002c657600080fd5b90505b92915050565b80516a636f6e736f6c652e6c6f67602083016000808483855afa5050505050565b6001600160a01b0382166200030457600080fd5b62000318816001600160e01b036200043e16565b156200032357600080fd5b600081815260016020818152604080842080546001600160a01b0319166001600160a01b038816908117909155845260038252909220546200037192909190620002b3811b62000c2717901c565b6001600160a01b0383166000818152600360205260408082209390935591518392907fddf252ad1be2c89b69c2b068fc378daa952ba7f163c4a11628f55a4df523b3ef908290a45050565b6001600160a01b0390911660009081526005602081815260408084208054868652600684529185208290559282526001810183559183529091200155565b600780546000838152600860205260408120829055600182018355919091527fa66cc928b5edb82af9bd49922954155ab7b0942694bea4ce44661d9a8736c6880155565b6000908152600160205260409020546001600160a01b0316151590565b828054600181600116156101000203166002900490600052602060002090601f016020900481019282601f106200049e57805160ff1916838001178555620004ce565b82800160010185558215620004ce579182015b82811115620004ce578251825591602001919060010190620004b1565b50620004dc929150620004e0565b5090565b620001db91905b80821115620004dc5760008155600101620004e7565b8051620002c98162000762565b600082601f8301126200051c57600080fd5b8151620005336200052d82620006de565b620006b7565b915080825260208301602083018583830111156200055057600080fd5b6200055d83828462000725565b50505092915050565b8051620002c9816200077c565b600080600080600060a086880312156200058c57600080fd5b60006200059a8888620004fd565b95505060208601516001600160401b03811115620005b757600080fd5b620005c5888289016200050a565b94505060408601516001600160401b03811115620005e257600080fd5b620005f0888289016200050a565b93505060608601516001600160401b038111156200060d57600080fd5b6200061b888289016200050a565b92505060806200062e8882890162000566565b9150509295509295909350565b6000620006488262000706565b6200065481856200070a565b93506200066681856020860162000725565b620006718162000758565b9093019392505050565b6200068681620001db565b82525050565b604080825281016200069f81856200063b565b9050620006b060208301846200067b565b9392505050565b6040518181016001600160401b0381118282101715620006d657600080fd5b604052919050565b60006001600160401b03821115620006f557600080fd5b506020601f91909101601f19160190565b5190565b90815260200190565b60006001600160a01b038216620002c9565b60005b838110156200074257818101518382015260200162000728565b8381111562000752576000848401525b50505050565b601f01601f191690565b6200076d8162000713565b81146200077957600080fd5b50565b6200076d81620001db565b61147d80620007976000396000f3fe608060405234801561001057600080fd5b50600436106101165760003560e01c80636352211e116100a2578063b4a5b64611610071578063b4a5b64614610230578063b88d4fde14610238578063c87b56dd1461024b578063d0def5211461025e578063e985e9c51461027157610116565b80636352211e146101ef57806370a082311461020257806395d89b4114610215578063a22cb4651461021d57610116565b806318160ddd116100e957806318160ddd1461018e57806323b872dd146101a35780632f745c59146101b657806342842e0e146101c95780634f6ccce7146101dc57610116565b806301ffc9a71461011b57806306fdde0314610144578063081812fc14610159578063095ea7b314610179575b600080fd5b61012e6101293660046110b2565b610284565b60405161013b919061127f565b60405180910390f35b61014c6102a3565b60405161013b919061128d565b61016c6101673660046110ee565b61033a565b60405161013b919061122d565b61018c610187366004611082565b61036a565b005b610196610433565b60405161013b91906112fe565b61018c6101b1366004610f44565b610439565b6101966101c4366004611082565b61046f565b61018c6101d7366004610f44565b6104bd565b6101966101ea3660046110ee565b6104d8565b61016c6101fd3660046110ee565b61050c565b610196610210366004610eec565b61052e565b61014c61055f565b61018c61022b36600461100a565b6105c0565b610196610645565b61018c610246366004610f91565b61064b565b61014c6102593660046110ee565b610684565b61012e61026c36600461103a565b610737565b61012e61027f366004610f0a565b61078d565b6001600160e01b03191660009081526020819052604090205460ff1690565b60098054604080516020601f600260001961010060018816150201909516949094049384018190048102820181019092528281526060939092909183018282801561032f5780601f106103045761010080835404028352916020019161032f565b820191906000526020600020905b81548152906001019060200180831161031257829003601f168201915b505050505090505b90565b6000610345826107bb565b61034e57600080fd5b506000908152600260205260409020546001600160a01b031690565b60006103758261050c565b9050806001600160a01b0316836001600160a01b0316141561039657600080fd5b336001600160a01b03821614806103b257506103b2813361078d565b6103d75760405162461bcd60e51b81526004016103ce906112be565b60405180910390fd5b60008281526002602052604080822080546001600160a01b0319166001600160a01b0387811691821790925591518593918516917f8c5be1e5ebec7d5bd14f71427d1e84f3dd0314c0f7b2291e5b200ac8c7c3b92591a4505050565b60075490565b61044333826107d8565b61045f5760405162461bcd60e51b81526004016103ce906112ee565b61046a838383610837565b505050565b600061047a8361052e565b821061048557600080fd5b6001600160a01b03831660009081526005602052604090208054839081106104a957fe5b906000526020600020015490505b92915050565b61046a8383836040518060200160405280600081525061064b565b60006104e2610433565b82106104ed57600080fd5b600782815481106104fa57fe5b90600052602060002001549050919050565b6000818152600160205260408120546001600160a01b0316806104b757600080fd5b60006001600160a01b03821661054357600080fd5b506001600160a01b031660009081526003602052604090205490565b600a8054604080516020601f600260001961010060018816150201909516949094049384018190048102820181019092528281526060939092909183018282801561032f5780601f106103045761010080835404028352916020019161032f565b6001600160a01b0382163314156105d657600080fd5b3360008181526004602090815260408083206001600160a01b038716808552925291829020805460ff191685151517905590519091907f17307eab39ab6107e8899845ad3d59bd9653f200f220920489ca2b5937696c319061063990859061127f565b60405180910390a35050565b600c5481565b610656848484610439565b61066284848484610856565b61067e5760405162461bcd60e51b81526004016103ce906112de565b50505050565b606061068f826107bb565b61069857600080fd5b6000828152600b602090815260409182902080548351601f60026000196101006001861615020190931692909204918201849004840281018401909452808452909183018282801561072b5780601f106107005761010080835404028352916020019161072b565b820191906000526020600020905b81548152906001019060200180831161070e57829003601f168201915b50505050509050919050565b60008061074261091b565b9050600c54600101600c819055506107726040518060600160405280602781526020016114146027913982610937565b61077c8482610980565b610786818461099d565b5092915050565b6001600160a01b03918216600090815260046020908152604080832093909416825291909152205460ff1690565b6000908152600160205260409020546001600160a01b0316151590565b6000806107e48361050c565b9050806001600160a01b0316846001600160a01b0316148061081f5750836001600160a01b03166108148461033a565b6001600160a01b0316145b8061082f575061082f818561078d565b949350505050565b6108428383836109ce565b61084c8382610aee565b61046a8282610be3565b600061086a846001600160a01b0316610c21565b6108765750600161082f565b604051630a85bd0160e11b81526000906001600160a01b0386169063150b7a02906108ab9033908a908990899060040161123b565b602060405180830381600087803b1580156108c557600080fd5b505af11580156108d9573d6000803e3d6000fd5b505050506040513d601f19601f820116820180604052506108fd91908101906110d0565b6001600160e01b031916630a85bd0160e11b14915050949350505050565b600c5460009061093290600163ffffffff610c2716565b905090565b61097c828260405160240161094d92919061129e565b60408051601f198184030181529190526020810180516001600160e01b03166309710a9d60e41b179052610c40565b5050565b61098a8282610c61565b6109948282610be3565b61097c81610d13565b6109a6826107bb565b6109af57600080fd5b6000828152600b60209081526040909120825161046a92840190610da9565b826001600160a01b03166109e18261050c565b6001600160a01b031614610a075760405162461bcd60e51b81526004016103ce906112ce565b6001600160a01b038216610a1a57600080fd5b610a2381610d57565b6001600160a01b038316600090815260036020526040902054610a4d90600163ffffffff610d9416565b6001600160a01b038085166000908152600360205260408082209390935590841681522054610a8390600163ffffffff610c2716565b6001600160a01b038084166000818152600360209081526040808320959095558582526001905283812080546001600160a01b031916831790559251849391928716917fddf252ad1be2c89b69c2b068fc378daa952ba7f163c4a11628f55a4df523b3ef91a4505050565b6001600160a01b038216600090815260056020526040812054610b1890600163ffffffff610d9416565b600083815260066020526040902054909150808214610bb3576001600160a01b0384166000908152600560205260408120805484908110610b5557fe5b906000526020600020015490508060056000876001600160a01b03166001600160a01b031681526020019081526020016000208381548110610b9357fe5b600091825260208083209091019290925591825260069052604090208190555b6001600160a01b0384166000908152600560205260409020805490610bdc906000198301610e27565b5050505050565b6001600160a01b0390911660009081526005602081815260408084208054868652600684529185208290559282526001810183559183529091200155565b3b151590565b600082820183811015610c3957600080fd5b9392505050565b80516a636f6e736f6c652e6c6f67602083016000808483855afa5050505050565b6001600160a01b038216610c7457600080fd5b610c7d816107bb565b15610c8757600080fd5b600081815260016020818152604080842080546001600160a01b0319166001600160a01b0388169081179091558452600390915290912054610cc891610c27565b6001600160a01b0383166000818152600360205260408082209390935591518392907fddf252ad1be2c89b69c2b068fc378daa952ba7f163c4a11628f55a4df523b3ef908290a45050565b600780546000838152600860205260408120829055600182018355919091527fa66cc928b5edb82af9bd49922954155ab7b0942694bea4ce44661d9a8736c6880155565b6000818152600260205260409020546001600160a01b031615610d9157600081815260026020526040902080546001600160a01b03191690555b50565b600082821115610da357600080fd5b50900390565b828054600181600116156101000203166002900490600052602060002090601f016020900481019282601f10610dea57805160ff1916838001178555610e17565b82800160010185558215610e17579182015b82811115610e17578251825591602001919060010190610dfc565b50610e23929150610e47565b5090565b81548183558181111561046a5760008381526020902061046a9181019083015b61033791905b80821115610e235760008155600101610e4d565b80356104b7816113e4565b80356104b7816113f8565b80356104b781611401565b80516104b781611401565b600082601f830112610e9e57600080fd5b8135610eb1610eac82611333565b61130c565b91508082526020830160208301858383011115610ecd57600080fd5b610ed88382846113a2565b50505092915050565b80356104b78161140a565b600060208284031215610efe57600080fd5b600061082f8484610e61565b60008060408385031215610f1d57600080fd5b6000610f298585610e61565b9250506020610f3a85828601610e61565b9150509250929050565b600080600060608486031215610f5957600080fd5b6000610f658686610e61565b9350506020610f7686828701610e61565b9250506040610f8786828701610ee1565b9150509250925092565b60008060008060808587031215610fa757600080fd5b6000610fb38787610e61565b9450506020610fc487828801610e61565b9350506040610fd587828801610ee1565b925050606085013567ffffffffffffffff811115610ff257600080fd5b610ffe87828801610e8d565b91505092959194509250565b6000806040838503121561101d57600080fd5b60006110298585610e61565b9250506020610f3a85828601610e6c565b6000806040838503121561104d57600080fd5b60006110598585610e61565b925050602083013567ffffffffffffffff81111561107657600080fd5b610f3a85828601610e8d565b6000806040838503121561109557600080fd5b60006110a18585610e61565b9250506020610f3a85828601610ee1565b6000602082840312156110c457600080fd5b600061082f8484610e77565b6000602082840312156110e257600080fd5b600061082f8484610e82565b60006020828403121561110057600080fd5b600061082f8484610ee1565b61111581611391565b82525050565b61111581611368565b61111581611373565b60006111388261135b565b611142818561135f565b93506111528185602086016113ae565b61115b816113da565b9093019392505050565b6000611172600e8361135f565b6d185c1c1c9bdd994819985a5b195960921b815260200192915050565b600061119c601e8361135f565b7f5f7472616e7366657246726f6d206661696c656420696e204552433732310000815260200192915050565b60006111d560158361135f565b741c1c9bd89b195b481dda5d1a081c9958da595d9959605a1b815260200192915050565b6000611206600f8361135f565b6e185c1c1c9bdd985b0819985a5b1959608a1b815260200192915050565b61111581610337565b602081016104b7828461111b565b60808101611249828761110c565b611256602083018661111b565b6112636040830185611224565b8181036060830152611275818461112d565b9695505050505050565b602081016104b78284611124565b60208082528101610c39818461112d565b604080825281016112af818561112d565b9050610c396020830184611224565b602080825281016104b781611165565b602080825281016104b78161118f565b602080825281016104b7816111c8565b602080825281016104b7816111f9565b602081016104b78284611224565b60405181810167ffffffffffffffff8111828210171561132b57600080fd5b604052919050565b600067ffffffffffffffff82111561134a57600080fd5b506020601f91909101601f19160190565b5190565b90815260200190565b60006104b782611385565b151590565b6001600160e01b03191690565b6001600160a01b031690565b60006104b78260006104b782611368565b82818337506000910152565b60005b838110156113c95781810151838201526020016113b1565b8381111561067e5750506000910152565b601f01601f191690565b6113ed81611368565b8114610d9157600080fd5b6113ed81611373565b6113ed81611378565b6113ed8161033756fe546865206e66742773206964207768696368206973206265696e67206372656174656420697320a365627a7a723158203bdd457f53201628c14978d67bfd21856bd310f3cdbbf8428b0a8581eee18daa6c6578706572696d656e74616cf564736f6c63430005100040546865206e66742773206964207768696368206973206265696e67206372656174656420697320a365627a7a72315820fa39f240a65a8011e68e012dc133c714db32be4256ff1d7695d842c63504db646c6578706572696d656e74616cf564736f6c63430005100040",
  "source": "pragma solidity ^0.5.0;\npragma experimental ABIEncoderV2;\n\nimport { SafeMath } from \"./openzeppelin-solidity/contracts/math/SafeMath.sol\";\nimport { Strings } from \"./libraries/Strings.sol\";\nimport { PhotoNFTFactoryStorages } from \"./photo-nft-factory/commons/PhotoNFTFactoryStorages.sol\";\nimport { PhotoNFT } from \"./PhotoNFT.sol\";\nimport { PhotoNFTMarketPlace } from \"./PhotoNFTMarketPlace.sol\";\nimport { PhotoNFTData } from \"./PhotoNFTData.sol\";\n\n\n/**\n * @notice - This is the factory contract for a NFT of photo\n */\ncontract PhotoNFTFactory is PhotoNFTFactoryStorages {\n    using SafeMath for uint256;\n    using Strings for string;    \n\n    address[] public photoAddresses;\n    address PHOTO_NFT_MARKETPLACE;\n\n    PhotoNFTMarketPlace public photoNFTMarketplace;\n    PhotoNFTData public photoNFTData;\n\n    constructor(PhotoNFTMarketPlace _photoNFTMarketplace, PhotoNFTData _photoNFTData) public {\n        photoNFTMarketplace = _photoNFTMarketplace;\n        photoNFTData = _photoNFTData;\n        PHOTO_NFT_MARKETPLACE = address(photoNFTMarketplace);\n    }\n\n    /**\n     * @notice - Create a new photoNFT when a seller (owner) upload a photo onto IPFS\n     */\n    function createNewPhotoNFT(string memory nftName, string memory nftSymbol, uint256 photoPrice, string memory ipfsHashOfPhoto) public returns (address) {\n        address owner = msg.sender;  /// [Note]: Initial owner of photoNFT is msg.sender\n        string memory tokenURI = getTokenURI(ipfsHashOfPhoto);  /// [Note]: IPFS hash + URL\n        PhotoNFT photoNFT = new PhotoNFT(owner, nftName, nftSymbol, tokenURI, photoPrice);\n        photoAddresses.push(address(photoNFT));\n\n        /// Save metadata of a photoNFT created\n        photoNFTData.saveMetadataOfPhotoNFT(photoAddresses, photoNFT, nftName, nftSymbol, msg.sender, photoPrice, ipfsHashOfPhoto);\n        photoNFTData.updateStatus(photoNFT, \"Open\");\n\n        emit PhotoNFTCreated(msg.sender, photoNFT, nftName, nftSymbol, photoPrice, ipfsHashOfPhoto);\n        return(address(photoNFT));\n    }\n\n\n    ///-----------------\n    /// Getter methods\n    ///-----------------\n    function baseTokenURI() public pure returns (string memory) {\n        return \"https://ipfs.io/ipfs/\";\n    }\n\n    function getTokenURI(string memory _ipfsHashOfPhoto) public view returns (string memory) {\n        return Strings.strConcat(baseTokenURI(), _ipfsHashOfPhoto);\n    }\n       function getPhotoAddresses() public view returns (address[] memory) {\n        return photoAddresses;\n       }\n\n\n}\n",
  "sourcePath": "/Users/yonatanmartsiano/Downloads/Swallow-2/contracts/PhotoNFTFactory.sol",
  "compiler": {
    "name": "solc",
    "version": "0.5.16+commit.9c3226ce.Emscripten.clang"
  },
  "schemaVersion": "3.3.2",
  "updatedAt": "2021-08-02T20:02:17.173Z",
  "devdoc": {
    "methods": {}
  },
  "userdoc": {
    "methods": {
      "baseTokenURI()": {
        "notice": "----------------- Getter methods -----------------"
      },
      "createNewPhotoNFT(string,string,uint256,string)": {
        "notice": "- Create a new photoNFT when a seller (owner) upload a photo onto IPFS"
      }
    },
    "notice": "- This is the factory contract for a NFT of photo"
  }
}