{
  "contractName": "PhotoNFTMarketPlace",
  "abi": [
    {
      "inputs": [
        {
          "internalType": "contract PhotoNFTData",
          "name": "_photoNFTData",
          "type": "address"
        }
      ],
      "payable": false,
      "stateMutability": "nonpayable",
      "type": "constructor"
    },
    {
      "anonymous": false,
      "inputs": [
        {
          "indexed": false,
          "internalType": "contract PhotoNFT",
          "name": "photoNFT",
          "type": "address"
        },
        {
          "indexed": false,
          "internalType": "uint256",
          "name": "photoId",
          "type": "uint256"
        },
        {
          "indexed": false,
          "internalType": "address",
          "name": "ownerBeforeOwnershipTransferred",
          "type": "address"
        },
        {
          "indexed": false,
          "internalType": "address",
          "name": "ownerAfterOwnershipTransferred",
          "type": "address"
        }
      ],
      "name": "PhotoNFTOwnershipChanged",
      "type": "event"
    },
    {
      "anonymous": false,
      "inputs": [
        {
          "indexed": false,
          "internalType": "uint256",
          "name": "ad",
          "type": "uint256"
        },
        {
          "indexed": false,
          "internalType": "bytes32",
          "name": "status",
          "type": "bytes32"
        }
      ],
      "name": "TradeStatusChange",
      "type": "event"
    },
    {
      "constant": true,
      "inputs": [],
      "name": "PHOTO_NFT_MARKETPLACE",
      "outputs": [
        {
          "internalType": "address",
          "name": "",
          "type": "address"
        }
      ],
      "payable": false,
      "stateMutability": "view",
      "type": "function"
    },
    {
      "constant": false,
      "inputs": [
        {
          "internalType": "contract PhotoNFT",
          "name": "photoNFT",
          "type": "address"
        },
        {
          "internalType": "uint256",
          "name": "_photoId",
          "type": "uint256"
        }
      ],
      "name": "cancelTrade",
      "outputs": [],
      "payable": false,
      "stateMutability": "nonpayable",
      "type": "function"
    },
    {
      "constant": true,
      "inputs": [
        {
          "internalType": "uint256",
          "name": "_photoId",
          "type": "uint256"
        }
      ],
      "name": "getTrade",
      "outputs": [
        {
          "components": [
            {
              "internalType": "address",
              "name": "seller",
              "type": "address"
            },
            {
              "internalType": "uint256",
              "name": "photoId",
              "type": "uint256"
            },
            {
              "internalType": "uint256",
              "name": "photoPrice",
              "type": "uint256"
            },
            {
              "internalType": "bytes32",
              "name": "status",
              "type": "bytes32"
            }
          ],
          "internalType": "struct PhotoNFTTradable.Trade",
          "name": "trade_",
          "type": "tuple"
        }
      ],
      "payable": false,
      "stateMutability": "view",
      "type": "function"
    },
    {
      "constant": false,
      "inputs": [
        {
          "internalType": "contract PhotoNFT",
          "name": "photoNFT",
          "type": "address"
        },
        {
          "internalType": "uint256",
          "name": "_photoId",
          "type": "uint256"
        }
      ],
      "name": "openTrade",
      "outputs": [],
      "payable": false,
      "stateMutability": "nonpayable",
      "type": "function"
    },
    {
      "constant": false,
      "inputs": [
        {
          "internalType": "contract PhotoNFT",
          "name": "photoNFT",
          "type": "address"
        },
        {
          "internalType": "uint256",
          "name": "_photoId",
          "type": "uint256"
        },
        {
          "internalType": "uint256",
          "name": "_photoPrice",
          "type": "uint256"
        }
      ],
      "name": "openTradeWhenCreateNewPhotoNFT",
      "outputs": [],
      "payable": false,
      "stateMutability": "nonpayable",
      "type": "function"
    },
    {
      "constant": true,
      "inputs": [],
      "name": "photoNFT",
      "outputs": [
        {
          "internalType": "contract PhotoNFT",
          "name": "",
          "type": "address"
        }
      ],
      "payable": false,
      "stateMutability": "view",
      "type": "function"
    },
    {
      "constant": true,
      "inputs": [],
      "name": "photoNFTData",
      "outputs": [
        {
          "internalType": "contract PhotoNFTData",
          "name": "",
          "type": "address"
        }
      ],
      "payable": false,
      "stateMutability": "view",
      "type": "function"
    },
    {
      "constant": true,
      "inputs": [
        {
          "internalType": "uint256",
          "name": "",
          "type": "uint256"
        }
      ],
      "name": "trades",
      "outputs": [
        {
          "internalType": "address",
          "name": "seller",
          "type": "address"
        },
        {
          "internalType": "uint256",
          "name": "photoId",
          "type": "uint256"
        },
        {
          "internalType": "uint256",
          "name": "photoPrice",
          "type": "uint256"
        },
        {
          "internalType": "bytes32",
          "name": "status",
          "type": "bytes32"
        }
      ],
      "payable": false,
      "stateMutability": "view",
      "type": "function"
    },
    {
      "constant": false,
      "inputs": [
        {
          "internalType": "contract PhotoNFT",
          "name": "_photoNFT",
          "type": "address"
        },
        {
          "internalType": "uint256",
          "name": "_photoId",
          "type": "uint256"
        },
        {
          "internalType": "address",
          "name": "_buyer",
          "type": "address"
        }
      ],
      "name": "transferOwnershipOfPhotoNFT",
      "outputs": [],
      "payable": false,
      "stateMutability": "nonpayable",
      "type": "function"
    },
    {
      "constant": false,
      "inputs": [
        {
          "internalType": "contract PhotoNFT",
          "name": "_photoNFT",
          "type": "address"
        }
      ],
      "name": "buyPhotoNFT",
      "outputs": [
        {
          "internalType": "bool",
          "name": "",
          "type": "bool"
        }
      ],
      "payable": true,
      "stateMutability": "payable",
      "type": "function"
    },
    {
      "constant": false,
      "inputs": [
        {
          "internalType": "address",
          "name": "from",
          "type": "address"
        },
        {
          "internalType": "address",
          "name": "to",
          "type": "address"
        },
        {
          "internalType": "uint256",
          "name": "photoId",
          "type": "uint256"
        }
      ],
      "name": "reputation",
      "outputs": [
        {
          "internalType": "uint256",
          "name": "",
          "type": "uint256"
        },
        {
          "internalType": "uint256",
          "name": "",
          "type": "uint256"
        }
      ],
      "payable": false,
      "stateMutability": "nonpayable",
      "type": "function"
    },
    {
      "constant": true,
      "inputs": [
        {
          "internalType": "uint256",
          "name": "photoId",
          "type": "uint256"
        }
      ],
      "name": "getReputationCount",
      "outputs": [
        {
          "internalType": "uint256",
          "name": "",
          "type": "uint256"
        }
      ],
      "payable": false,
      "stateMutability": "view",
      "type": "function"
    }
  ],
  "bytecode": "0x60806040523480156200001157600080fd5b50604051620016b2380380620016b283398101604081905262000034916200007c565b600180546001600160a01b039092166001600160a01b03199283168117909155600060035560058054909216179055620000e5565b80516200007681620000cb565b92915050565b6000602082840312156200008f57600080fd5b60006200009d848462000069565b949350505050565b60006200007682620000bf565b60006200007682620000a5565b6001600160a01b031690565b620000d681620000b2565b8114620000e257600080fd5b50565b6115bd80620000f56000396000f3fe6080604052600436106100a75760003560e01c8063759c4bf311610064578063759c4bf3146101965780637cc0c9bd146101b657806380a279c4146101e3578063a2793daf14610203578063e61b28db14610231578063ec03951414610253576100a7565b806316f946ef146100ac5780631e6c598e146100d55780632db25e0514610105578063493c21761461013257806349b1d3e7146101545780634fe71d1314610174575b600080fd5b6100bf6100ba366004610f21565b610268565b6040516100cc91906112e5565b60405180910390f35b3480156100e157600080fd5b506100f56100f0366004611023565b6105f7565b6040516100cc94939291906112a7565b34801561011157600080fd5b50610125610120366004611023565b61062a565b6040516100cc91906113f6565b34801561013e57600080fd5b5061015261014d366004610f79565b610686565b005b34801561016057600080fd5b5061015261016f366004610fbc565b61077c565b34801561018057600080fd5b5061018961088c565b6040516100cc9190611263565b3480156101a257600080fd5b506101526101b1366004610f3f565b61089b565b3480156101c257600080fd5b506101d66101d1366004611023565b610a28565b6040516100cc9190611404565b3480156101ef57600080fd5b506101526101fe366004610f3f565b610a2e565b34801561020f57600080fd5b5061022361021e366004610eb6565b610b88565b6040516100cc929190611446565b34801561023d57600080fd5b50610246610b93565b6040516100cc91906112f3565b34801561025f57600080fd5b50610246610ba2565b600081610273610c4a565b600554604051637fd6c40560e01b81526001600160a01b0390911690637fd6c405906102a39085906004016112f3565b60006040518083038186803b1580156102bb57600080fd5b505afa1580156102cf573d6000803e3d6000fd5b505050506040513d6000823e601f3d908101601f191682016040526102f79190810190610fee565b6060810151608082015191925090819034811461032f5760405162461bcd60e51b8152600401610326906113e6565b60405180910390fd5b6040516001600160a01b0383169082156108fc029083906000818181858888f19350505050158015610365573d6000803e3d6000fd5b5060408051808201909152600a81526937333a1034b73232bc1d60b11b60208201523390610394906001610bb1565b6040516331a9108f60e11b81526001906000906001600160a01b03891690636352211e906103c6908590600401611404565b60206040518083038186803b1580156103de57600080fd5b505afa1580156103f2573d6000803e3d6000fd5b505050506040513d601f19601f820116820180604052506104169190810190610e90565b9050610423888385610686565b600554604051637cb1479b60e01b81526001600160a01b0390911690637cb1479b90610455908b908790600401611301565b602060405180830381600087803b15801561046f57600080fd5b505af1158015610483573d6000803e3d6000fd5b505050506040513d601f19601f820116820180604052506104a79190810190610f03565b50600554604051634dd5bfa560e11b81526001600160a01b0390911690639bab7f4a906104d8908b90600401611323565b602060405180830381600087803b1580156104f257600080fd5b505af1158015610506573d6000803e3d6000fd5b505050506040513d601f19601f8201168201806040525061052a9190810190610f03565b506040516331a9108f60e11b81526000906001600160a01b038a1690636352211e9061055a908690600401611404565b60206040518083038186803b15801561057257600080fd5b505afa158015610586573d6000803e3d6000fd5b505050506040513d601f19601f820116820180604052506105aa9190810190610e90565b90507fa8ffd0052cf94298cdb4d728ccaebde44f94e7568e31b2129a24a8b2e10fea8c898484846040516105e19493929190611361565b60405180910390a1505050505050505050919050565b600260208190526000918252604090912080546001820154928201546003909201546001600160a01b0390911692919084565b610632610ca1565b61063a610ca1565b5050600090815260026020818152604092839020835160808101855281546001600160a01b03168152600182015492810192909252918201549281019290925260030154606082015290565b8261068f610ca1565b6106988461062a565b905080606001516327b832b760e11b146106c45760405162461bcd60e51b8152600401610326906113d6565b6106cf858585610bfa565b60208101516040516323b872dd60e01b81526001600160a01b038416916323b872dd91610703913091889190600401611299565b600060405180830381600087803b15801561071d57600080fd5b505af1158015610731573d6000803e3d6000fd5b505050506810d85b98d95b1b195960ba1b61074b8561062a565b6060015260405160008051602061155b8339815191529061076d908690611412565b60405180910390a15050505050565b6040516323b872dd60e01b81526001600160a01b038416906323b872dd906107ac90339030908790600401611271565b600060405180830381600087803b1580156107c657600080fd5b505af11580156107da573d6000803e3d6000fd5b50506003805460019081018083556040805160808101825233815260208082018a81528284018a81526327b832b760e11b60608501908152600096875260029384905295859020935184546001600160a01b0319166001600160a01b039091161784559051958301959095559351938101939093559051918301919091559054905160008051602061155b833981519152935061087f9250600019919091019061142c565b60405180910390a1505050565b6004546001600160a01b031681565b600154604051634dd5bfa560e11b81526001600160a01b0390911690639bab7f4a906108cb908590600401611323565b602060405180830381600087803b1580156108e557600080fd5b505af11580156108f9573d6000803e3d6000fd5b505050506040513d601f19601f8201168201806040525061091d9190810190610f03565b50600081815260026020526040902080546001600160a01b031633146109555760405162461bcd60e51b8152600401610326906113b6565b80600301546327b832b760e11b1461097f5760405162461bcd60e51b8152600401610326906113d6565b805460018201546040516323b872dd60e01b81526001600160a01b03868116936323b872dd936109b793309390921691600401611299565b600060405180830381600087803b1580156109d157600080fd5b505af11580156109e5573d6000803e3d6000fd5b505050600083815260026020526040908190206810d85b98d95b1b195960ba1b6003909101555160008051602061155b833981519152915061087f908490611412565b50600090565b600154604051634dd5bfa560e11b81526001600160a01b0390911690639bab7f4a90610a5e908590600401611342565b602060405180830381600087803b158015610a7857600080fd5b505af1158015610a8c573d6000803e3d6000fd5b505050506040513d601f19601f82011682018060405250610ab09190810190610f03565b50600081815260026020526040902080546001600160a01b03163314610ae85760405162461bcd60e51b8152600401610326906113c6565b60018101546040516323b872dd60e01b81526001600160a01b038516916323b872dd91610b1c913391309190600401611271565b600060405180830381600087803b158015610b3657600080fd5b505af1158015610b4a573d6000803e3d6000fd5b505050600083815260026020526040908190206327b832b760e11b6003909101555160008051602061155b833981519152915061087f90849061142c565b600080935093915050565b6000546001600160a01b031681565b6005546001600160a01b031681565b610bf68282604051602401610bc7929190611396565b60408051601f198184030181529190526020810180516001600160e01b03166309710a9d60e41b179052610c29565b5050565b60009182526002602052604090912080546001600160a01b0319166001600160a01b0390921691909117905550565b80516a636f6e736f6c652e6c6f67602083016000808483855afa5050505050565b60405180610100016040528060006001600160a01b03168152602001606081526020016060815260200160006001600160a01b03168152602001600081526020016060815260200160608152602001600081525090565b60408051608081018252600080825260208201819052918101829052606081019190915290565b8035610cd381611528565b92915050565b8051610cd381611528565b8051610cd38161153f565b8035610cd381611548565b8051610cd381611548565b600082601f830112610d1657600080fd5b8151610d29610d2482611488565b611461565b91508082526020830160208301858383011115610d4557600080fd5b610d508382846114f2565b50505092915050565b60006101008284031215610d6c57600080fd5b610d77610100611461565b90506000610d858484610cfa565b825250602082015167ffffffffffffffff811115610da257600080fd5b610dae84828501610d05565b602083015250604082015167ffffffffffffffff811115610dce57600080fd5b610dda84828501610d05565b6040830152506060610dee84828501610cd9565b6060830152506080610e0284828501610e85565b60808301525060a082015167ffffffffffffffff811115610e2257600080fd5b610e2e84828501610d05565b60a08301525060c082015167ffffffffffffffff811115610e4e57600080fd5b610e5a84828501610d05565b60c08301525060e0610e6e84828501610e85565b60e08301525092915050565b8035610cd381611551565b8051610cd381611551565b600060208284031215610ea257600080fd5b6000610eae8484610cd9565b949350505050565b600080600060608486031215610ecb57600080fd5b6000610ed78686610cc8565b9350506020610ee886828701610cc8565b9250506040610ef986828701610e7a565b9150509250925092565b600060208284031215610f1557600080fd5b6000610eae8484610ce4565b600060208284031215610f3357600080fd5b6000610eae8484610cef565b60008060408385031215610f5257600080fd5b6000610f5e8585610cef565b9250506020610f6f85828601610e7a565b9150509250929050565b600080600060608486031215610f8e57600080fd5b6000610f9a8686610cef565b9350506020610fab86828701610e7a565b9250506040610ef986828701610cc8565b600080600060608486031215610fd157600080fd5b6000610fdd8686610cef565b9350506020610ee886828701610e7a565b60006020828403121561100057600080fd5b815167ffffffffffffffff81111561101757600080fd5b610eae84828501610d59565b60006020828403121561103557600080fd5b6000610eae8484610e7a565b61104a816114e7565b82525050565b61104a816114bd565b61104a816114c8565b61104a816114cd565b61104a816114d0565b600061107f826114b0565b61108981856114b4565b93506110998185602086016114f2565b6110a28161151e565b9093019392505050565b60006110b96026836114b4565b7f54726164652063616e2062652063616e63656c6c6564206f6e6c79206279207381526532b63632b91760d11b602082015260400192915050565b60006111016021836114b4565b7f54726164652063616e206265206f70656e206f6e6c792062792073656c6c65728152601760f91b602082015260400192915050565b60006111446012836114b4565b712a3930b2329034b9903737ba1027b832b71760711b815260200192915050565b6810d85b98d95b1b195960ba1b9052565b60006111836009836114b4565b6810d85b98d95b1b195960ba1b815260200192915050565b6327b832b760e11b9052565b60006111b46004836114b4565b6327b832b760e11b815260200192915050565b60006111d4602a836114b4565b7f6d73672e76616c75652073686f756c6420626520657175616c20746f2074686581526908189d5e505b5bdd5b9d60b21b602082015260400192915050565b805160808301906112248482611050565b5060208201516112376020850182611062565b50604082015161124a6040850182611062565b50606082015161125d6060850182611062565b50505050565b60208101610cd38284611050565b6060810161127f8286611041565b61128c6020830185611050565b610eae6040830184611062565b6060810161127f8286611050565b608081016112b58287611050565b6112c26020830186611062565b6112cf6040830185611062565b6112dc6060830184611062565b95945050505050565b60208101610cd38284611059565b60208101610cd3828461106b565b6040810161130f828561106b565b61131c6020830184611050565b9392505050565b60408101611331828461106b565b818103602083015261131c81611176565b60408101611350828461106b565b818103602083015261131c816111a7565b6080810161136f828761106b565b61137c6020830186611062565b6113896040830185611050565b6112dc6060830184611050565b604080825281016113a78185611074565b905061131c6020830184611062565b60208082528101610cd3816110ac565b60208082528101610cd3816110f4565b60208082528101610cd381611137565b60208082528101610cd3816111c7565b60808101610cd38284611213565b60208101610cd38284611062565b604081016114208284611062565b610cd360208301611165565b6040810161143a8284611062565b610cd36020830161119b565b604081016114548285611062565b61131c6020830184611062565b60405181810167ffffffffffffffff8111828210171561148057600080fd5b604052919050565b600067ffffffffffffffff82111561149f57600080fd5b506020601f91909101601f19160190565b5190565b90815260200190565b6000610cd3826114db565b151590565b90565b6000610cd3826114bd565b6001600160a01b031690565b6000610cd3826114d0565b60005b8381101561150d5781810151838201526020016114f5565b8381111561125d5750506000910152565b601f01601f191690565b611531816114bd565b811461153c57600080fd5b50565b611531816114c8565b611531816114d0565b611531816114cd56fe4d38ed2c5ea671a5ccddc331f0ebebd94a60aaf6e572543497485d4d148f9edfa365627a7a72315820363d8caa4f08ee5a68c14757bdcb3ad61401243574677f58ce7bbef4c17e09c96c6578706572696d656e74616cf564736f6c63430005100040",
  "source": "pragma solidity ^0.5.0;\npragma experimental ABIEncoderV2;\n\n//import { ERC20 } from './openzeppelin-solidity/contracts/token/ERC20/ERC20.sol';\nimport { SafeMath } from \"./openzeppelin-solidity/contracts/math/SafeMath.sol\";\nimport { PhotoNFT } from \"./PhotoNFT.sol\";\nimport { PhotoNFTTradable } from \"./PhotoNFTTradable.sol\";\nimport { PhotoNFTMarketplaceEvents } from \"./photo-nft-marketplace/commons/PhotoNFTMarketplaceEvents.sol\";\nimport { PhotoNFTData } from \"./PhotoNFTData.sol\";\nimport \"hardhat/console.sol\";\n\ncontract PhotoNFTMarketPlace is PhotoNFTTradable, PhotoNFTMarketplaceEvents {\n    using SafeMath for uint256;\n\n    address public PHOTO_NFT_MARKETPLACE;\n\n    PhotoNFTData public photoNFTData;\n\n    constructor(PhotoNFTData _photoNFTData) public PhotoNFTTradable(_photoNFTData) {\n        photoNFTData = _photoNFTData;\n        address payable PHOTO_NFT_MARKETPLACE = address(uint160(address(this)));\n    }\n\n    /** \n     * @notice - Buy function is that buy NFT token and ownership transfer. (Reference from IERC721.sol)\n     * @notice - msg.sender buy NFT with ETH (msg.value)\n     * @notice - PhotoID is always 1. Because each photoNFT is unique.\n     */\n    function buyPhotoNFT(PhotoNFT _photoNFT) public payable returns (bool) {\n        PhotoNFT photoNFT = _photoNFT;\n\n        PhotoNFTData.Photo memory photo = photoNFTData.getPhotoByNFTAddress(photoNFT);\n        address _seller = photo.ownerAddress;                     /// Owner\n        address payable seller = address(uint160(_seller));  /// Convert owner address with payable\n        uint256 buyAmount = photo.photoPrice;\n        require (msg.value == buyAmount, \"msg.value should be equal to the buyAmount\");\n \n        /// Bought-amount is transferred into a seller wallet\n        seller.transfer(buyAmount);\n\n        /// Approve a buyer address as a receiver before NFT's transferFrom method is executed\n        address buyer = msg.sender;\n        console.log(\"nft index:\",1);\n        uint256 photoId = 1;  /// [Note]: PhotoID is always 1. Because each photoNFT is unique.\n\n        address ownerBeforeOwnershipTransferred = photoNFT.ownerOf(photoId);\n\n        /// Transfer Ownership of the PhotoNFT from a seller to a buyer\n        transferOwnershipOfPhotoNFT(photoNFT, photoId, buyer);    \n        photoNFTData.updateOwnerOfPhotoNFT(photoNFT, buyer);\n        photoNFTData.updateStatus(photoNFT, \"Cancelled\");\n\n        /// Event for checking result of transferring ownership of a photoNFT\n        address ownerAfterOwnershipTransferred = photoNFT.ownerOf(photoId);\n        emit PhotoNFTOwnershipChanged(photoNFT, photoId, ownerBeforeOwnershipTransferred, ownerAfterOwnershipTransferred);\n\n        /// Mint a photo with a new photoId\n        //string memory tokenURI = photoNFTFactory.getTokenURI(photoData.ipfsHashOfPhoto);  /// [Note]: IPFS hash + URL\n        //photoNFT.mint(msg.sender, tokenURI);\n    }\n\n\n    ///-----------------------------------------------------\n    /// Methods below are pending methods\n    ///-----------------------------------------------------\n\n    /** \n     * @dev reputation function is that gives reputation to a user who has ownership of being posted photo.\n     * @dev Each user has reputation data in struct\n     */\n    function reputation(address from, address to, uint256 photoId) public returns (uint256, uint256) {\n\n        // Photo storage photo = photos[photoId];\n        // photo.reputation = photo.reputation.add(1);\n\n        // emit AddReputation(photoId, photo.reputation);\n\n        // return (photoId, photo.reputation);\n        return (0, 0);\n    }\n    \n\n    function getReputationCount(uint256 photoId) public view returns (uint256) {\n        uint256 curretReputationCount;\n\n        // Photo memory photo = photos[photoId];\n        // curretReputationCount = photo.reputation;\n\n        return curretReputationCount;\n    }    \n\n}\n",
  "sourcePath": "/Users/yonatanmartsiano/Downloads/Swallow-2/contracts/PhotoNFTMarketPlace.sol",
  "compiler": {
    "name": "solc",
    "version": "0.5.16+commit.9c3226ce.Emscripten.clang"
  },
  "schemaVersion": "3.3.2",
  "updatedAt": "2021-08-02T19:39:09.635Z",
  "devdoc": {
    "methods": {
      "cancelTrade(address,uint256)": {
        "details": "Cancels a trade by the seller."
      },
      "getTrade(uint256)": {
        "details": "- Returns the details for a trade."
      },
      "openTrade(address,uint256)": {
        "details": "Opens a trade by the seller."
      },
      "openTradeWhenCreateNewPhotoNFT(address,uint256,uint256)": {
        "details": "Opens a new trade. Puts _photoId in escrow.",
        "params": {
          "_photoId": "The id for the photoId to trade.",
          "_photoPrice": "The amount of currency for which to trade the photoId."
        }
      },
      "reputation(address,address,uint256)": {
        "details": "reputation function is that gives reputation to a user who has ownership of being posted photo.Each user has reputation data in struct"
      },
      "transferOwnershipOfPhotoNFT(address,uint256,address)": {
        "details": "Executes a trade. Must have approved this contract to transfer the amount of currency specified to the seller. Transfers ownership of the photoId to the filler."
      }
    }
  },
  "userdoc": {
    "methods": {
      "buyPhotoNFT(address)": {
        "notice": "- Buy function is that buy NFT token and ownership transfer. (Reference from IERC721.sol)- msg.sender buy NFT with ETH (msg.value)- PhotoID is always 1. Because each photoNFT is unique."
      },
      "openTradeWhenCreateNewPhotoNFT(address,uint256,uint256)": {
        "notice": "- This method is only executed when a seller create a new PhotoNFT"
      }
    }
  }
}