{
  "contractName": "PhotoNFTMarketPlace",
  "abi": [
    {
      "inputs": [
        {
          "internalType": "contract PhotoNFTData",
          "name": "_photoNFTData",
          "type": "address"
        }
      ],
      "payable": false,
      "stateMutability": "nonpayable",
      "type": "constructor"
    },
    {
      "anonymous": false,
      "inputs": [
        {
          "indexed": false,
          "internalType": "contract PhotoNFT",
          "name": "photoNFT",
          "type": "address"
        },
        {
          "indexed": false,
          "internalType": "uint256",
          "name": "photoId",
          "type": "uint256"
        },
        {
          "indexed": false,
          "internalType": "address",
          "name": "ownerBeforeOwnershipTransferred",
          "type": "address"
        },
        {
          "indexed": false,
          "internalType": "address",
          "name": "ownerAfterOwnershipTransferred",
          "type": "address"
        }
      ],
      "name": "PhotoNFTOwnershipChanged",
      "type": "event"
    },
    {
      "anonymous": false,
      "inputs": [
        {
          "indexed": false,
          "internalType": "uint256",
          "name": "ad",
          "type": "uint256"
        },
        {
          "indexed": false,
          "internalType": "bytes32",
          "name": "status",
          "type": "bytes32"
        }
      ],
      "name": "TradeStatusChange",
      "type": "event"
    },
    {
      "constant": true,
      "inputs": [],
      "name": "PHOTO_NFT_MARKETPLACE",
      "outputs": [
        {
          "internalType": "address",
          "name": "",
          "type": "address"
        }
      ],
      "payable": false,
      "stateMutability": "view",
      "type": "function"
    },
    {
      "constant": false,
      "inputs": [
        {
          "internalType": "contract PhotoNFT",
          "name": "photoNFT",
          "type": "address"
        },
        {
          "internalType": "uint256",
          "name": "_photoId",
          "type": "uint256"
        }
      ],
      "name": "cancelTrade",
      "outputs": [],
      "payable": false,
      "stateMutability": "nonpayable",
      "type": "function"
    },
    {
      "constant": true,
      "inputs": [
        {
          "internalType": "uint256",
          "name": "_photoId",
          "type": "uint256"
        }
      ],
      "name": "getTrade",
      "outputs": [
        {
          "components": [
            {
              "internalType": "address",
              "name": "seller",
              "type": "address"
            },
            {
              "internalType": "uint256",
              "name": "photoId",
              "type": "uint256"
            },
            {
              "internalType": "uint256",
              "name": "photoPrice",
              "type": "uint256"
            },
            {
              "internalType": "bytes32",
              "name": "status",
              "type": "bytes32"
            }
          ],
          "internalType": "struct PhotoNFTTradable.Trade",
          "name": "trade_",
          "type": "tuple"
        }
      ],
      "payable": false,
      "stateMutability": "view",
      "type": "function"
    },
    {
      "constant": false,
      "inputs": [
        {
          "internalType": "contract PhotoNFT",
          "name": "photoNFT",
          "type": "address"
        },
        {
          "internalType": "uint256",
          "name": "_photoId",
          "type": "uint256"
        }
      ],
      "name": "openTrade",
      "outputs": [],
      "payable": false,
      "stateMutability": "nonpayable",
      "type": "function"
    },
    {
      "constant": false,
      "inputs": [
        {
          "internalType": "contract PhotoNFT",
          "name": "photoNFT",
          "type": "address"
        },
        {
          "internalType": "uint256",
          "name": "_photoId",
          "type": "uint256"
        },
        {
          "internalType": "uint256",
          "name": "_photoPrice",
          "type": "uint256"
        }
      ],
      "name": "openTradeWhenCreateNewPhotoNFT",
      "outputs": [],
      "payable": false,
      "stateMutability": "nonpayable",
      "type": "function"
    },
    {
      "constant": true,
      "inputs": [],
      "name": "photoNFT",
      "outputs": [
        {
          "internalType": "contract PhotoNFT",
          "name": "",
          "type": "address"
        }
      ],
      "payable": false,
      "stateMutability": "view",
      "type": "function"
    },
    {
      "constant": true,
      "inputs": [],
      "name": "photoNFTData",
      "outputs": [
        {
          "internalType": "contract PhotoNFTData",
          "name": "",
          "type": "address"
        }
      ],
      "payable": false,
      "stateMutability": "view",
      "type": "function"
    },
    {
      "constant": true,
      "inputs": [
        {
          "internalType": "uint256",
          "name": "",
          "type": "uint256"
        }
      ],
      "name": "trades",
      "outputs": [
        {
          "internalType": "address",
          "name": "seller",
          "type": "address"
        },
        {
          "internalType": "uint256",
          "name": "photoId",
          "type": "uint256"
        },
        {
          "internalType": "uint256",
          "name": "photoPrice",
          "type": "uint256"
        },
        {
          "internalType": "bytes32",
          "name": "status",
          "type": "bytes32"
        }
      ],
      "payable": false,
      "stateMutability": "view",
      "type": "function"
    },
    {
      "constant": false,
      "inputs": [
        {
          "internalType": "contract PhotoNFT",
          "name": "_photoNFT",
          "type": "address"
        },
        {
          "internalType": "uint256",
          "name": "_photoId",
          "type": "uint256"
        },
        {
          "internalType": "address",
          "name": "_buyer",
          "type": "address"
        }
      ],
      "name": "transferOwnershipOfPhotoNFT",
      "outputs": [],
      "payable": false,
      "stateMutability": "nonpayable",
      "type": "function"
    },
    {
      "constant": false,
      "inputs": [
        {
          "internalType": "contract PhotoNFT",
          "name": "_photoNFT",
          "type": "address"
        }
      ],
      "name": "buyPhotoNFT",
      "outputs": [
        {
          "internalType": "bool",
          "name": "",
          "type": "bool"
        }
      ],
      "payable": true,
      "stateMutability": "payable",
      "type": "function"
    },
    {
      "constant": false,
      "inputs": [
        {
          "internalType": "contract PhotoNFT",
          "name": "_photoNFT",
          "type": "address"
        },
        {
          "internalType": "address payable",
          "name": "receiver",
          "type": "address"
        }
      ],
      "name": "givePhotoNFT",
      "outputs": [
        {
          "internalType": "bool",
          "name": "",
          "type": "bool"
        }
      ],
      "payable": true,
      "stateMutability": "payable",
      "type": "function"
    },
    {
      "constant": false,
      "inputs": [
        {
          "internalType": "address",
          "name": "from",
          "type": "address"
        },
        {
          "internalType": "address",
          "name": "to",
          "type": "address"
        },
        {
          "internalType": "uint256",
          "name": "photoId",
          "type": "uint256"
        }
      ],
      "name": "reputation",
      "outputs": [
        {
          "internalType": "uint256",
          "name": "",
          "type": "uint256"
        },
        {
          "internalType": "uint256",
          "name": "",
          "type": "uint256"
        }
      ],
      "payable": false,
      "stateMutability": "nonpayable",
      "type": "function"
    },
    {
      "constant": true,
      "inputs": [
        {
          "internalType": "uint256",
          "name": "photoId",
          "type": "uint256"
        }
      ],
      "name": "getReputationCount",
      "outputs": [
        {
          "internalType": "uint256",
          "name": "",
          "type": "uint256"
        }
      ],
      "payable": false,
      "stateMutability": "view",
      "type": "function"
    }
  ],
  "bytecode": "0x60806040523480156200001157600080fd5b5060405162001c2738038062001c2783398101604081905262000034916200007c565b600180546001600160a01b039092166001600160a01b03199283168117909155600060035560058054909216179055620000e5565b80516200007681620000cb565b92915050565b6000602082840312156200008f57600080fd5b60006200009d848462000069565b949350505050565b60006200007682620000bf565b60006200007682620000a5565b6001600160a01b031690565b620000d681620000b2565b8114620000e257600080fd5b50565b611b3280620000f56000396000f3fe6080604052600436106100c25760003560e01c80634fe71d131161007f57806380a279c41161005957806380a279c414610211578063a2793daf14610231578063e61b28db1461025f578063ec03951414610281576100c2565b80634fe71d13146101a2578063759c4bf3146101c45780637cc0c9bd146101e4576100c2565b806303f754d8146100c757806316f946ef146100f05780631e6c598e146101035780632db25e0514610133578063493c21761461016057806349b1d3e714610182575b600080fd5b6100da6100d536600461140f565b610296565b6040516100e7919061183c565b60405180910390f35b6100da6100fe3660046113f1565b6105f6565b34801561010f57600080fd5b5061012361011e366004611523565b61097c565b6040516100e794939291906117fe565b34801561013f57600080fd5b5061015361014e366004611523565b6109af565b6040516100e7919061196e565b34801561016c57600080fd5b5061018061017b366004611479565b610a0b565b005b34801561018e57600080fd5b5061018061019d3660046114bc565b610c06565b3480156101ae57600080fd5b506101b7610d16565b6040516100e791906117ba565b3480156101d057600080fd5b506101806101df366004611449565b610d25565b3480156101f057600080fd5b506102046101ff366004611523565b610eb2565b6040516100e7919061197c565b34801561021d57600080fd5b5061018061022c366004611449565b610eb8565b34801561023d57600080fd5b5061025161024c366004611386565b611012565b6040516100e79291906119be565b34801561026b57600080fd5b5061027461101d565b6040516100e7919061184a565b34801561028d57600080fd5b5061027461102c565b60006102a061111a565b600554600054604051637fd6c40560e01b81526001600160a01b0392831692637fd6c405926102d49291169060040161184a565b60006040518083038186803b1580156102ec57600080fd5b505afa158015610300573d6000803e3d6000fd5b505050506040513d6000823e601f3d908101601f1916820160405261032891908101906114ee565b60608101519091506001600160a01b03811633146103615760405162461bcd60e51b81526004016103589061194e565b60405180910390fd5b60408051808201909152600a81526937333a1034b73232bc1d60b11b602082015285908290869061039390600161103b565b6040516331a9108f60e11b81526001906000906001600160a01b03861690636352211e906103c590859060040161197c565b60206040518083038186803b1580156103dd57600080fd5b505afa1580156103f1573d6000803e3d6000fd5b505050506040513d601f19601f820116820180604052506104159190810190611360565b9050610422858385610a0b565b600554604051637cb1479b60e01b81526001600160a01b0390911690637cb1479b906104549088908790600401611858565b602060405180830381600087803b15801561046e57600080fd5b505af1158015610482573d6000803e3d6000fd5b505050506040513d601f19601f820116820180604052506104a691908101906113d3565b50600554604051634dd5bfa560e11b81526001600160a01b0390911690639bab7f4a906104d790889060040161187a565b602060405180830381600087803b1580156104f157600080fd5b505af1158015610505573d6000803e3d6000fd5b505050506040513d601f19601f8201168201806040525061052991908101906113d3565b506040516331a9108f60e11b81526000906001600160a01b03871690636352211e9061055990869060040161197c565b60206040518083038186803b15801561057157600080fd5b505afa158015610585573d6000803e3d6000fd5b505050506040513d601f19601f820116820180604052506105a99190810190611360565b90507fa8ffd0052cf94298cdb4d728ccaebde44f94e7568e31b2129a24a8b2e10fea8c868484846040516105e094939291906118b8565b60405180910390a1505050505050505092915050565b60008161060161111a565b600554604051637fd6c40560e01b81526001600160a01b0390911690637fd6c4059061063190859060040161184a565b60006040518083038186803b15801561064957600080fd5b505afa15801561065d573d6000803e3d6000fd5b505050506040513d6000823e601f3d908101601f1916820160405261068591908101906114ee565b606081015160808201519192509081903481146106b45760405162461bcd60e51b81526004016103589061195e565b6040516001600160a01b0383169082156108fc029083906000818181858888f193505050501580156106ea573d6000803e3d6000fd5b5060408051808201909152600a81526937333a1034b73232bc1d60b11b6020820152339061071990600161103b565b6040516331a9108f60e11b81526001906000906001600160a01b03891690636352211e9061074b90859060040161197c565b60206040518083038186803b15801561076357600080fd5b505afa158015610777573d6000803e3d6000fd5b505050506040513d601f19601f8201168201806040525061079b9190810190611360565b90506107a8888385610a0b565b600554604051637cb1479b60e01b81526001600160a01b0390911690637cb1479b906107da908b908790600401611858565b602060405180830381600087803b1580156107f457600080fd5b505af1158015610808573d6000803e3d6000fd5b505050506040513d601f19601f8201168201806040525061082c91908101906113d3565b50600554604051634dd5bfa560e11b81526001600160a01b0390911690639bab7f4a9061085d908b9060040161187a565b602060405180830381600087803b15801561087757600080fd5b505af115801561088b573d6000803e3d6000fd5b505050506040513d601f19601f820116820180604052506108af91908101906113d3565b506040516331a9108f60e11b81526000906001600160a01b038a1690636352211e906108df90869060040161197c565b60206040518083038186803b1580156108f757600080fd5b505afa15801561090b573d6000803e3d6000fd5b505050506040513d601f19601f8201168201806040525061092f9190810190611360565b90507fa8ffd0052cf94298cdb4d728ccaebde44f94e7568e31b2129a24a8b2e10fea8c8984848460405161096694939291906118b8565b60405180910390a1505050505050505050919050565b600260208190526000918252604090912080546001820154928201546003909201546001600160a01b0390911692919084565b6109b7611171565b6109bf611171565b5050600090815260026020818152604092839020835160808101855281546001600160a01b03168152600182015492810192909252918201549281019290925260030154606082015290565b82610a14611171565b610a1d846109af565b905080606001516327b832b760e11b14610a495760405162461bcd60e51b81526004016103589061193e565b610a54858585611084565b610a7b604051806040016040528060068152602001656265666f726560d01b8152506110b3565b604080518082018252601981527f62616c616e6365206f66206d61726b6574706c616365203a2000000000000000602082015290516370a0823160e01b8152610b3391906001600160a01b038516906370a0823190610ade9030906004016117ba565b60206040518083038186803b158015610af657600080fd5b505afa158015610b0a573d6000803e3d6000fd5b505050506040513d601f19601f82011682018060405250610b2e9190810190611541565b61103b565b60208101516040516323b872dd60e01b81526001600160a01b038416916323b872dd91610b679130918891906004016117f0565b600060405180830381600087803b158015610b8157600080fd5b505af1158015610b95573d6000803e3d6000fd5b50505050610bbf6040518060400160405280600581526020016430b33a32b960d91b8152506110b3565b6810d85b98d95b1b195960ba1b610bd5856109af565b60600152604051600080516020611ad083398151915290610bf790869061198a565b60405180910390a15050505050565b6040516323b872dd60e01b81526001600160a01b038416906323b872dd90610c36903390309087906004016117c8565b600060405180830381600087803b158015610c5057600080fd5b505af1158015610c64573d6000803e3d6000fd5b50506003805460019081018083556040805160808101825233815260208082018a81528284018a81526327b832b760e11b60608501908152600096875260029384905295859020935184546001600160a01b0319166001600160a01b0390911617845590519583019590955593519381019390935590519183019190915590549051600080516020611ad08339815191529350610d09925060001991909101906119a4565b60405180910390a1505050565b6004546001600160a01b031681565b600154604051634dd5bfa560e11b81526001600160a01b0390911690639bab7f4a90610d5590859060040161187a565b602060405180830381600087803b158015610d6f57600080fd5b505af1158015610d83573d6000803e3d6000fd5b505050506040513d601f19601f82011682018060405250610da791908101906113d3565b50600081815260026020526040902080546001600160a01b03163314610ddf5760405162461bcd60e51b81526004016103589061191e565b80600301546327b832b760e11b14610e095760405162461bcd60e51b81526004016103589061193e565b805460018201546040516323b872dd60e01b81526001600160a01b03868116936323b872dd93610e41933093909216916004016117f0565b600060405180830381600087803b158015610e5b57600080fd5b505af1158015610e6f573d6000803e3d6000fd5b505050600083815260026020526040908190206810d85b98d95b1b195960ba1b60039091015551600080516020611ad08339815191529150610d0990849061198a565b50600090565b600154604051634dd5bfa560e11b81526001600160a01b0390911690639bab7f4a90610ee8908590600401611899565b602060405180830381600087803b158015610f0257600080fd5b505af1158015610f16573d6000803e3d6000fd5b505050506040513d601f19601f82011682018060405250610f3a91908101906113d3565b50600081815260026020526040902080546001600160a01b03163314610f725760405162461bcd60e51b81526004016103589061192e565b60018101546040516323b872dd60e01b81526001600160a01b038516916323b872dd91610fa69133913091906004016117c8565b600060405180830381600087803b158015610fc057600080fd5b505af1158015610fd4573d6000803e3d6000fd5b505050600083815260026020526040908190206327b832b760e11b60039091015551600080516020611ad08339815191529150610d099084906119a4565b600080935093915050565b6000546001600160a01b031681565b6005546001600160a01b031681565b61108082826040516024016110519291906118fe565b60408051601f198184030181529190526020810180516001600160e01b03166309710a9d60e41b1790526110f9565b5050565b60009182526002602052604090912080546001600160a01b0319166001600160a01b0390921691909117905550565b6110f6816040516024016110c791906118ed565b60408051601f198184030181529190526020810180516001600160e01b031663104c13eb60e21b1790526110f9565b50565b80516a636f6e736f6c652e6c6f67602083016000808483855afa5050505050565b60405180610100016040528060006001600160a01b03168152602001606081526020016060815260200160006001600160a01b03168152602001600081526020016060815260200160608152602001600081525090565b60408051608081018252600080825260208201819052918101829052606081019190915290565b80356111a381611aa0565b92915050565b80516111a381611aa0565b80516111a381611ab4565b80356111a381611abd565b80516111a381611abd565b600082601f8301126111e657600080fd5b81516111f96111f482611a00565b6119d9565b9150808252602083016020830185838301111561121557600080fd5b611220838284611a6a565b50505092915050565b6000610100828403121561123c57600080fd5b6112476101006119d9565b9050600061125584846111ca565b825250602082015167ffffffffffffffff81111561127257600080fd5b61127e848285016111d5565b602083015250604082015167ffffffffffffffff81111561129e57600080fd5b6112aa848285016111d5565b60408301525060606112be848285016111a9565b60608301525060806112d284828501611355565b60808301525060a082015167ffffffffffffffff8111156112f257600080fd5b6112fe848285016111d5565b60a08301525060c082015167ffffffffffffffff81111561131e57600080fd5b61132a848285016111d5565b60c08301525060e061133e84828501611355565b60e08301525092915050565b80356111a381611ac6565b80516111a381611ac6565b60006020828403121561137257600080fd5b600061137e84846111a9565b949350505050565b60008060006060848603121561139b57600080fd5b60006113a78686611198565b93505060206113b886828701611198565b92505060406113c98682870161134a565b9150509250925092565b6000602082840312156113e557600080fd5b600061137e84846111b4565b60006020828403121561140357600080fd5b600061137e84846111bf565b6000806040838503121561142257600080fd5b600061142e85856111bf565b925050602061143f85828601611198565b9150509250929050565b6000806040838503121561145c57600080fd5b600061146885856111bf565b925050602061143f8582860161134a565b60008060006060848603121561148e57600080fd5b600061149a86866111bf565b93505060206114ab8682870161134a565b92505060406113c986828701611198565b6000806000606084860312156114d157600080fd5b60006114dd86866111bf565b93505060206113b88682870161134a565b60006020828403121561150057600080fd5b815167ffffffffffffffff81111561151757600080fd5b61137e84828501611229565b60006020828403121561153557600080fd5b600061137e848461134a565b60006020828403121561155357600080fd5b600061137e8484611355565b61156881611a5f565b82525050565b61156881611a35565b61156881611a40565b61156881611a45565b61156881611a48565b600061159d82611a28565b6115a78185611a2c565b93506115b7818560208601611a6a565b6115c081611a96565b9093019392505050565b60006115d7602683611a2c565b7f54726164652063616e2062652063616e63656c6c6564206f6e6c79206279207381526532b63632b91760d11b602082015260400192915050565b600061161f602183611a2c565b7f54726164652063616e206265206f70656e206f6e6c792062792073656c6c65728152601760f91b602082015260400192915050565b6000611662601283611a2c565b712a3930b2329034b9903737ba1027b832b71760711b815260200192915050565b6000611690601f83611a2c565b7f6f6e6c7920746865206f776e65722063616e206769766520617274776f726b00815260200192915050565b6810d85b98d95b1b195960ba1b9052565b60006116da600983611a2c565b6810d85b98d95b1b195960ba1b815260200192915050565b6327b832b760e11b9052565b600061170b600483611a2c565b6327b832b760e11b815260200192915050565b600061172b602a83611a2c565b7f6d73672e76616c75652073686f756c6420626520657175616c20746f2074686581526908189d5e505b5bdd5b9d60b21b602082015260400192915050565b8051608083019061177b848261156e565b50602082015161178e6020850182611580565b5060408201516117a16040850182611580565b5060608201516117b46060850182611580565b50505050565b602081016111a3828461156e565b606081016117d6828661155f565b6117e3602083018561156e565b61137e6040830184611580565b606081016117d6828661156e565b6080810161180c828761156e565b6118196020830186611580565b6118266040830185611580565b6118336060830184611580565b95945050505050565b602081016111a38284611577565b602081016111a38284611589565b604081016118668285611589565b611873602083018461156e565b9392505050565b604081016118888284611589565b8181036020830152611873816116cd565b604081016118a78284611589565b8181036020830152611873816116fe565b608081016118c68287611589565b6118d36020830186611580565b6118e0604083018561156e565b611833606083018461156e565b602080825281016118738184611592565b6040808252810161190f8185611592565b90506118736020830184611580565b602080825281016111a3816115ca565b602080825281016111a381611612565b602080825281016111a381611655565b602080825281016111a381611683565b602080825281016111a38161171e565b608081016111a3828461176a565b602081016111a38284611580565b604081016119988284611580565b6111a3602083016116bc565b604081016119b28284611580565b6111a3602083016116f2565b604081016119cc8285611580565b6118736020830184611580565b60405181810167ffffffffffffffff811182821017156119f857600080fd5b604052919050565b600067ffffffffffffffff821115611a1757600080fd5b506020601f91909101601f19160190565b5190565b90815260200190565b60006111a382611a53565b151590565b90565b60006111a382611a35565b6001600160a01b031690565b60006111a382611a48565b60005b83811015611a85578181015183820152602001611a6d565b838111156117b45750506000910152565b601f01601f191690565b611aa981611a35565b81146110f657600080fd5b611aa981611a40565b611aa981611a48565b611aa981611a4556fe4d38ed2c5ea671a5ccddc331f0ebebd94a60aaf6e572543497485d4d148f9edfa365627a7a723158206da58b694b50e13453e1627764cf5001852035f49f87e6c3bd803bed7c0418606c6578706572696d656e74616cf564736f6c63430005100040",
  "source": "pragma solidity ^0.5.0;\npragma experimental ABIEncoderV2;\n\n//import { ERC20 } from './openzeppelin-solidity/contracts/token/ERC20/ERC20.sol';\nimport { SafeMath } from \"./openzeppelin-solidity/contracts/math/SafeMath.sol\";\nimport { PhotoNFT } from \"./PhotoNFT.sol\";\nimport { PhotoNFTTradable } from \"./PhotoNFTTradable.sol\";\nimport { PhotoNFTMarketplaceEvents } from \"./photo-nft-marketplace/commons/PhotoNFTMarketplaceEvents.sol\";\nimport { PhotoNFTData } from \"./PhotoNFTData.sol\";\nimport \"hardhat/console.sol\";\n\ncontract PhotoNFTMarketPlace is PhotoNFTTradable, PhotoNFTMarketplaceEvents {\n    using SafeMath for uint256;\n\n    address public PHOTO_NFT_MARKETPLACE;\n\n    PhotoNFTData public photoNFTData;\n\n    constructor(PhotoNFTData _photoNFTData) public PhotoNFTTradable(_photoNFTData) {\n        photoNFTData = _photoNFTData;\n        address payable PHOTO_NFT_MARKETPLACE = address(uint160(address(this)));\n    }\n\n    /** \n     * @notice - Buy function is that buy NFT token and ownership transfer. (Reference from IERC721.sol)\n     * @notice - msg.sender buy NFT with ETH (msg.value)\n     * @notice - PhotoID is always 1. Because each photoNFT is unique.\n     */\n    function buyPhotoNFT(PhotoNFT _photoNFT) public payable returns (bool) {\n        PhotoNFT photoNFT = _photoNFT;\n\n        PhotoNFTData.Photo memory photo = photoNFTData.getPhotoByNFTAddress(photoNFT);\n        address _seller = photo.ownerAddress;                     /// Owner\n        address payable seller = address(uint160(_seller));  /// Convert owner address with payable\n        uint256 buyAmount = photo.photoPrice;\n        require (msg.value == buyAmount, \"msg.value should be equal to the buyAmount\");\n \n        /// Bought-amount is transferred into a seller wallet\n        seller.transfer(buyAmount);\n\n        /// Approve a buyer address as a receiver before NFT's transferFrom method is executed\n        address buyer = msg.sender;\n        console.log(\"nft index:\",1);\n        uint256 photoId = 1;  /// [Note]: PhotoID is always 1. Because each photoNFT is unique.\n\n        address ownerBeforeOwnershipTransferred = photoNFT.ownerOf(photoId);\n\n        /// Transfer Ownership of the PhotoNFT from a seller to a buyer\n        transferOwnershipOfPhotoNFT(photoNFT, photoId, buyer);    \n        photoNFTData.updateOwnerOfPhotoNFT(photoNFT, buyer);\n        photoNFTData.updateStatus(photoNFT, \"Cancelled\");\n\n        /// Event for checking result of transferring ownership of a photoNFT\n        address ownerAfterOwnershipTransferred = photoNFT.ownerOf(photoId);\n        emit PhotoNFTOwnershipChanged(photoNFT, photoId, ownerBeforeOwnershipTransferred, ownerAfterOwnershipTransferred);\n\n        /// Mint a photo with a new photoId\n        //string memory tokenURI = photoNFTFactory.getTokenURI(photoData.ipfsHashOfPhoto);  /// [Note]: IPFS hash + URL\n        //photoNFT.mint(msg.sender, tokenURI);\n    }\n        function givePhotoNFT(PhotoNFT _photoNFT, address payable receiver) public payable returns (bool) {\n        PhotoNFTData.Photo memory photo = photoNFTData.getPhotoByNFTAddress(photoNFT);\n        address _seller = photo.ownerAddress;\n        require(_seller==msg.sender,\"only the owner can give artwork\");\n        PhotoNFT photoNFT = _photoNFT;\n\n        address payable seller = address(uint160(_seller));  /// Convert owner address with payable\n        /// Approve a buyer address as a receiver before NFT's transferFrom method is executed\n        address buyer = receiver;\n        console.log(\"nft index:\",1);\n        uint256 photoId = 1;  /// [Note]: PhotoID is always 1. Because each photoNFT is unique.\n\n        address ownerBeforeOwnershipTransferred = photoNFT.ownerOf(photoId);\n\n        /// Transfer Ownership of the PhotoNFT from a seller to a buyer\n        transferOwnershipOfPhotoNFT(photoNFT, photoId, buyer);    \n        photoNFTData.updateOwnerOfPhotoNFT(photoNFT, buyer);\n        photoNFTData.updateStatus(photoNFT, \"Cancelled\");\n\n        /// Event for checking result of transferring ownership of a photoNFT\n        address ownerAfterOwnershipTransferred = photoNFT.ownerOf(photoId);\n        emit PhotoNFTOwnershipChanged(photoNFT, photoId, ownerBeforeOwnershipTransferred, ownerAfterOwnershipTransferred);\n\n        /// Mint a photo with a new photoId\n        //string memory tokenURI = photoNFTFactory.getTokenURI(photoData.ipfsHashOfPhoto);  /// [Note]: IPFS hash + URL\n        //photoNFT.mint(msg.sender, tokenURI);\n    }\n\n\n    ///-----------------------------------------------------\n    /// Methods below are pending methods\n    ///-----------------------------------------------------\n\n    /** \n     * @dev reputation function is that gives reputation to a user who has ownership of being posted photo.\n     * @dev Each user has reputation data in struct\n     */\n    function reputation(address from, address to, uint256 photoId) public returns (uint256, uint256) {\n\n        // Photo storage photo = photos[photoId];\n        // photo.reputation = photo.reputation.add(1);\n\n        // emit AddReputation(photoId, photo.reputation);\n\n        // return (photoId, photo.reputation);\n        return (0, 0);\n    }\n    \n\n    function getReputationCount(uint256 photoId) public view returns (uint256) {\n        uint256 curretReputationCount;\n\n        // Photo memory photo = photos[photoId];\n        // curretReputationCount = photo.reputation;\n\n        return curretReputationCount;\n    }    \n\n}\n",
  "sourcePath": "/Users/yonatanmartsiano/Downloads/Swallow-2/contracts/PhotoNFTMarketPlace.sol",
  "compiler": {
    "name": "solc",
    "version": "0.5.16+commit.9c3226ce.Emscripten.clang"
  },
  "schemaVersion": "3.3.2",
  "updatedAt": "2021-08-14T07:05:42.126Z",
  "devdoc": {
    "methods": {
      "cancelTrade(address,uint256)": {
        "details": "Cancels a trade by the seller."
      },
      "getTrade(uint256)": {
        "details": "- Returns the details for a trade."
      },
      "openTrade(address,uint256)": {
        "details": "Opens a trade by the seller."
      },
      "openTradeWhenCreateNewPhotoNFT(address,uint256,uint256)": {
        "details": "Opens a new trade. Puts _photoId in escrow.",
        "params": {
          "_photoId": "The id for the photoId to trade.",
          "_photoPrice": "The amount of currency for which to trade the photoId."
        }
      },
      "reputation(address,address,uint256)": {
        "details": "reputation function is that gives reputation to a user who has ownership of being posted photo.Each user has reputation data in struct"
      },
      "transferOwnershipOfPhotoNFT(address,uint256,address)": {
        "details": "Executes a trade. Must have approved this contract to transfer the amount of currency specified to the seller. Transfers ownership of the photoId to the filler."
      }
    }
  },
  "userdoc": {
    "methods": {
      "buyPhotoNFT(address)": {
        "notice": "- Buy function is that buy NFT token and ownership transfer. (Reference from IERC721.sol)- msg.sender buy NFT with ETH (msg.value)- PhotoID is always 1. Because each photoNFT is unique."
      },
      "openTradeWhenCreateNewPhotoNFT(address,uint256,uint256)": {
        "notice": "- This method is only executed when a seller create a new PhotoNFT"
      }
    }
  }
}